{
	"data": {
		"bytecode": {
			"linkReferences": {},
			"object": "608060405268056bc75e2d631000005f55348015601a575f80fd5b5073694aa1769357215de4fac081bf1f309adc32530660025f6101000a81548173ffffffffffffffffffffffffffffffffffffffff021916908373ffffffffffffffffffffffffffffffffffffffff1602179055506105818061007c5f395ff3fe608060405260043610610033575f3560e01c80634de045e214610037578063b60d428814610073578063bea4dfb51461007d575b5f80fd5b348015610042575f80fd5b5061005d60048036038101906100589190610271565b6100a7565b60405161006a91906102b4565b60405180910390f35b61007b6100bc565b005b348015610088575f80fd5b5061009161014c565b60405161009e91906102e5565b60405180910390f35b6001602052805f5260405f205f915090505481565b5f546100c7346101e9565b1015610108576040517f08c379a00000000000000000000000000000000000000000000000000000000081526004016100ff90610358565b60405180910390fd5b3460015f3373ffffffffffffffffffffffffffffffffffffffff1673ffffffffffffffffffffffffffffffffffffffff1681526020019081526020015f2081905550565b5f8060025f9054906101000a900473ffffffffffffffffffffffffffffffffffffffff1673ffffffffffffffffffffffffffffffffffffffff1663feaf968c6040518163ffffffff1660e01b815260040160a060405180830381865afa1580156101b8573d5f803e3d5ffd5b505050506040513d601f19601f820116820180604052508101906101dc9190610409565b5050509150508091505090565b5f6305f5e1006101f761014c565b8361020291906104ad565b61020c919061051b565b9050919050565b5f80fd5b5f73ffffffffffffffffffffffffffffffffffffffff82169050919050565b5f61024082610217565b9050919050565b61025081610236565b811461025a575f80fd5b50565b5f8135905061026b81610247565b92915050565b5f6020828403121561028657610285610213565b5b5f6102938482850161025d565b91505092915050565b5f819050919050565b6102ae8161029c565b82525050565b5f6020820190506102c75f8301846102a5565b92915050565b5f819050919050565b6102df816102cd565b82525050565b5f6020820190506102f85f8301846102d6565b92915050565b5f82825260208201905092915050565b7f53656e64206d6f7265206574682e0000000000000000000000000000000000005f82015250565b5f610342600e836102fe565b915061034d8261030e565b602082019050919050565b5f6020820190508181035f83015261036f81610336565b9050919050565b5f69ffffffffffffffffffff82169050919050565b61039481610376565b811461039e575f80fd5b50565b5f815190506103af8161038b565b92915050565b6103be816102cd565b81146103c8575f80fd5b50565b5f815190506103d9816103b5565b92915050565b6103e88161029c565b81146103f2575f80fd5b50565b5f81519050610403816103df565b92915050565b5f805f805f60a0868803121561042257610421610213565b5b5f61042f888289016103a1565b9550506020610440888289016103cb565b9450506040610451888289016103f5565b9350506060610462888289016103f5565b9250506080610473888289016103a1565b9150509295509295909350565b7f4e487b71000000000000000000000000000000000000000000000000000000005f52601160045260245ffd5b5f6104b78261029c565b91506104c28361029c565b92508282026104d08161029c565b915082820484148315176104e7576104e6610480565b5b5092915050565b7f4e487b71000000000000000000000000000000000000000000000000000000005f52601260045260245ffd5b5f6105258261029c565b91506105308361029c565b9250826105405761053f6104ee565b5b82820490509291505056fea2646970667358221220cad25e0c150849e5572cd59874067d709b3b5237b41bc53886db527827195d1364736f6c634300081a0033",
			"opcodes": "PUSH1 0x80 PUSH1 0x40 MSTORE PUSH9 0x56BC75E2D63100000 PUSH0 SSTORE CALLVALUE DUP1 ISZERO PUSH1 0x1A JUMPI PUSH0 DUP1 REVERT JUMPDEST POP PUSH20 0x694AA1769357215DE4FAC081BF1F309ADC325306 PUSH1 0x2 PUSH0 PUSH2 0x100 EXP DUP2 SLOAD DUP2 PUSH20 0xFFFFFFFFFFFFFFFFFFFFFFFFFFFFFFFFFFFFFFFF MUL NOT AND SWAP1 DUP4 PUSH20 0xFFFFFFFFFFFFFFFFFFFFFFFFFFFFFFFFFFFFFFFF AND MUL OR SWAP1 SSTORE POP PUSH2 0x581 DUP1 PUSH2 0x7C PUSH0 CODECOPY PUSH0 RETURN INVALID PUSH1 0x80 PUSH1 0x40 MSTORE PUSH1 0x4 CALLDATASIZE LT PUSH2 0x33 JUMPI PUSH0 CALLDATALOAD PUSH1 0xE0 SHR DUP1 PUSH4 0x4DE045E2 EQ PUSH2 0x37 JUMPI DUP1 PUSH4 0xB60D4288 EQ PUSH2 0x73 JUMPI DUP1 PUSH4 0xBEA4DFB5 EQ PUSH2 0x7D JUMPI JUMPDEST PUSH0 DUP1 REVERT JUMPDEST CALLVALUE DUP1 ISZERO PUSH2 0x42 JUMPI PUSH0 DUP1 REVERT JUMPDEST POP PUSH2 0x5D PUSH1 0x4 DUP1 CALLDATASIZE SUB DUP2 ADD SWAP1 PUSH2 0x58 SWAP2 SWAP1 PUSH2 0x271 JUMP JUMPDEST PUSH2 0xA7 JUMP JUMPDEST PUSH1 0x40 MLOAD PUSH2 0x6A SWAP2 SWAP1 PUSH2 0x2B4 JUMP JUMPDEST PUSH1 0x40 MLOAD DUP1 SWAP2 SUB SWAP1 RETURN JUMPDEST PUSH2 0x7B PUSH2 0xBC JUMP JUMPDEST STOP JUMPDEST CALLVALUE DUP1 ISZERO PUSH2 0x88 JUMPI PUSH0 DUP1 REVERT JUMPDEST POP PUSH2 0x91 PUSH2 0x14C JUMP JUMPDEST PUSH1 0x40 MLOAD PUSH2 0x9E SWAP2 SWAP1 PUSH2 0x2E5 JUMP JUMPDEST PUSH1 0x40 MLOAD DUP1 SWAP2 SUB SWAP1 RETURN JUMPDEST PUSH1 0x1 PUSH1 0x20 MSTORE DUP1 PUSH0 MSTORE PUSH1 0x40 PUSH0 KECCAK256 PUSH0 SWAP2 POP SWAP1 POP SLOAD DUP2 JUMP JUMPDEST PUSH0 SLOAD PUSH2 0xC7 CALLVALUE PUSH2 0x1E9 JUMP JUMPDEST LT ISZERO PUSH2 0x108 JUMPI PUSH1 0x40 MLOAD PUSH32 0x8C379A000000000000000000000000000000000000000000000000000000000 DUP2 MSTORE PUSH1 0x4 ADD PUSH2 0xFF SWAP1 PUSH2 0x358 JUMP JUMPDEST PUSH1 0x40 MLOAD DUP1 SWAP2 SUB SWAP1 REVERT JUMPDEST CALLVALUE PUSH1 0x1 PUSH0 CALLER PUSH20 0xFFFFFFFFFFFFFFFFFFFFFFFFFFFFFFFFFFFFFFFF AND PUSH20 0xFFFFFFFFFFFFFFFFFFFFFFFFFFFFFFFFFFFFFFFF AND DUP2 MSTORE PUSH1 0x20 ADD SWAP1 DUP2 MSTORE PUSH1 0x20 ADD PUSH0 KECCAK256 DUP2 SWAP1 SSTORE POP JUMP JUMPDEST PUSH0 DUP1 PUSH1 0x2 PUSH0 SWAP1 SLOAD SWAP1 PUSH2 0x100 EXP SWAP1 DIV PUSH20 0xFFFFFFFFFFFFFFFFFFFFFFFFFFFFFFFFFFFFFFFF AND PUSH20 0xFFFFFFFFFFFFFFFFFFFFFFFFFFFFFFFFFFFFFFFF AND PUSH4 0xFEAF968C PUSH1 0x40 MLOAD DUP2 PUSH4 0xFFFFFFFF AND PUSH1 0xE0 SHL DUP2 MSTORE PUSH1 0x4 ADD PUSH1 0xA0 PUSH1 0x40 MLOAD DUP1 DUP4 SUB DUP2 DUP7 GAS STATICCALL ISZERO DUP1 ISZERO PUSH2 0x1B8 JUMPI RETURNDATASIZE PUSH0 DUP1 RETURNDATACOPY RETURNDATASIZE PUSH0 REVERT JUMPDEST POP POP POP POP PUSH1 0x40 MLOAD RETURNDATASIZE PUSH1 0x1F NOT PUSH1 0x1F DUP3 ADD AND DUP3 ADD DUP1 PUSH1 0x40 MSTORE POP DUP2 ADD SWAP1 PUSH2 0x1DC SWAP2 SWAP1 PUSH2 0x409 JUMP JUMPDEST POP POP POP SWAP2 POP POP DUP1 SWAP2 POP POP SWAP1 JUMP JUMPDEST PUSH0 PUSH4 0x5F5E100 PUSH2 0x1F7 PUSH2 0x14C JUMP JUMPDEST DUP4 PUSH2 0x202 SWAP2 SWAP1 PUSH2 0x4AD JUMP JUMPDEST PUSH2 0x20C SWAP2 SWAP1 PUSH2 0x51B JUMP JUMPDEST SWAP1 POP SWAP2 SWAP1 POP JUMP JUMPDEST PUSH0 DUP1 REVERT JUMPDEST PUSH0 PUSH20 0xFFFFFFFFFFFFFFFFFFFFFFFFFFFFFFFFFFFFFFFF DUP3 AND SWAP1 POP SWAP2 SWAP1 POP JUMP JUMPDEST PUSH0 PUSH2 0x240 DUP3 PUSH2 0x217 JUMP JUMPDEST SWAP1 POP SWAP2 SWAP1 POP JUMP JUMPDEST PUSH2 0x250 DUP2 PUSH2 0x236 JUMP JUMPDEST DUP2 EQ PUSH2 0x25A JUMPI PUSH0 DUP1 REVERT JUMPDEST POP JUMP JUMPDEST PUSH0 DUP2 CALLDATALOAD SWAP1 POP PUSH2 0x26B DUP2 PUSH2 0x247 JUMP JUMPDEST SWAP3 SWAP2 POP POP JUMP JUMPDEST PUSH0 PUSH1 0x20 DUP3 DUP5 SUB SLT ISZERO PUSH2 0x286 JUMPI PUSH2 0x285 PUSH2 0x213 JUMP JUMPDEST JUMPDEST PUSH0 PUSH2 0x293 DUP5 DUP3 DUP6 ADD PUSH2 0x25D JUMP JUMPDEST SWAP2 POP POP SWAP3 SWAP2 POP POP JUMP JUMPDEST PUSH0 DUP2 SWAP1 POP SWAP2 SWAP1 POP JUMP JUMPDEST PUSH2 0x2AE DUP2 PUSH2 0x29C JUMP JUMPDEST DUP3 MSTORE POP POP JUMP JUMPDEST PUSH0 PUSH1 0x20 DUP3 ADD SWAP1 POP PUSH2 0x2C7 PUSH0 DUP4 ADD DUP5 PUSH2 0x2A5 JUMP JUMPDEST SWAP3 SWAP2 POP POP JUMP JUMPDEST PUSH0 DUP2 SWAP1 POP SWAP2 SWAP1 POP JUMP JUMPDEST PUSH2 0x2DF DUP2 PUSH2 0x2CD JUMP JUMPDEST DUP3 MSTORE POP POP JUMP JUMPDEST PUSH0 PUSH1 0x20 DUP3 ADD SWAP1 POP PUSH2 0x2F8 PUSH0 DUP4 ADD DUP5 PUSH2 0x2D6 JUMP JUMPDEST SWAP3 SWAP2 POP POP JUMP JUMPDEST PUSH0 DUP3 DUP3 MSTORE PUSH1 0x20 DUP3 ADD SWAP1 POP SWAP3 SWAP2 POP POP JUMP JUMPDEST PUSH32 0x53656E64206D6F7265206574682E000000000000000000000000000000000000 PUSH0 DUP3 ADD MSTORE POP JUMP JUMPDEST PUSH0 PUSH2 0x342 PUSH1 0xE DUP4 PUSH2 0x2FE JUMP JUMPDEST SWAP2 POP PUSH2 0x34D DUP3 PUSH2 0x30E JUMP JUMPDEST PUSH1 0x20 DUP3 ADD SWAP1 POP SWAP2 SWAP1 POP JUMP JUMPDEST PUSH0 PUSH1 0x20 DUP3 ADD SWAP1 POP DUP2 DUP2 SUB PUSH0 DUP4 ADD MSTORE PUSH2 0x36F DUP2 PUSH2 0x336 JUMP JUMPDEST SWAP1 POP SWAP2 SWAP1 POP JUMP JUMPDEST PUSH0 PUSH10 0xFFFFFFFFFFFFFFFFFFFF DUP3 AND SWAP1 POP SWAP2 SWAP1 POP JUMP JUMPDEST PUSH2 0x394 DUP2 PUSH2 0x376 JUMP JUMPDEST DUP2 EQ PUSH2 0x39E JUMPI PUSH0 DUP1 REVERT JUMPDEST POP JUMP JUMPDEST PUSH0 DUP2 MLOAD SWAP1 POP PUSH2 0x3AF DUP2 PUSH2 0x38B JUMP JUMPDEST SWAP3 SWAP2 POP POP JUMP JUMPDEST PUSH2 0x3BE DUP2 PUSH2 0x2CD JUMP JUMPDEST DUP2 EQ PUSH2 0x3C8 JUMPI PUSH0 DUP1 REVERT JUMPDEST POP JUMP JUMPDEST PUSH0 DUP2 MLOAD SWAP1 POP PUSH2 0x3D9 DUP2 PUSH2 0x3B5 JUMP JUMPDEST SWAP3 SWAP2 POP POP JUMP JUMPDEST PUSH2 0x3E8 DUP2 PUSH2 0x29C JUMP JUMPDEST DUP2 EQ PUSH2 0x3F2 JUMPI PUSH0 DUP1 REVERT JUMPDEST POP JUMP JUMPDEST PUSH0 DUP2 MLOAD SWAP1 POP PUSH2 0x403 DUP2 PUSH2 0x3DF JUMP JUMPDEST SWAP3 SWAP2 POP POP JUMP JUMPDEST PUSH0 DUP1 PUSH0 DUP1 PUSH0 PUSH1 0xA0 DUP7 DUP9 SUB SLT ISZERO PUSH2 0x422 JUMPI PUSH2 0x421 PUSH2 0x213 JUMP JUMPDEST JUMPDEST PUSH0 PUSH2 0x42F DUP9 DUP3 DUP10 ADD PUSH2 0x3A1 JUMP JUMPDEST SWAP6 POP POP PUSH1 0x20 PUSH2 0x440 DUP9 DUP3 DUP10 ADD PUSH2 0x3CB JUMP JUMPDEST SWAP5 POP POP PUSH1 0x40 PUSH2 0x451 DUP9 DUP3 DUP10 ADD PUSH2 0x3F5 JUMP JUMPDEST SWAP4 POP POP PUSH1 0x60 PUSH2 0x462 DUP9 DUP3 DUP10 ADD PUSH2 0x3F5 JUMP JUMPDEST SWAP3 POP POP PUSH1 0x80 PUSH2 0x473 DUP9 DUP3 DUP10 ADD PUSH2 0x3A1 JUMP JUMPDEST SWAP2 POP POP SWAP3 SWAP6 POP SWAP3 SWAP6 SWAP1 SWAP4 POP JUMP JUMPDEST PUSH32 0x4E487B7100000000000000000000000000000000000000000000000000000000 PUSH0 MSTORE PUSH1 0x11 PUSH1 0x4 MSTORE PUSH1 0x24 PUSH0 REVERT JUMPDEST PUSH0 PUSH2 0x4B7 DUP3 PUSH2 0x29C JUMP JUMPDEST SWAP2 POP PUSH2 0x4C2 DUP4 PUSH2 0x29C JUMP JUMPDEST SWAP3 POP DUP3 DUP3 MUL PUSH2 0x4D0 DUP2 PUSH2 0x29C JUMP JUMPDEST SWAP2 POP DUP3 DUP3 DIV DUP5 EQ DUP4 ISZERO OR PUSH2 0x4E7 JUMPI PUSH2 0x4E6 PUSH2 0x480 JUMP JUMPDEST JUMPDEST POP SWAP3 SWAP2 POP POP JUMP JUMPDEST PUSH32 0x4E487B7100000000000000000000000000000000000000000000000000000000 PUSH0 MSTORE PUSH1 0x12 PUSH1 0x4 MSTORE PUSH1 0x24 PUSH0 REVERT JUMPDEST PUSH0 PUSH2 0x525 DUP3 PUSH2 0x29C JUMP JUMPDEST SWAP2 POP PUSH2 0x530 DUP4 PUSH2 0x29C JUMP JUMPDEST SWAP3 POP DUP3 PUSH2 0x540 JUMPI PUSH2 0x53F PUSH2 0x4EE JUMP JUMPDEST JUMPDEST DUP3 DUP3 DIV SWAP1 POP SWAP3 SWAP2 POP POP JUMP INVALID LOG2 PUSH5 0x6970667358 0x22 SLT KECCAK256 0xCA 0xD2 MCOPY 0xC ISZERO ADDMOD BLOBHASH 0xE5 JUMPI 0x2C 0xD5 SWAP9 PUSH21 0x67D709B3B5237B41BC53886DB527827195D136473 PUSH16 0x6C634300081A00330000000000000000 "
		},
		"gasEstimates": {
			"creation": {
				"codeDepositCost": "281800",
				"executionCost": "46693",
				"totalCost": "328493"
			},
			"external": {
				"fund()": "infinite",
				"fundersMap(address)": "2780",
				"getChainlinkDataFeedLatestAnswer()": "infinite"
			},
			"internal": {
				"convertEthToUsd(uint256)": "infinite"
			}
		},
		"methodIdentifiers": {
			"fund()": "b60d4288",
			"fundersMap(address)": "4de045e2",
			"getChainlinkDataFeedLatestAnswer()": "bea4dfb5"
		}
	},
	"abi": [
		{
			"inputs": [],
			"stateMutability": "nonpayable",
			"type": "constructor"
		},
		{
			"inputs": [],
			"name": "fund",
			"outputs": [],
			"stateMutability": "payable",
			"type": "function"
		},
		{
			"inputs": [
				{
					"internalType": "address",
					"name": "",
					"type": "address"
				}
			],
			"name": "fundersMap",
			"outputs": [
				{
					"internalType": "uint256",
					"name": "",
					"type": "uint256"
				}
			],
			"stateMutability": "view",
			"type": "function"
		},
		{
			"inputs": [],
			"name": "getChainlinkDataFeedLatestAnswer",
			"outputs": [
				{
					"internalType": "int256",
					"name": "",
					"type": "int256"
				}
			],
			"stateMutability": "view",
			"type": "function"
		}
	]
}