{
	"demo1/helloworld.sol": {
		"Helloworld": {
			"abi": [
				{
					"inputs": [],
					"name": "getHelloWorld",
					"outputs": [
						{
							"internalType": "string",
							"name": "",
							"type": "string"
						}
					],
					"stateMutability": "view",
					"type": "function"
				},
				{
					"inputs": [
						{
							"internalType": "uint256",
							"name": "id",
							"type": "uint256"
						}
					],
					"name": "getInfo",
					"outputs": [
						{
							"internalType": "string",
							"name": "",
							"type": "string"
						}
					],
					"stateMutability": "view",
					"type": "function"
				},
				{
					"inputs": [
						{
							"internalType": "string",
							"name": "newStr",
							"type": "string"
						}
					],
					"name": "setHelloWorld",
					"outputs": [],
					"stateMutability": "nonpayable",
					"type": "function"
				},
				{
					"inputs": [
						{
							"internalType": "string",
							"name": "newInfo",
							"type": "string"
						},
						{
							"internalType": "uint256",
							"name": "newId",
							"type": "uint256"
						}
					],
					"name": "setInfo",
					"outputs": [],
					"stateMutability": "nonpayable",
					"type": "function"
				}
			],
			"devdoc": {
				"kind": "dev",
				"methods": {},
				"version": 1
			},
			"evm": {
				"assembly": "    /* \"demo1/helloworld.sol\":109:2200  contract Helloworld {... */\n  mstore(0x40, 0x80)\n    /* \"demo1/helloworld.sol\":166:170  true */\n  0x01\n    /* \"demo1/helloworld.sol\":152:170  bool isBool = true */\n  0x00\n  dup1\n  0x0100\n  exp\n  dup2\n  sload\n  dup2\n  0xff\n  mul\n  not\n  and\n  swap1\n  dup4\n  iszero\n  iszero\n  mul\n  or\n  swap1\n  sstore\n  pop\n    /* \"demo1/helloworld.sol\":309:312  255 */\n  0xff\n    /* \"demo1/helloworld.sol\":293:312  uint8 uintStr = 255 */\n  0x00\n  exp(0x0100, 0x01)\n  dup2\n  sload\n  dup2\n  0xff\n  mul\n  not\n  and\n  swap1\n  dup4\n  0xff\n  and\n  mul\n  or\n  swap1\n  sstore\n  pop\n    /* \"demo1/helloworld.sol\":337:340  256 */\n  0x0100\n    /* \"demo1/helloworld.sol\":318:340  uint256 uintStr2 = 256 */\n  0x01\n  sstore\n    /* \"demo1/helloworld.sol\":377:379  -2 */\n  0xfffffffffffffffffffffffffffffffffffffffffffffffffffffffffffffffe\n    /* \"demo1/helloworld.sol\":361:379  int256 intStr = -2 */\n  0x02\n  sstore\n    /* \"demo1/helloworld.sol\":406:438  bytes32 bytesStr = \"hello bytes\" */\n  sstore(0x03, 0x68656c6c6f206279746573000000000000000000000000000000000000000000)\n    /* \"demo1/helloworld.sol\":473:502  string strStr = \"hello world\" */\n  mload(0x40)\n  dup1\n  0x40\n  add\n  0x40\n  mstore\n  dup1\n  0x0b\n  dup2\n  mstore\n  0x20\n  add\n  0x68656c6c6f20776f726c64000000000000000000000000000000000000000000\n  dup2\n  mstore\n  pop\n  0x04\n  swap1\n  dup2\n  tag_1\n  swap2\n  swap1\n  tag_2\n  jump\t// in\ntag_1:\n  pop\n    /* \"demo1/helloworld.sol\":549:591  0x5B38Da6a701c568545dCfcB03FcB875f56beddC4 */\n  0x5b38da6a701c568545dcfcb03fcb875f56beddc4\n    /* \"demo1/helloworld.sol\":531:591  address addrVar = 0x5B38Da6a701c568545dCfcB03FcB875f56beddC4 */\n  0x05\n  exp(0x0100, 0x00)\n  dup2\n  sload\n  dup2\n  0xffffffffffffffffffffffffffffffffffffffff\n  mul\n  not\n  and\n  swap1\n  dup4\n  0xffffffffffffffffffffffffffffffffffffffff\n  and\n  mul\n  or\n  swap1\n  sstore\n  pop\n    /* \"demo1/helloworld.sol\":109:2200  contract Helloworld {... */\n  callvalue\n  dup1\n  iszero\n  tag_3\n  jumpi\n  0x00\n  dup1\n  revert\ntag_3:\n  pop\n  jump(tag_4)\n    /* \"#utility.yul\":7:106   */\ntag_5:\n    /* \"#utility.yul\":59:65   */\n  0x00\n    /* \"#utility.yul\":93:98   */\n  dup2\n    /* \"#utility.yul\":87:99   */\n  mload\n    /* \"#utility.yul\":77:99   */\n  swap1\n  pop\n    /* \"#utility.yul\":7:106   */\n  swap2\n  swap1\n  pop\n  jump\t// out\n    /* \"#utility.yul\":112:292   */\ntag_6:\n    /* \"#utility.yul\":160:237   */\n  0x4e487b7100000000000000000000000000000000000000000000000000000000\n    /* \"#utility.yul\":157:158   */\n  0x00\n    /* \"#utility.yul\":150:238   */\n  mstore\n    /* \"#utility.yul\":257:261   */\n  0x41\n    /* \"#utility.yul\":254:255   */\n  0x04\n    /* \"#utility.yul\":247:262   */\n  mstore\n    /* \"#utility.yul\":281:285   */\n  0x24\n    /* \"#utility.yul\":278:279   */\n  0x00\n    /* \"#utility.yul\":271:286   */\n  revert\n    /* \"#utility.yul\":298:478   */\ntag_7:\n    /* \"#utility.yul\":346:423   */\n  0x4e487b7100000000000000000000000000000000000000000000000000000000\n    /* \"#utility.yul\":343:344   */\n  0x00\n    /* \"#utility.yul\":336:424   */\n  mstore\n    /* \"#utility.yul\":443:447   */\n  0x22\n    /* \"#utility.yul\":440:441   */\n  0x04\n    /* \"#utility.yul\":433:448   */\n  mstore\n    /* \"#utility.yul\":467:471   */\n  0x24\n    /* \"#utility.yul\":464:465   */\n  0x00\n    /* \"#utility.yul\":457:472   */\n  revert\n    /* \"#utility.yul\":484:804   */\ntag_8:\n    /* \"#utility.yul\":528:534   */\n  0x00\n    /* \"#utility.yul\":565:566   */\n  0x02\n    /* \"#utility.yul\":559:563   */\n  dup3\n    /* \"#utility.yul\":555:567   */\n  div\n    /* \"#utility.yul\":545:567   */\n  swap1\n  pop\n    /* \"#utility.yul\":612:613   */\n  0x01\n    /* \"#utility.yul\":606:610   */\n  dup3\n    /* \"#utility.yul\":602:614   */\n  and\n    /* \"#utility.yul\":633:651   */\n  dup1\n    /* \"#utility.yul\":623:704   */\n  tag_30\n  jumpi\n    /* \"#utility.yul\":689:693   */\n  0x7f\n    /* \"#utility.yul\":681:687   */\n  dup3\n    /* \"#utility.yul\":677:694   */\n  and\n    /* \"#utility.yul\":667:694   */\n  swap2\n  pop\n    /* \"#utility.yul\":623:704   */\ntag_30:\n    /* \"#utility.yul\":751:753   */\n  0x20\n    /* \"#utility.yul\":743:749   */\n  dup3\n    /* \"#utility.yul\":740:754   */\n  lt\n    /* \"#utility.yul\":720:738   */\n  dup2\n    /* \"#utility.yul\":717:755   */\n  sub\n    /* \"#utility.yul\":714:798   */\n  tag_31\n  jumpi\n    /* \"#utility.yul\":770:788   */\n  tag_32\n  tag_7\n  jump\t// in\ntag_32:\n    /* \"#utility.yul\":714:798   */\ntag_31:\n    /* \"#utility.yul\":535:804   */\n  pop\n    /* \"#utility.yul\":484:804   */\n  swap2\n  swap1\n  pop\n  jump\t// out\n    /* \"#utility.yul\":810:951   */\ntag_9:\n    /* \"#utility.yul\":859:863   */\n  0x00\n    /* \"#utility.yul\":882:885   */\n  dup2\n    /* \"#utility.yul\":874:885   */\n  swap1\n  pop\n    /* \"#utility.yul\":905:908   */\n  dup2\n    /* \"#utility.yul\":902:903   */\n  0x00\n    /* \"#utility.yul\":895:909   */\n  mstore\n    /* \"#utility.yul\":939:943   */\n  0x20\n    /* \"#utility.yul\":936:937   */\n  0x00\n    /* \"#utility.yul\":926:944   */\n  keccak256\n    /* \"#utility.yul\":918:944   */\n  swap1\n  pop\n    /* \"#utility.yul\":810:951   */\n  swap2\n  swap1\n  pop\n  jump\t// out\n    /* \"#utility.yul\":957:1050   */\ntag_10:\n    /* \"#utility.yul\":994:1000   */\n  0x00\n    /* \"#utility.yul\":1041:1043   */\n  0x20\n    /* \"#utility.yul\":1036:1038   */\n  0x1f\n    /* \"#utility.yul\":1029:1034   */\n  dup4\n    /* \"#utility.yul\":1025:1039   */\n  add\n    /* \"#utility.yul\":1021:1044   */\n  div\n    /* \"#utility.yul\":1011:1044   */\n  swap1\n  pop\n    /* \"#utility.yul\":957:1050   */\n  swap2\n  swap1\n  pop\n  jump\t// out\n    /* \"#utility.yul\":1056:1163   */\ntag_11:\n    /* \"#utility.yul\":1100:1108   */\n  0x00\n    /* \"#utility.yul\":1150:1155   */\n  dup3\n    /* \"#utility.yul\":1144:1148   */\n  dup3\n    /* \"#utility.yul\":1140:1156   */\n  shl\n    /* \"#utility.yul\":1119:1156   */\n  swap1\n  pop\n    /* \"#utility.yul\":1056:1163   */\n  swap3\n  swap2\n  pop\n  pop\n  jump\t// out\n    /* \"#utility.yul\":1169:1562   */\ntag_12:\n    /* \"#utility.yul\":1238:1244   */\n  0x00\n    /* \"#utility.yul\":1288:1289   */\n  0x08\n    /* \"#utility.yul\":1276:1286   */\n  dup4\n    /* \"#utility.yul\":1272:1290   */\n  mul\n    /* \"#utility.yul\":1311:1408   */\n  tag_37\n    /* \"#utility.yul\":1341:1407   */\n  0xffffffffffffffffffffffffffffffffffffffffffffffffffffffffffffffff\n    /* \"#utility.yul\":1330:1339   */\n  dup3\n    /* \"#utility.yul\":1311:1408   */\n  tag_11\n  jump\t// in\ntag_37:\n    /* \"#utility.yul\":1429:1468   */\n  tag_38\n    /* \"#utility.yul\":1459:1467   */\n  dup7\n    /* \"#utility.yul\":1448:1457   */\n  dup4\n    /* \"#utility.yul\":1429:1468   */\n  tag_11\n  jump\t// in\ntag_38:\n    /* \"#utility.yul\":1417:1468   */\n  swap6\n  pop\n    /* \"#utility.yul\":1501:1505   */\n  dup1\n    /* \"#utility.yul\":1497:1506   */\n  not\n    /* \"#utility.yul\":1490:1495   */\n  dup5\n    /* \"#utility.yul\":1486:1507   */\n  and\n    /* \"#utility.yul\":1477:1507   */\n  swap4\n  pop\n    /* \"#utility.yul\":1550:1554   */\n  dup1\n    /* \"#utility.yul\":1540:1548   */\n  dup7\n    /* \"#utility.yul\":1536:1555   */\n  and\n    /* \"#utility.yul\":1529:1534   */\n  dup5\n    /* \"#utility.yul\":1526:1556   */\n  or\n    /* \"#utility.yul\":1516:1556   */\n  swap3\n  pop\n    /* \"#utility.yul\":1245:1562   */\n  pop\n  pop\n    /* \"#utility.yul\":1169:1562   */\n  swap4\n  swap3\n  pop\n  pop\n  pop\n  jump\t// out\n    /* \"#utility.yul\":1568:1645   */\ntag_13:\n    /* \"#utility.yul\":1605:1612   */\n  0x00\n    /* \"#utility.yul\":1634:1639   */\n  dup2\n    /* \"#utility.yul\":1623:1639   */\n  swap1\n  pop\n    /* \"#utility.yul\":1568:1645   */\n  swap2\n  swap1\n  pop\n  jump\t// out\n    /* \"#utility.yul\":1651:1711   */\ntag_14:\n    /* \"#utility.yul\":1679:1682   */\n  0x00\n    /* \"#utility.yul\":1700:1705   */\n  dup2\n    /* \"#utility.yul\":1693:1705   */\n  swap1\n  pop\n    /* \"#utility.yul\":1651:1711   */\n  swap2\n  swap1\n  pop\n  jump\t// out\n    /* \"#utility.yul\":1717:1859   */\ntag_15:\n    /* \"#utility.yul\":1767:1776   */\n  0x00\n    /* \"#utility.yul\":1800:1853   */\n  tag_42\n    /* \"#utility.yul\":1818:1852   */\n  tag_43\n    /* \"#utility.yul\":1827:1851   */\n  tag_44\n    /* \"#utility.yul\":1845:1850   */\n  dup5\n    /* \"#utility.yul\":1827:1851   */\n  tag_13\n  jump\t// in\ntag_44:\n    /* \"#utility.yul\":1818:1852   */\n  tag_14\n  jump\t// in\ntag_43:\n    /* \"#utility.yul\":1800:1853   */\n  tag_13\n  jump\t// in\ntag_42:\n    /* \"#utility.yul\":1787:1853   */\n  swap1\n  pop\n    /* \"#utility.yul\":1717:1859   */\n  swap2\n  swap1\n  pop\n  jump\t// out\n    /* \"#utility.yul\":1865:1940   */\ntag_16:\n    /* \"#utility.yul\":1908:1911   */\n  0x00\n    /* \"#utility.yul\":1929:1934   */\n  dup2\n    /* \"#utility.yul\":1922:1934   */\n  swap1\n  pop\n    /* \"#utility.yul\":1865:1940   */\n  swap2\n  swap1\n  pop\n  jump\t// out\n    /* \"#utility.yul\":1946:2215   */\ntag_17:\n    /* \"#utility.yul\":2056:2095   */\n  tag_47\n    /* \"#utility.yul\":2087:2094   */\n  dup4\n    /* \"#utility.yul\":2056:2095   */\n  tag_15\n  jump\t// in\ntag_47:\n    /* \"#utility.yul\":2117:2208   */\n  tag_48\n    /* \"#utility.yul\":2166:2207   */\n  tag_49\n    /* \"#utility.yul\":2190:2206   */\n  dup3\n    /* \"#utility.yul\":2166:2207   */\n  tag_16\n  jump\t// in\ntag_49:\n    /* \"#utility.yul\":2158:2164   */\n  dup5\n    /* \"#utility.yul\":2151:2155   */\n  dup5\n    /* \"#utility.yul\":2145:2156   */\n  sload\n    /* \"#utility.yul\":2117:2208   */\n  tag_12\n  jump\t// in\ntag_48:\n    /* \"#utility.yul\":2111:2115   */\n  dup3\n    /* \"#utility.yul\":2104:2209   */\n  sstore\n    /* \"#utility.yul\":2022:2215   */\n  pop\n    /* \"#utility.yul\":1946:2215   */\n  pop\n  pop\n  pop\n  jump\t// out\n    /* \"#utility.yul\":2221:2294   */\ntag_18:\n    /* \"#utility.yul\":2266:2269   */\n  0x00\n    /* \"#utility.yul\":2221:2294   */\n  swap1\n  jump\t// out\n    /* \"#utility.yul\":2300:2489   */\ntag_19:\n    /* \"#utility.yul\":2377:2409   */\n  tag_52\n  tag_18\n  jump\t// in\ntag_52:\n    /* \"#utility.yul\":2418:2483   */\n  tag_53\n    /* \"#utility.yul\":2476:2482   */\n  dup2\n    /* \"#utility.yul\":2468:2474   */\n  dup5\n    /* \"#utility.yul\":2462:2466   */\n  dup5\n    /* \"#utility.yul\":2418:2483   */\n  tag_17\n  jump\t// in\ntag_53:\n    /* \"#utility.yul\":2353:2489   */\n  pop\n    /* \"#utility.yul\":2300:2489   */\n  pop\n  pop\n  jump\t// out\n    /* \"#utility.yul\":2495:2681   */\ntag_20:\n    /* \"#utility.yul\":2555:2675   */\ntag_55:\n    /* \"#utility.yul\":2572:2575   */\n  dup2\n    /* \"#utility.yul\":2565:2570   */\n  dup2\n    /* \"#utility.yul\":2562:2576   */\n  lt\n    /* \"#utility.yul\":2555:2675   */\n  iszero\n  tag_57\n  jumpi\n    /* \"#utility.yul\":2626:2665   */\n  tag_58\n    /* \"#utility.yul\":2663:2664   */\n  0x00\n    /* \"#utility.yul\":2656:2661   */\n  dup3\n    /* \"#utility.yul\":2626:2665   */\n  tag_19\n  jump\t// in\ntag_58:\n    /* \"#utility.yul\":2599:2600   */\n  0x01\n    /* \"#utility.yul\":2592:2597   */\n  dup2\n    /* \"#utility.yul\":2588:2601   */\n  add\n    /* \"#utility.yul\":2579:2601   */\n  swap1\n  pop\n    /* \"#utility.yul\":2555:2675   */\n  jump(tag_55)\ntag_57:\n    /* \"#utility.yul\":2495:2681   */\n  pop\n  pop\n  jump\t// out\n    /* \"#utility.yul\":2687:3230   */\ntag_21:\n    /* \"#utility.yul\":2788:2790   */\n  0x1f\n    /* \"#utility.yul\":2783:2786   */\n  dup3\n    /* \"#utility.yul\":2780:2791   */\n  gt\n    /* \"#utility.yul\":2777:3223   */\n  iszero\n  tag_60\n  jumpi\n    /* \"#utility.yul\":2822:2860   */\n  tag_61\n    /* \"#utility.yul\":2854:2859   */\n  dup2\n    /* \"#utility.yul\":2822:2860   */\n  tag_9\n  jump\t// in\ntag_61:\n    /* \"#utility.yul\":2906:2935   */\n  tag_62\n    /* \"#utility.yul\":2924:2934   */\n  dup5\n    /* \"#utility.yul\":2906:2935   */\n  tag_10\n  jump\t// in\ntag_62:\n    /* \"#utility.yul\":2896:2904   */\n  dup2\n    /* \"#utility.yul\":2892:2936   */\n  add\n    /* \"#utility.yul\":3089:3091   */\n  0x20\n    /* \"#utility.yul\":3077:3087   */\n  dup6\n    /* \"#utility.yul\":3074:3092   */\n  lt\n    /* \"#utility.yul\":3071:3120   */\n  iszero\n  tag_63\n  jumpi\n    /* \"#utility.yul\":3110:3118   */\n  dup2\n    /* \"#utility.yul\":3095:3118   */\n  swap1\n  pop\n    /* \"#utility.yul\":3071:3120   */\ntag_63:\n    /* \"#utility.yul\":3133:3213   */\n  tag_64\n    /* \"#utility.yul\":3189:3211   */\n  tag_65\n    /* \"#utility.yul\":3207:3210   */\n  dup6\n    /* \"#utility.yul\":3189:3211   */\n  tag_10\n  jump\t// in\ntag_65:\n    /* \"#utility.yul\":3179:3187   */\n  dup4\n    /* \"#utility.yul\":3175:3212   */\n  add\n    /* \"#utility.yul\":3162:3173   */\n  dup3\n    /* \"#utility.yul\":3133:3213   */\n  tag_20\n  jump\t// in\ntag_64:\n    /* \"#utility.yul\":2792:3223   */\n  pop\n  pop\n    /* \"#utility.yul\":2777:3223   */\ntag_60:\n    /* \"#utility.yul\":2687:3230   */\n  pop\n  pop\n  pop\n  jump\t// out\n    /* \"#utility.yul\":3236:3353   */\ntag_22:\n    /* \"#utility.yul\":3290:3298   */\n  0x00\n    /* \"#utility.yul\":3340:3345   */\n  dup3\n    /* \"#utility.yul\":3334:3338   */\n  dup3\n    /* \"#utility.yul\":3330:3346   */\n  shr\n    /* \"#utility.yul\":3309:3346   */\n  swap1\n  pop\n    /* \"#utility.yul\":3236:3353   */\n  swap3\n  swap2\n  pop\n  pop\n  jump\t// out\n    /* \"#utility.yul\":3359:3528   */\ntag_23:\n    /* \"#utility.yul\":3403:3409   */\n  0x00\n    /* \"#utility.yul\":3436:3487   */\n  tag_68\n    /* \"#utility.yul\":3484:3485   */\n  0x00\n    /* \"#utility.yul\":3480:3486   */\n  not\n    /* \"#utility.yul\":3472:3477   */\n  dup5\n    /* \"#utility.yul\":3469:3470   */\n  0x08\n    /* \"#utility.yul\":3465:3478   */\n  mul\n    /* \"#utility.yul\":3436:3487   */\n  tag_22\n  jump\t// in\ntag_68:\n    /* \"#utility.yul\":3432:3488   */\n  not\n    /* \"#utility.yul\":3517:3521   */\n  dup1\n    /* \"#utility.yul\":3511:3515   */\n  dup4\n    /* \"#utility.yul\":3507:3522   */\n  and\n    /* \"#utility.yul\":3497:3522   */\n  swap2\n  pop\n    /* \"#utility.yul\":3410:3528   */\n  pop\n    /* \"#utility.yul\":3359:3528   */\n  swap3\n  swap2\n  pop\n  pop\n  jump\t// out\n    /* \"#utility.yul\":3533:3828   */\ntag_24:\n    /* \"#utility.yul\":3609:3613   */\n  0x00\n    /* \"#utility.yul\":3755:3784   */\n  tag_70\n    /* \"#utility.yul\":3780:3783   */\n  dup4\n    /* \"#utility.yul\":3774:3778   */\n  dup4\n    /* \"#utility.yul\":3755:3784   */\n  tag_23\n  jump\t// in\ntag_70:\n    /* \"#utility.yul\":3747:3784   */\n  swap2\n  pop\n    /* \"#utility.yul\":3817:3820   */\n  dup3\n    /* \"#utility.yul\":3814:3815   */\n  0x02\n    /* \"#utility.yul\":3810:3821   */\n  mul\n    /* \"#utility.yul\":3804:3808   */\n  dup3\n    /* \"#utility.yul\":3801:3822   */\n  or\n    /* \"#utility.yul\":3793:3822   */\n  swap1\n  pop\n    /* \"#utility.yul\":3533:3828   */\n  swap3\n  swap2\n  pop\n  pop\n  jump\t// out\n    /* \"#utility.yul\":3833:5228   */\ntag_2:\n    /* \"#utility.yul\":3950:3987   */\n  tag_72\n    /* \"#utility.yul\":3983:3986   */\n  dup3\n    /* \"#utility.yul\":3950:3987   */\n  tag_5\n  jump\t// in\ntag_72:\n    /* \"#utility.yul\":4052:4070   */\n  0xffffffffffffffff\n    /* \"#utility.yul\":4044:4050   */\n  dup2\n    /* \"#utility.yul\":4041:4071   */\n  gt\n    /* \"#utility.yul\":4038:4094   */\n  iszero\n  tag_73\n  jumpi\n    /* \"#utility.yul\":4074:4092   */\n  tag_74\n  tag_6\n  jump\t// in\ntag_74:\n    /* \"#utility.yul\":4038:4094   */\ntag_73:\n    /* \"#utility.yul\":4118:4156   */\n  tag_75\n    /* \"#utility.yul\":4150:4154   */\n  dup3\n    /* \"#utility.yul\":4144:4155   */\n  sload\n    /* \"#utility.yul\":4118:4156   */\n  tag_8\n  jump\t// in\ntag_75:\n    /* \"#utility.yul\":4203:4270   */\n  tag_76\n    /* \"#utility.yul\":4263:4269   */\n  dup3\n    /* \"#utility.yul\":4255:4261   */\n  dup3\n    /* \"#utility.yul\":4249:4253   */\n  dup6\n    /* \"#utility.yul\":4203:4270   */\n  tag_21\n  jump\t// in\ntag_76:\n    /* \"#utility.yul\":4297:4298   */\n  0x00\n    /* \"#utility.yul\":4321:4325   */\n  0x20\n    /* \"#utility.yul\":4308:4325   */\n  swap1\n  pop\n    /* \"#utility.yul\":4353:4355   */\n  0x1f\n    /* \"#utility.yul\":4345:4351   */\n  dup4\n    /* \"#utility.yul\":4342:4356   */\n  gt\n    /* \"#utility.yul\":4370:4371   */\n  0x01\n    /* \"#utility.yul\":4365:4983   */\n  dup2\n  eq\n  tag_78\n  jumpi\n    /* \"#utility.yul\":5027:5028   */\n  0x00\n    /* \"#utility.yul\":5044:5050   */\n  dup5\n    /* \"#utility.yul\":5041:5118   */\n  iszero\n  tag_79\n  jumpi\n    /* \"#utility.yul\":5093:5102   */\n  dup3\n    /* \"#utility.yul\":5088:5091   */\n  dup8\n    /* \"#utility.yul\":5084:5103   */\n  add\n    /* \"#utility.yul\":5078:5104   */\n  mload\n    /* \"#utility.yul\":5069:5104   */\n  swap1\n  pop\n    /* \"#utility.yul\":5041:5118   */\ntag_79:\n    /* \"#utility.yul\":5144:5211   */\n  tag_80\n    /* \"#utility.yul\":5204:5210   */\n  dup6\n    /* \"#utility.yul\":5197:5202   */\n  dup3\n    /* \"#utility.yul\":5144:5211   */\n  tag_24\n  jump\t// in\ntag_80:\n    /* \"#utility.yul\":5138:5142   */\n  dup7\n    /* \"#utility.yul\":5131:5212   */\n  sstore\n    /* \"#utility.yul\":5000:5222   */\n  pop\n    /* \"#utility.yul\":4335:5222   */\n  jump(tag_77)\n    /* \"#utility.yul\":4365:4983   */\ntag_78:\n    /* \"#utility.yul\":4417:4421   */\n  0x1f\n    /* \"#utility.yul\":4413:4422   */\n  not\n    /* \"#utility.yul\":4405:4411   */\n  dup5\n    /* \"#utility.yul\":4401:4423   */\n  and\n    /* \"#utility.yul\":4451:4488   */\n  tag_81\n    /* \"#utility.yul\":4483:4487   */\n  dup7\n    /* \"#utility.yul\":4451:4488   */\n  tag_9\n  jump\t// in\ntag_81:\n    /* \"#utility.yul\":4510:4511   */\n  0x00\n    /* \"#utility.yul\":4524:4732   */\ntag_82:\n    /* \"#utility.yul\":4538:4545   */\n  dup3\n    /* \"#utility.yul\":4535:4536   */\n  dup2\n    /* \"#utility.yul\":4532:4546   */\n  lt\n    /* \"#utility.yul\":4524:4732   */\n  iszero\n  tag_84\n  jumpi\n    /* \"#utility.yul\":4617:4626   */\n  dup5\n    /* \"#utility.yul\":4612:4615   */\n  dup10\n    /* \"#utility.yul\":4608:4627   */\n  add\n    /* \"#utility.yul\":4602:4628   */\n  mload\n    /* \"#utility.yul\":4594:4600   */\n  dup3\n    /* \"#utility.yul\":4587:4629   */\n  sstore\n    /* \"#utility.yul\":4668:4669   */\n  0x01\n    /* \"#utility.yul\":4660:4666   */\n  dup3\n    /* \"#utility.yul\":4656:4670   */\n  add\n    /* \"#utility.yul\":4646:4670   */\n  swap2\n  pop\n    /* \"#utility.yul\":4715:4717   */\n  0x20\n    /* \"#utility.yul\":4704:4713   */\n  dup6\n    /* \"#utility.yul\":4700:4718   */\n  add\n    /* \"#utility.yul\":4687:4718   */\n  swap5\n  pop\n    /* \"#utility.yul\":4561:4565   */\n  0x20\n    /* \"#utility.yul\":4558:4559   */\n  dup2\n    /* \"#utility.yul\":4554:4566   */\n  add\n    /* \"#utility.yul\":4549:4566   */\n  swap1\n  pop\n    /* \"#utility.yul\":4524:4732   */\n  jump(tag_82)\ntag_84:\n    /* \"#utility.yul\":4760:4766   */\n  dup7\n    /* \"#utility.yul\":4751:4758   */\n  dup4\n    /* \"#utility.yul\":4748:4767   */\n  lt\n    /* \"#utility.yul\":4745:4924   */\n  iszero\n  tag_85\n  jumpi\n    /* \"#utility.yul\":4818:4827   */\n  dup5\n    /* \"#utility.yul\":4813:4816   */\n  dup10\n    /* \"#utility.yul\":4809:4828   */\n  add\n    /* \"#utility.yul\":4803:4829   */\n  mload\n    /* \"#utility.yul\":4861:4909   */\n  tag_86\n    /* \"#utility.yul\":4903:4907   */\n  0x1f\n    /* \"#utility.yul\":4895:4901   */\n  dup10\n    /* \"#utility.yul\":4891:4908   */\n  and\n    /* \"#utility.yul\":4880:4889   */\n  dup3\n    /* \"#utility.yul\":4861:4909   */\n  tag_23\n  jump\t// in\ntag_86:\n    /* \"#utility.yul\":4853:4859   */\n  dup4\n    /* \"#utility.yul\":4846:4910   */\n  sstore\n    /* \"#utility.yul\":4768:4924   */\n  pop\n    /* \"#utility.yul\":4745:4924   */\ntag_85:\n    /* \"#utility.yul\":4970:4971   */\n  0x01\n    /* \"#utility.yul\":4966:4967   */\n  0x02\n    /* \"#utility.yul\":4958:4964   */\n  dup9\n    /* \"#utility.yul\":4954:4968   */\n  mul\n    /* \"#utility.yul\":4950:4972   */\n  add\n    /* \"#utility.yul\":4944:4948   */\n  dup9\n    /* \"#utility.yul\":4937:4973   */\n  sstore\n    /* \"#utility.yul\":4372:4983   */\n  pop\n  pop\n  pop\n    /* \"#utility.yul\":4335:5222   */\ntag_77:\n  pop\n    /* \"#utility.yul\":3925:5228   */\n  pop\n  pop\n  pop\n    /* \"#utility.yul\":3833:5228   */\n  pop\n  pop\n  jump\t// out\n    /* \"demo1/helloworld.sol\":109:2200  contract Helloworld {... */\ntag_4:\n  dataSize(sub_0)\n  dup1\n  dataOffset(sub_0)\n  0x00\n  codecopy\n  0x00\n  return\nstop\n\nsub_0: assembly {\n        /* \"demo1/helloworld.sol\":109:2200  contract Helloworld {... */\n      mstore(0x40, 0x80)\n      callvalue\n      dup1\n      iszero\n      tag_1\n      jumpi\n      0x00\n      dup1\n      revert\n    tag_1:\n      pop\n      jumpi(tag_2, lt(calldatasize, 0x04))\n      shr(0xe0, calldataload(0x00))\n      dup1\n      0x1a3cd59a\n      eq\n      tag_3\n      jumpi\n      dup1\n      0x8262963b\n      eq\n      tag_4\n      jumpi\n      dup1\n      0x90ffded8\n      eq\n      tag_5\n      jumpi\n      dup1\n      0xa7ef4329\n      eq\n      tag_6\n      jumpi\n    tag_2:\n      0x00\n      dup1\n      revert\n        /* \"demo1/helloworld.sol\":1959:2198  function getInfo(uint256 id) public view returns (string memory) {... */\n    tag_3:\n      tag_7\n      0x04\n      dup1\n      calldatasize\n      sub\n      dup2\n      add\n      swap1\n      tag_8\n      swap2\n      swap1\n      tag_9\n      jump\t// in\n    tag_8:\n      tag_10\n      jump\t// in\n    tag_7:\n      mload(0x40)\n      tag_11\n      swap2\n      swap1\n      tag_12\n      jump\t// in\n    tag_11:\n      mload(0x40)\n      dup1\n      swap2\n      sub\n      swap1\n      return\n        /* \"demo1/helloworld.sol\":1762:1953  function setInfo(string memory newInfo, uint256 newId) public {... */\n    tag_4:\n      tag_13\n      0x04\n      dup1\n      calldatasize\n      sub\n      dup2\n      add\n      swap1\n      tag_14\n      swap2\n      swap1\n      tag_15\n      jump\t// in\n    tag_14:\n      tag_16\n      jump\t// in\n    tag_13:\n      stop\n        /* \"demo1/helloworld.sol\":978:1062  function setHelloWorld(string memory newStr) public {... */\n    tag_5:\n      tag_17\n      0x04\n      dup1\n      calldatasize\n      sub\n      dup2\n      add\n      swap1\n      tag_18\n      swap2\n      swap1\n      tag_19\n      jump\t// in\n    tag_18:\n      tag_20\n      jump\t// in\n    tag_17:\n      stop\n        /* \"demo1/helloworld.sol\":872:972  function getHelloWorld() public view returns (string memory) {... */\n    tag_6:\n      tag_21\n      tag_22\n      jump\t// in\n    tag_21:\n      mload(0x40)\n      tag_23\n      swap2\n      swap1\n      tag_12\n      jump\t// in\n    tag_23:\n      mload(0x40)\n      dup1\n      swap2\n      sub\n      swap1\n      return\n        /* \"demo1/helloworld.sol\":1959:2198  function getInfo(uint256 id) public view returns (string memory) {... */\n    tag_10:\n        /* \"demo1/helloworld.sol\":2009:2022  string memory */\n      0x60\n        /* \"demo1/helloworld.sol\":2070:2073  0x0 */\n      0x00\n        /* \"demo1/helloworld.sol\":2038:2074  infoMapping[id].addr == address(0x0) */\n      0xffffffffffffffffffffffffffffffffffffffff\n      and\n        /* \"demo1/helloworld.sol\":2038:2049  infoMapping */\n      0x07\n        /* \"demo1/helloworld.sol\":2038:2053  infoMapping[id] */\n      0x00\n        /* \"demo1/helloworld.sol\":2050:2052  id */\n      dup5\n        /* \"demo1/helloworld.sol\":2038:2053  infoMapping[id] */\n      dup2\n      mstore\n      0x20\n      add\n      swap1\n      dup2\n      mstore\n      0x20\n      add\n      0x00\n      keccak256\n        /* \"demo1/helloworld.sol\":2038:2058  infoMapping[id].addr */\n      0x02\n      add\n      0x00\n      swap1\n      sload\n      swap1\n      0x0100\n      exp\n      swap1\n      div\n      0xffffffffffffffffffffffffffffffffffffffff\n      and\n        /* \"demo1/helloworld.sol\":2038:2074  infoMapping[id].addr == address(0x0) */\n      0xffffffffffffffffffffffffffffffffffffffff\n      and\n      sub\n        /* \"demo1/helloworld.sol\":2034:2192  if (infoMapping[id].addr == address(0x0)) {... */\n      tag_25\n      jumpi\n        /* \"demo1/helloworld.sol\":2097:2112  addInfo(strStr) */\n      tag_26\n        /* \"demo1/helloworld.sol\":2105:2111  strStr */\n      0x04\n        /* \"demo1/helloworld.sol\":2097:2112  addInfo(strStr) */\n      dup1\n      sload\n      tag_27\n      swap1\n      tag_28\n      jump\t// in\n    tag_27:\n      dup1\n      0x1f\n      add\n      0x20\n      dup1\n      swap2\n      div\n      mul\n      0x20\n      add\n      mload(0x40)\n      swap1\n      dup2\n      add\n      0x40\n      mstore\n      dup1\n      swap3\n      swap2\n      swap1\n      dup2\n      dup2\n      mstore\n      0x20\n      add\n      dup3\n      dup1\n      sload\n      tag_29\n      swap1\n      tag_28\n      jump\t// in\n    tag_29:\n      dup1\n      iszero\n      tag_30\n      jumpi\n      dup1\n      0x1f\n      lt\n      tag_31\n      jumpi\n      0x0100\n      dup1\n      dup4\n      sload\n      div\n      mul\n      dup4\n      mstore\n      swap2\n      0x20\n      add\n      swap2\n      jump(tag_30)\n    tag_31:\n      dup3\n      add\n      swap2\n      swap1\n      0x00\n      mstore\n      keccak256(0x00, 0x20)\n      swap1\n    tag_32:\n      dup2\n      sload\n      dup2\n      mstore\n      swap1\n      0x01\n      add\n      swap1\n      0x20\n      add\n      dup1\n      dup4\n      gt\n      tag_32\n      jumpi\n      dup3\n      swap1\n      sub\n      0x1f\n      and\n      dup3\n      add\n      swap2\n    tag_30:\n      pop\n      pop\n      pop\n      pop\n      pop\n        /* \"demo1/helloworld.sol\":2097:2104  addInfo */\n      tag_33\n        /* \"demo1/helloworld.sol\":2097:2112  addInfo(strStr) */\n      jump\t// in\n    tag_26:\n        /* \"demo1/helloworld.sol\":2090:2112  return addInfo(strStr) */\n      swap1\n      pop\n      jump(tag_24)\n        /* \"demo1/helloworld.sol\":2034:2192  if (infoMapping[id].addr == address(0x0)) {... */\n    tag_25:\n        /* \"demo1/helloworld.sol\":2150:2181  addInfo(infoMapping[id].phrase) */\n      tag_35\n        /* \"demo1/helloworld.sol\":2158:2169  infoMapping */\n      0x07\n        /* \"demo1/helloworld.sol\":2158:2173  infoMapping[id] */\n      0x00\n        /* \"demo1/helloworld.sol\":2170:2172  id */\n      dup5\n        /* \"demo1/helloworld.sol\":2158:2173  infoMapping[id] */\n      dup2\n      mstore\n      0x20\n      add\n      swap1\n      dup2\n      mstore\n      0x20\n      add\n      0x00\n      keccak256\n        /* \"demo1/helloworld.sol\":2158:2180  infoMapping[id].phrase */\n      0x01\n      add\n        /* \"demo1/helloworld.sol\":2150:2181  addInfo(infoMapping[id].phrase) */\n      dup1\n      sload\n      tag_36\n      swap1\n      tag_28\n      jump\t// in\n    tag_36:\n      dup1\n      0x1f\n      add\n      0x20\n      dup1\n      swap2\n      div\n      mul\n      0x20\n      add\n      mload(0x40)\n      swap1\n      dup2\n      add\n      0x40\n      mstore\n      dup1\n      swap3\n      swap2\n      swap1\n      dup2\n      dup2\n      mstore\n      0x20\n      add\n      dup3\n      dup1\n      sload\n      tag_37\n      swap1\n      tag_28\n      jump\t// in\n    tag_37:\n      dup1\n      iszero\n      tag_38\n      jumpi\n      dup1\n      0x1f\n      lt\n      tag_39\n      jumpi\n      0x0100\n      dup1\n      dup4\n      sload\n      div\n      mul\n      dup4\n      mstore\n      swap2\n      0x20\n      add\n      swap2\n      jump(tag_38)\n    tag_39:\n      dup3\n      add\n      swap2\n      swap1\n      0x00\n      mstore\n      keccak256(0x00, 0x20)\n      swap1\n    tag_40:\n      dup2\n      sload\n      dup2\n      mstore\n      swap1\n      0x01\n      add\n      swap1\n      0x20\n      add\n      dup1\n      dup4\n      gt\n      tag_40\n      jumpi\n      dup3\n      swap1\n      sub\n      0x1f\n      and\n      dup3\n      add\n      swap2\n    tag_38:\n      pop\n      pop\n      pop\n      pop\n      pop\n        /* \"demo1/helloworld.sol\":2150:2157  addInfo */\n      tag_33\n        /* \"demo1/helloworld.sol\":2150:2181  addInfo(infoMapping[id].phrase) */\n      jump\t// in\n    tag_35:\n        /* \"demo1/helloworld.sol\":2143:2181  return addInfo(infoMapping[id].phrase) */\n      swap1\n      pop\n        /* \"demo1/helloworld.sol\":1959:2198  function getInfo(uint256 id) public view returns (string memory) {... */\n    tag_24:\n      swap2\n      swap1\n      pop\n      jump\t// out\n        /* \"demo1/helloworld.sol\":1762:1953  function setInfo(string memory newInfo, uint256 newId) public {... */\n    tag_16:\n        /* \"demo1/helloworld.sol\":1834:1850  Info memory info */\n      0x00\n        /* \"demo1/helloworld.sol\":1853:1885  Info(newId, newInfo, msg.sender) */\n      mload(0x40)\n      dup1\n      0x60\n      add\n      0x40\n      mstore\n      dup1\n        /* \"demo1/helloworld.sol\":1858:1863  newId */\n      dup4\n        /* \"demo1/helloworld.sol\":1853:1885  Info(newId, newInfo, msg.sender) */\n      dup2\n      mstore\n      0x20\n      add\n        /* \"demo1/helloworld.sol\":1865:1872  newInfo */\n      dup5\n        /* \"demo1/helloworld.sol\":1853:1885  Info(newId, newInfo, msg.sender) */\n      dup2\n      mstore\n      0x20\n      add\n        /* \"demo1/helloworld.sol\":1874:1884  msg.sender */\n      caller\n        /* \"demo1/helloworld.sol\":1853:1885  Info(newId, newInfo, msg.sender) */\n      0xffffffffffffffffffffffffffffffffffffffff\n      and\n      dup2\n      mstore\n      pop\n        /* \"demo1/helloworld.sol\":1834:1885  Info memory info = Info(newId, newInfo, msg.sender) */\n      swap1\n      pop\n        /* \"demo1/helloworld.sol\":1895:1900  infos */\n      0x06\n        /* \"demo1/helloworld.sol\":1906:1910  info */\n      dup2\n        /* \"demo1/helloworld.sol\":1895:1911  infos.push(info) */\n      swap1\n      dup1\n      0x01\n      dup2\n      sload\n      add\n      dup1\n      dup3\n      sstore\n      dup1\n      swap2\n      pop\n      pop\n      0x01\n      swap1\n      sub\n      swap1\n      0x00\n      mstore\n      keccak256(0x00, 0x20)\n      swap1\n      0x03\n      mul\n      add\n      0x00\n      swap1\n      swap2\n      swap1\n      swap2\n      swap1\n      swap2\n      pop\n      0x00\n      dup3\n      add\n      mload\n      dup2\n      0x00\n      add\n      sstore\n      0x20\n      dup3\n      add\n      mload\n      dup2\n      0x01\n      add\n      swap1\n      dup2\n      tag_43\n      swap2\n      swap1\n      tag_44\n      jump\t// in\n    tag_43:\n      pop\n      0x40\n      dup3\n      add\n      mload\n      dup2\n      0x02\n      add\n      exp(0x0100, 0x00)\n      dup2\n      sload\n      dup2\n      0xffffffffffffffffffffffffffffffffffffffff\n      mul\n      not\n      and\n      swap1\n      dup4\n      0xffffffffffffffffffffffffffffffffffffffff\n      and\n      mul\n      or\n      swap1\n      sstore\n      pop\n      pop\n      pop\n        /* \"demo1/helloworld.sol\":1942:1946  info */\n      dup1\n        /* \"demo1/helloworld.sol\":1921:1932  infoMapping */\n      0x07\n        /* \"demo1/helloworld.sol\":1921:1939  infoMapping[newId] */\n      0x00\n        /* \"demo1/helloworld.sol\":1933:1938  newId */\n      dup5\n        /* \"demo1/helloworld.sol\":1921:1939  infoMapping[newId] */\n      dup2\n      mstore\n      0x20\n      add\n      swap1\n      dup2\n      mstore\n      0x20\n      add\n      0x00\n      keccak256\n        /* \"demo1/helloworld.sol\":1921:1946  infoMapping[newId] = info */\n      0x00\n      dup3\n      add\n      mload\n      dup2\n      0x00\n      add\n      sstore\n      0x20\n      dup3\n      add\n      mload\n      dup2\n      0x01\n      add\n      swap1\n      dup2\n      tag_45\n      swap2\n      swap1\n      tag_44\n      jump\t// in\n    tag_45:\n      pop\n      0x40\n      dup3\n      add\n      mload\n      dup2\n      0x02\n      add\n      exp(0x0100, 0x00)\n      dup2\n      sload\n      dup2\n      0xffffffffffffffffffffffffffffffffffffffff\n      mul\n      not\n      and\n      swap1\n      dup4\n      0xffffffffffffffffffffffffffffffffffffffff\n      and\n      mul\n      or\n      swap1\n      sstore\n      pop\n      swap1\n      pop\n      pop\n        /* \"demo1/helloworld.sol\":1824:1953  {... */\n      pop\n        /* \"demo1/helloworld.sol\":1762:1953  function setInfo(string memory newInfo, uint256 newId) public {... */\n      pop\n      pop\n      jump\t// out\n        /* \"demo1/helloworld.sol\":978:1062  function setHelloWorld(string memory newStr) public {... */\n    tag_20:\n        /* \"demo1/helloworld.sol\":1049:1055  newStr */\n      dup1\n        /* \"demo1/helloworld.sol\":1040:1046  strStr */\n      0x04\n        /* \"demo1/helloworld.sol\":1040:1055  strStr = newStr */\n      swap1\n      dup2\n      tag_47\n      swap2\n      swap1\n      tag_44\n      jump\t// in\n    tag_47:\n      pop\n        /* \"demo1/helloworld.sol\":978:1062  function setHelloWorld(string memory newStr) public {... */\n      pop\n      jump\t// out\n        /* \"demo1/helloworld.sol\":872:972  function getHelloWorld() public view returns (string memory) {... */\n    tag_22:\n        /* \"demo1/helloworld.sol\":918:931  string memory */\n      0x60\n        /* \"demo1/helloworld.sol\":950:965  addInfo(strStr) */\n      tag_49\n        /* \"demo1/helloworld.sol\":958:964  strStr */\n      0x04\n        /* \"demo1/helloworld.sol\":950:965  addInfo(strStr) */\n      dup1\n      sload\n      tag_50\n      swap1\n      tag_28\n      jump\t// in\n    tag_50:\n      dup1\n      0x1f\n      add\n      0x20\n      dup1\n      swap2\n      div\n      mul\n      0x20\n      add\n      mload(0x40)\n      swap1\n      dup2\n      add\n      0x40\n      mstore\n      dup1\n      swap3\n      swap2\n      swap1\n      dup2\n      dup2\n      mstore\n      0x20\n      add\n      dup3\n      dup1\n      sload\n      tag_51\n      swap1\n      tag_28\n      jump\t// in\n    tag_51:\n      dup1\n      iszero\n      tag_52\n      jumpi\n      dup1\n      0x1f\n      lt\n      tag_53\n      jumpi\n      0x0100\n      dup1\n      dup4\n      sload\n      div\n      mul\n      dup4\n      mstore\n      swap2\n      0x20\n      add\n      swap2\n      jump(tag_52)\n    tag_53:\n      dup3\n      add\n      swap2\n      swap1\n      0x00\n      mstore\n      keccak256(0x00, 0x20)\n      swap1\n    tag_54:\n      dup2\n      sload\n      dup2\n      mstore\n      swap1\n      0x01\n      add\n      swap1\n      0x20\n      add\n      dup1\n      dup4\n      gt\n      tag_54\n      jumpi\n      dup3\n      swap1\n      sub\n      0x1f\n      and\n      dup3\n      add\n      swap2\n    tag_52:\n      pop\n      pop\n      pop\n      pop\n      pop\n        /* \"demo1/helloworld.sol\":950:957  addInfo */\n      tag_33\n        /* \"demo1/helloworld.sol\":950:965  addInfo(strStr) */\n      jump\t// in\n    tag_49:\n        /* \"demo1/helloworld.sol\":943:965  return addInfo(strStr) */\n      swap1\n      pop\n        /* \"demo1/helloworld.sol\":872:972  function getHelloWorld() public view returns (string memory) {... */\n      swap1\n      jump\t// out\n        /* \"demo1/helloworld.sol\":1117:1293  function addInfo(string memory infoStr)... */\n    tag_33:\n        /* \"demo1/helloworld.sol\":1204:1217  string memory */\n      0x60\n        /* \"demo1/helloworld.sol\":1254:1261  infoStr */\n      dup2\n        /* \"demo1/helloworld.sol\":1240:1286  string.concat(infoStr, \"from New's contract.\") */\n      add(0x20, mload(0x40))\n      tag_56\n      swap2\n      swap1\n      tag_57\n      jump\t// in\n    tag_56:\n      mload(0x40)\n      0x20\n      dup2\n      dup4\n      sub\n      sub\n      dup2\n      mstore\n      swap1\n      0x40\n      mstore\n        /* \"demo1/helloworld.sol\":1233:1286  return string.concat(infoStr, \"from New's contract.\") */\n      swap1\n      pop\n        /* \"demo1/helloworld.sol\":1117:1293  function addInfo(string memory infoStr)... */\n      swap2\n      swap1\n      pop\n      jump\t// out\n        /* \"#utility.yul\":7:82   */\n    tag_58:\n        /* \"#utility.yul\":40:46   */\n      0x00\n        /* \"#utility.yul\":73:75   */\n      0x40\n        /* \"#utility.yul\":67:76   */\n      mload\n        /* \"#utility.yul\":57:76   */\n      swap1\n      pop\n        /* \"#utility.yul\":7:82   */\n      swap1\n      jump\t// out\n        /* \"#utility.yul\":88:205   */\n    tag_59:\n        /* \"#utility.yul\":197:198   */\n      0x00\n        /* \"#utility.yul\":194:195   */\n      dup1\n        /* \"#utility.yul\":187:199   */\n      revert\n        /* \"#utility.yul\":211:328   */\n    tag_60:\n        /* \"#utility.yul\":320:321   */\n      0x00\n        /* \"#utility.yul\":317:318   */\n      dup1\n        /* \"#utility.yul\":310:322   */\n      revert\n        /* \"#utility.yul\":334:411   */\n    tag_61:\n        /* \"#utility.yul\":371:378   */\n      0x00\n        /* \"#utility.yul\":400:405   */\n      dup2\n        /* \"#utility.yul\":389:405   */\n      swap1\n      pop\n        /* \"#utility.yul\":334:411   */\n      swap2\n      swap1\n      pop\n      jump\t// out\n        /* \"#utility.yul\":417:539   */\n    tag_62:\n        /* \"#utility.yul\":490:514   */\n      tag_103\n        /* \"#utility.yul\":508:513   */\n      dup2\n        /* \"#utility.yul\":490:514   */\n      tag_61\n      jump\t// in\n    tag_103:\n        /* \"#utility.yul\":483:488   */\n      dup2\n        /* \"#utility.yul\":480:515   */\n      eq\n        /* \"#utility.yul\":470:533   */\n      tag_104\n      jumpi\n        /* \"#utility.yul\":529:530   */\n      0x00\n        /* \"#utility.yul\":526:527   */\n      dup1\n        /* \"#utility.yul\":519:531   */\n      revert\n        /* \"#utility.yul\":470:533   */\n    tag_104:\n        /* \"#utility.yul\":417:539   */\n      pop\n      jump\t// out\n        /* \"#utility.yul\":545:684   */\n    tag_63:\n        /* \"#utility.yul\":591:596   */\n      0x00\n        /* \"#utility.yul\":629:635   */\n      dup2\n        /* \"#utility.yul\":616:636   */\n      calldataload\n        /* \"#utility.yul\":607:636   */\n      swap1\n      pop\n        /* \"#utility.yul\":645:678   */\n      tag_106\n        /* \"#utility.yul\":672:677   */\n      dup2\n        /* \"#utility.yul\":645:678   */\n      tag_62\n      jump\t// in\n    tag_106:\n        /* \"#utility.yul\":545:684   */\n      swap3\n      swap2\n      pop\n      pop\n      jump\t// out\n        /* \"#utility.yul\":690:1019   */\n    tag_9:\n        /* \"#utility.yul\":749:755   */\n      0x00\n        /* \"#utility.yul\":798:800   */\n      0x20\n        /* \"#utility.yul\":786:795   */\n      dup3\n        /* \"#utility.yul\":777:784   */\n      dup5\n        /* \"#utility.yul\":773:796   */\n      sub\n        /* \"#utility.yul\":769:801   */\n      slt\n        /* \"#utility.yul\":766:885   */\n      iszero\n      tag_108\n      jumpi\n        /* \"#utility.yul\":804:883   */\n      tag_109\n      tag_59\n      jump\t// in\n    tag_109:\n        /* \"#utility.yul\":766:885   */\n    tag_108:\n        /* \"#utility.yul\":924:925   */\n      0x00\n        /* \"#utility.yul\":949:1002   */\n      tag_110\n        /* \"#utility.yul\":994:1001   */\n      dup5\n        /* \"#utility.yul\":985:991   */\n      dup3\n        /* \"#utility.yul\":974:983   */\n      dup6\n        /* \"#utility.yul\":970:992   */\n      add\n        /* \"#utility.yul\":949:1002   */\n      tag_63\n      jump\t// in\n    tag_110:\n        /* \"#utility.yul\":939:1002   */\n      swap2\n      pop\n        /* \"#utility.yul\":895:1012   */\n      pop\n        /* \"#utility.yul\":690:1019   */\n      swap3\n      swap2\n      pop\n      pop\n      jump\t// out\n        /* \"#utility.yul\":1025:1124   */\n    tag_64:\n        /* \"#utility.yul\":1077:1083   */\n      0x00\n        /* \"#utility.yul\":1111:1116   */\n      dup2\n        /* \"#utility.yul\":1105:1117   */\n      mload\n        /* \"#utility.yul\":1095:1117   */\n      swap1\n      pop\n        /* \"#utility.yul\":1025:1124   */\n      swap2\n      swap1\n      pop\n      jump\t// out\n        /* \"#utility.yul\":1130:1299   */\n    tag_65:\n        /* \"#utility.yul\":1214:1225   */\n      0x00\n        /* \"#utility.yul\":1248:1254   */\n      dup3\n        /* \"#utility.yul\":1243:1246   */\n      dup3\n        /* \"#utility.yul\":1236:1255   */\n      mstore\n        /* \"#utility.yul\":1288:1292   */\n      0x20\n        /* \"#utility.yul\":1283:1286   */\n      dup3\n        /* \"#utility.yul\":1279:1293   */\n      add\n        /* \"#utility.yul\":1264:1293   */\n      swap1\n      pop\n        /* \"#utility.yul\":1130:1299   */\n      swap3\n      swap2\n      pop\n      pop\n      jump\t// out\n        /* \"#utility.yul\":1305:1444   */\n    tag_66:\n        /* \"#utility.yul\":1394:1400   */\n      dup3\n        /* \"#utility.yul\":1389:1392   */\n      dup2\n        /* \"#utility.yul\":1384:1387   */\n      dup4\n        /* \"#utility.yul\":1378:1401   */\n      mcopy\n        /* \"#utility.yul\":1435:1436   */\n      0x00\n        /* \"#utility.yul\":1426:1432   */\n      dup4\n        /* \"#utility.yul\":1421:1424   */\n      dup4\n        /* \"#utility.yul\":1417:1433   */\n      add\n        /* \"#utility.yul\":1410:1437   */\n      mstore\n        /* \"#utility.yul\":1305:1444   */\n      pop\n      pop\n      pop\n      jump\t// out\n        /* \"#utility.yul\":1450:1552   */\n    tag_67:\n        /* \"#utility.yul\":1491:1497   */\n      0x00\n        /* \"#utility.yul\":1542:1544   */\n      0x1f\n        /* \"#utility.yul\":1538:1545   */\n      not\n        /* \"#utility.yul\":1533:1535   */\n      0x1f\n        /* \"#utility.yul\":1526:1531   */\n      dup4\n        /* \"#utility.yul\":1522:1536   */\n      add\n        /* \"#utility.yul\":1518:1546   */\n      and\n        /* \"#utility.yul\":1508:1546   */\n      swap1\n      pop\n        /* \"#utility.yul\":1450:1552   */\n      swap2\n      swap1\n      pop\n      jump\t// out\n        /* \"#utility.yul\":1558:1935   */\n    tag_68:\n        /* \"#utility.yul\":1646:1649   */\n      0x00\n        /* \"#utility.yul\":1674:1713   */\n      tag_116\n        /* \"#utility.yul\":1707:1712   */\n      dup3\n        /* \"#utility.yul\":1674:1713   */\n      tag_64\n      jump\t// in\n    tag_116:\n        /* \"#utility.yul\":1729:1800   */\n      tag_117\n        /* \"#utility.yul\":1793:1799   */\n      dup2\n        /* \"#utility.yul\":1788:1791   */\n      dup6\n        /* \"#utility.yul\":1729:1800   */\n      tag_65\n      jump\t// in\n    tag_117:\n        /* \"#utility.yul\":1722:1800   */\n      swap4\n      pop\n        /* \"#utility.yul\":1809:1874   */\n      tag_118\n        /* \"#utility.yul\":1867:1873   */\n      dup2\n        /* \"#utility.yul\":1862:1865   */\n      dup6\n        /* \"#utility.yul\":1855:1859   */\n      0x20\n        /* \"#utility.yul\":1848:1853   */\n      dup7\n        /* \"#utility.yul\":1844:1860   */\n      add\n        /* \"#utility.yul\":1809:1874   */\n      tag_66\n      jump\t// in\n    tag_118:\n        /* \"#utility.yul\":1899:1928   */\n      tag_119\n        /* \"#utility.yul\":1921:1927   */\n      dup2\n        /* \"#utility.yul\":1899:1928   */\n      tag_67\n      jump\t// in\n    tag_119:\n        /* \"#utility.yul\":1894:1897   */\n      dup5\n        /* \"#utility.yul\":1890:1929   */\n      add\n        /* \"#utility.yul\":1883:1929   */\n      swap2\n      pop\n        /* \"#utility.yul\":1650:1935   */\n      pop\n        /* \"#utility.yul\":1558:1935   */\n      swap3\n      swap2\n      pop\n      pop\n      jump\t// out\n        /* \"#utility.yul\":1941:2254   */\n    tag_12:\n        /* \"#utility.yul\":2054:2058   */\n      0x00\n        /* \"#utility.yul\":2092:2094   */\n      0x20\n        /* \"#utility.yul\":2081:2090   */\n      dup3\n        /* \"#utility.yul\":2077:2095   */\n      add\n        /* \"#utility.yul\":2069:2095   */\n      swap1\n      pop\n        /* \"#utility.yul\":2141:2150   */\n      dup2\n        /* \"#utility.yul\":2135:2139   */\n      dup2\n        /* \"#utility.yul\":2131:2151   */\n      sub\n        /* \"#utility.yul\":2127:2128   */\n      0x00\n        /* \"#utility.yul\":2116:2125   */\n      dup4\n        /* \"#utility.yul\":2112:2129   */\n      add\n        /* \"#utility.yul\":2105:2152   */\n      mstore\n        /* \"#utility.yul\":2169:2247   */\n      tag_121\n        /* \"#utility.yul\":2242:2246   */\n      dup2\n        /* \"#utility.yul\":2233:2239   */\n      dup5\n        /* \"#utility.yul\":2169:2247   */\n      tag_68\n      jump\t// in\n    tag_121:\n        /* \"#utility.yul\":2161:2247   */\n      swap1\n      pop\n        /* \"#utility.yul\":1941:2254   */\n      swap3\n      swap2\n      pop\n      pop\n      jump\t// out\n        /* \"#utility.yul\":2260:2377   */\n    tag_69:\n        /* \"#utility.yul\":2369:2370   */\n      0x00\n        /* \"#utility.yul\":2366:2367   */\n      dup1\n        /* \"#utility.yul\":2359:2371   */\n      revert\n        /* \"#utility.yul\":2383:2500   */\n    tag_70:\n        /* \"#utility.yul\":2492:2493   */\n      0x00\n        /* \"#utility.yul\":2489:2490   */\n      dup1\n        /* \"#utility.yul\":2482:2494   */\n      revert\n        /* \"#utility.yul\":2506:2686   */\n    tag_71:\n        /* \"#utility.yul\":2554:2631   */\n      0x4e487b7100000000000000000000000000000000000000000000000000000000\n        /* \"#utility.yul\":2551:2552   */\n      0x00\n        /* \"#utility.yul\":2544:2632   */\n      mstore\n        /* \"#utility.yul\":2651:2655   */\n      0x41\n        /* \"#utility.yul\":2648:2649   */\n      0x04\n        /* \"#utility.yul\":2641:2656   */\n      mstore\n        /* \"#utility.yul\":2675:2679   */\n      0x24\n        /* \"#utility.yul\":2672:2673   */\n      0x00\n        /* \"#utility.yul\":2665:2680   */\n      revert\n        /* \"#utility.yul\":2692:2973   */\n    tag_72:\n        /* \"#utility.yul\":2775:2802   */\n      tag_126\n        /* \"#utility.yul\":2797:2801   */\n      dup3\n        /* \"#utility.yul\":2775:2802   */\n      tag_67\n      jump\t// in\n    tag_126:\n        /* \"#utility.yul\":2767:2773   */\n      dup2\n        /* \"#utility.yul\":2763:2803   */\n      add\n        /* \"#utility.yul\":2905:2911   */\n      dup2\n        /* \"#utility.yul\":2893:2903   */\n      dup2\n        /* \"#utility.yul\":2890:2912   */\n      lt\n        /* \"#utility.yul\":2869:2887   */\n      0xffffffffffffffff\n        /* \"#utility.yul\":2857:2867   */\n      dup3\n        /* \"#utility.yul\":2854:2888   */\n      gt\n        /* \"#utility.yul\":2851:2913   */\n      or\n        /* \"#utility.yul\":2848:2936   */\n      iszero\n      tag_127\n      jumpi\n        /* \"#utility.yul\":2916:2934   */\n      tag_128\n      tag_71\n      jump\t// in\n    tag_128:\n        /* \"#utility.yul\":2848:2936   */\n    tag_127:\n        /* \"#utility.yul\":2956:2966   */\n      dup1\n        /* \"#utility.yul\":2952:2954   */\n      0x40\n        /* \"#utility.yul\":2945:2967   */\n      mstore\n        /* \"#utility.yul\":2735:2973   */\n      pop\n        /* \"#utility.yul\":2692:2973   */\n      pop\n      pop\n      jump\t// out\n        /* \"#utility.yul\":2979:3108   */\n    tag_73:\n        /* \"#utility.yul\":3013:3019   */\n      0x00\n        /* \"#utility.yul\":3040:3060   */\n      tag_130\n      tag_58\n      jump\t// in\n    tag_130:\n        /* \"#utility.yul\":3030:3060   */\n      swap1\n      pop\n        /* \"#utility.yul\":3069:3102   */\n      tag_131\n        /* \"#utility.yul\":3097:3101   */\n      dup3\n        /* \"#utility.yul\":3089:3095   */\n      dup3\n        /* \"#utility.yul\":3069:3102   */\n      tag_72\n      jump\t// in\n    tag_131:\n        /* \"#utility.yul\":2979:3108   */\n      swap2\n      swap1\n      pop\n      jump\t// out\n        /* \"#utility.yul\":3114:3422   */\n    tag_74:\n        /* \"#utility.yul\":3176:3180   */\n      0x00\n        /* \"#utility.yul\":3266:3284   */\n      0xffffffffffffffff\n        /* \"#utility.yul\":3258:3264   */\n      dup3\n        /* \"#utility.yul\":3255:3285   */\n      gt\n        /* \"#utility.yul\":3252:3308   */\n      iszero\n      tag_133\n      jumpi\n        /* \"#utility.yul\":3288:3306   */\n      tag_134\n      tag_71\n      jump\t// in\n    tag_134:\n        /* \"#utility.yul\":3252:3308   */\n    tag_133:\n        /* \"#utility.yul\":3326:3355   */\n      tag_135\n        /* \"#utility.yul\":3348:3354   */\n      dup3\n        /* \"#utility.yul\":3326:3355   */\n      tag_67\n      jump\t// in\n    tag_135:\n        /* \"#utility.yul\":3318:3355   */\n      swap1\n      pop\n        /* \"#utility.yul\":3410:3414   */\n      0x20\n        /* \"#utility.yul\":3404:3408   */\n      dup2\n        /* \"#utility.yul\":3400:3415   */\n      add\n        /* \"#utility.yul\":3392:3415   */\n      swap1\n      pop\n        /* \"#utility.yul\":3114:3422   */\n      swap2\n      swap1\n      pop\n      jump\t// out\n        /* \"#utility.yul\":3428:3576   */\n    tag_75:\n        /* \"#utility.yul\":3526:3532   */\n      dup3\n        /* \"#utility.yul\":3521:3524   */\n      dup2\n        /* \"#utility.yul\":3516:3519   */\n      dup4\n        /* \"#utility.yul\":3503:3533   */\n      calldatacopy\n        /* \"#utility.yul\":3567:3568   */\n      0x00\n        /* \"#utility.yul\":3558:3564   */\n      dup4\n        /* \"#utility.yul\":3553:3556   */\n      dup4\n        /* \"#utility.yul\":3549:3565   */\n      add\n        /* \"#utility.yul\":3542:3569   */\n      mstore\n        /* \"#utility.yul\":3428:3576   */\n      pop\n      pop\n      pop\n      jump\t// out\n        /* \"#utility.yul\":3582:4007   */\n    tag_76:\n        /* \"#utility.yul\":3660:3665   */\n      0x00\n        /* \"#utility.yul\":3685:3751   */\n      tag_138\n        /* \"#utility.yul\":3701:3750   */\n      tag_139\n        /* \"#utility.yul\":3743:3749   */\n      dup5\n        /* \"#utility.yul\":3701:3750   */\n      tag_74\n      jump\t// in\n    tag_139:\n        /* \"#utility.yul\":3685:3751   */\n      tag_73\n      jump\t// in\n    tag_138:\n        /* \"#utility.yul\":3676:3751   */\n      swap1\n      pop\n        /* \"#utility.yul\":3774:3780   */\n      dup3\n        /* \"#utility.yul\":3767:3772   */\n      dup2\n        /* \"#utility.yul\":3760:3781   */\n      mstore\n        /* \"#utility.yul\":3812:3816   */\n      0x20\n        /* \"#utility.yul\":3805:3810   */\n      dup2\n        /* \"#utility.yul\":3801:3817   */\n      add\n        /* \"#utility.yul\":3850:3853   */\n      dup5\n        /* \"#utility.yul\":3841:3847   */\n      dup5\n        /* \"#utility.yul\":3836:3839   */\n      dup5\n        /* \"#utility.yul\":3832:3848   */\n      add\n        /* \"#utility.yul\":3829:3854   */\n      gt\n        /* \"#utility.yul\":3826:3938   */\n      iszero\n      tag_140\n      jumpi\n        /* \"#utility.yul\":3857:3936   */\n      tag_141\n      tag_70\n      jump\t// in\n    tag_141:\n        /* \"#utility.yul\":3826:3938   */\n    tag_140:\n        /* \"#utility.yul\":3947:4001   */\n      tag_142\n        /* \"#utility.yul\":3994:4000   */\n      dup5\n        /* \"#utility.yul\":3989:3992   */\n      dup3\n        /* \"#utility.yul\":3984:3987   */\n      dup6\n        /* \"#utility.yul\":3947:4001   */\n      tag_75\n      jump\t// in\n    tag_142:\n        /* \"#utility.yul\":3666:4007   */\n      pop\n        /* \"#utility.yul\":3582:4007   */\n      swap4\n      swap3\n      pop\n      pop\n      pop\n      jump\t// out\n        /* \"#utility.yul\":4027:4367   */\n    tag_77:\n        /* \"#utility.yul\":4083:4088   */\n      0x00\n        /* \"#utility.yul\":4132:4135   */\n      dup3\n        /* \"#utility.yul\":4125:4129   */\n      0x1f\n        /* \"#utility.yul\":4117:4123   */\n      dup4\n        /* \"#utility.yul\":4113:4130   */\n      add\n        /* \"#utility.yul\":4109:4136   */\n      slt\n        /* \"#utility.yul\":4099:4221   */\n      tag_144\n      jumpi\n        /* \"#utility.yul\":4140:4219   */\n      tag_145\n      tag_69\n      jump\t// in\n    tag_145:\n        /* \"#utility.yul\":4099:4221   */\n    tag_144:\n        /* \"#utility.yul\":4257:4263   */\n      dup2\n        /* \"#utility.yul\":4244:4264   */\n      calldataload\n        /* \"#utility.yul\":4282:4361   */\n      tag_146\n        /* \"#utility.yul\":4357:4360   */\n      dup5\n        /* \"#utility.yul\":4349:4355   */\n      dup3\n        /* \"#utility.yul\":4342:4346   */\n      0x20\n        /* \"#utility.yul\":4334:4340   */\n      dup7\n        /* \"#utility.yul\":4330:4347   */\n      add\n        /* \"#utility.yul\":4282:4361   */\n      tag_76\n      jump\t// in\n    tag_146:\n        /* \"#utility.yul\":4273:4361   */\n      swap2\n      pop\n        /* \"#utility.yul\":4089:4367   */\n      pop\n        /* \"#utility.yul\":4027:4367   */\n      swap3\n      swap2\n      pop\n      pop\n      jump\t// out\n        /* \"#utility.yul\":4373:5027   */\n    tag_15:\n        /* \"#utility.yul\":4451:4457   */\n      0x00\n        /* \"#utility.yul\":4459:4465   */\n      dup1\n        /* \"#utility.yul\":4508:4510   */\n      0x40\n        /* \"#utility.yul\":4496:4505   */\n      dup4\n        /* \"#utility.yul\":4487:4494   */\n      dup6\n        /* \"#utility.yul\":4483:4506   */\n      sub\n        /* \"#utility.yul\":4479:4511   */\n      slt\n        /* \"#utility.yul\":4476:4595   */\n      iszero\n      tag_148\n      jumpi\n        /* \"#utility.yul\":4514:4593   */\n      tag_149\n      tag_59\n      jump\t// in\n    tag_149:\n        /* \"#utility.yul\":4476:4595   */\n    tag_148:\n        /* \"#utility.yul\":4662:4663   */\n      0x00\n        /* \"#utility.yul\":4651:4660   */\n      dup4\n        /* \"#utility.yul\":4647:4664   */\n      add\n        /* \"#utility.yul\":4634:4665   */\n      calldataload\n        /* \"#utility.yul\":4692:4710   */\n      0xffffffffffffffff\n        /* \"#utility.yul\":4684:4690   */\n      dup2\n        /* \"#utility.yul\":4681:4711   */\n      gt\n        /* \"#utility.yul\":4678:4795   */\n      iszero\n      tag_150\n      jumpi\n        /* \"#utility.yul\":4714:4793   */\n      tag_151\n      tag_60\n      jump\t// in\n    tag_151:\n        /* \"#utility.yul\":4678:4795   */\n    tag_150:\n        /* \"#utility.yul\":4819:4882   */\n      tag_152\n        /* \"#utility.yul\":4874:4881   */\n      dup6\n        /* \"#utility.yul\":4865:4871   */\n      dup3\n        /* \"#utility.yul\":4854:4863   */\n      dup7\n        /* \"#utility.yul\":4850:4872   */\n      add\n        /* \"#utility.yul\":4819:4882   */\n      tag_77\n      jump\t// in\n    tag_152:\n        /* \"#utility.yul\":4809:4882   */\n      swap3\n      pop\n        /* \"#utility.yul\":4605:4892   */\n      pop\n        /* \"#utility.yul\":4931:4933   */\n      0x20\n        /* \"#utility.yul\":4957:5010   */\n      tag_153\n        /* \"#utility.yul\":5002:5009   */\n      dup6\n        /* \"#utility.yul\":4993:4999   */\n      dup3\n        /* \"#utility.yul\":4982:4991   */\n      dup7\n        /* \"#utility.yul\":4978:5000   */\n      add\n        /* \"#utility.yul\":4957:5010   */\n      tag_63\n      jump\t// in\n    tag_153:\n        /* \"#utility.yul\":4947:5010   */\n      swap2\n      pop\n        /* \"#utility.yul\":4902:5020   */\n      pop\n        /* \"#utility.yul\":4373:5027   */\n      swap3\n      pop\n      swap3\n      swap1\n      pop\n      jump\t// out\n        /* \"#utility.yul\":5033:5542   */\n    tag_19:\n        /* \"#utility.yul\":5102:5108   */\n      0x00\n        /* \"#utility.yul\":5151:5153   */\n      0x20\n        /* \"#utility.yul\":5139:5148   */\n      dup3\n        /* \"#utility.yul\":5130:5137   */\n      dup5\n        /* \"#utility.yul\":5126:5149   */\n      sub\n        /* \"#utility.yul\":5122:5154   */\n      slt\n        /* \"#utility.yul\":5119:5238   */\n      iszero\n      tag_155\n      jumpi\n        /* \"#utility.yul\":5157:5236   */\n      tag_156\n      tag_59\n      jump\t// in\n    tag_156:\n        /* \"#utility.yul\":5119:5238   */\n    tag_155:\n        /* \"#utility.yul\":5305:5306   */\n      0x00\n        /* \"#utility.yul\":5294:5303   */\n      dup3\n        /* \"#utility.yul\":5290:5307   */\n      add\n        /* \"#utility.yul\":5277:5308   */\n      calldataload\n        /* \"#utility.yul\":5335:5353   */\n      0xffffffffffffffff\n        /* \"#utility.yul\":5327:5333   */\n      dup2\n        /* \"#utility.yul\":5324:5354   */\n      gt\n        /* \"#utility.yul\":5321:5438   */\n      iszero\n      tag_157\n      jumpi\n        /* \"#utility.yul\":5357:5436   */\n      tag_158\n      tag_60\n      jump\t// in\n    tag_158:\n        /* \"#utility.yul\":5321:5438   */\n    tag_157:\n        /* \"#utility.yul\":5462:5525   */\n      tag_159\n        /* \"#utility.yul\":5517:5524   */\n      dup5\n        /* \"#utility.yul\":5508:5514   */\n      dup3\n        /* \"#utility.yul\":5497:5506   */\n      dup6\n        /* \"#utility.yul\":5493:5515   */\n      add\n        /* \"#utility.yul\":5462:5525   */\n      tag_77\n      jump\t// in\n    tag_159:\n        /* \"#utility.yul\":5452:5525   */\n      swap2\n      pop\n        /* \"#utility.yul\":5248:5535   */\n      pop\n        /* \"#utility.yul\":5033:5542   */\n      swap3\n      swap2\n      pop\n      pop\n      jump\t// out\n        /* \"#utility.yul\":5548:5728   */\n    tag_78:\n        /* \"#utility.yul\":5596:5673   */\n      0x4e487b7100000000000000000000000000000000000000000000000000000000\n        /* \"#utility.yul\":5593:5594   */\n      0x00\n        /* \"#utility.yul\":5586:5674   */\n      mstore\n        /* \"#utility.yul\":5693:5697   */\n      0x22\n        /* \"#utility.yul\":5690:5691   */\n      0x04\n        /* \"#utility.yul\":5683:5698   */\n      mstore\n        /* \"#utility.yul\":5717:5721   */\n      0x24\n        /* \"#utility.yul\":5714:5715   */\n      0x00\n        /* \"#utility.yul\":5707:5722   */\n      revert\n        /* \"#utility.yul\":5734:6054   */\n    tag_28:\n        /* \"#utility.yul\":5778:5784   */\n      0x00\n        /* \"#utility.yul\":5815:5816   */\n      0x02\n        /* \"#utility.yul\":5809:5813   */\n      dup3\n        /* \"#utility.yul\":5805:5817   */\n      div\n        /* \"#utility.yul\":5795:5817   */\n      swap1\n      pop\n        /* \"#utility.yul\":5862:5863   */\n      0x01\n        /* \"#utility.yul\":5856:5860   */\n      dup3\n        /* \"#utility.yul\":5852:5864   */\n      and\n        /* \"#utility.yul\":5883:5901   */\n      dup1\n        /* \"#utility.yul\":5873:5954   */\n      tag_162\n      jumpi\n        /* \"#utility.yul\":5939:5943   */\n      0x7f\n        /* \"#utility.yul\":5931:5937   */\n      dup3\n        /* \"#utility.yul\":5927:5944   */\n      and\n        /* \"#utility.yul\":5917:5944   */\n      swap2\n      pop\n        /* \"#utility.yul\":5873:5954   */\n    tag_162:\n        /* \"#utility.yul\":6001:6003   */\n      0x20\n        /* \"#utility.yul\":5993:5999   */\n      dup3\n        /* \"#utility.yul\":5990:6004   */\n      lt\n        /* \"#utility.yul\":5970:5988   */\n      dup2\n        /* \"#utility.yul\":5967:6005   */\n      sub\n        /* \"#utility.yul\":5964:6048   */\n      tag_163\n      jumpi\n        /* \"#utility.yul\":6020:6038   */\n      tag_164\n      tag_78\n      jump\t// in\n    tag_164:\n        /* \"#utility.yul\":5964:6048   */\n    tag_163:\n        /* \"#utility.yul\":5785:6054   */\n      pop\n        /* \"#utility.yul\":5734:6054   */\n      swap2\n      swap1\n      pop\n      jump\t// out\n        /* \"#utility.yul\":6060:6201   */\n    tag_79:\n        /* \"#utility.yul\":6109:6113   */\n      0x00\n        /* \"#utility.yul\":6132:6135   */\n      dup2\n        /* \"#utility.yul\":6124:6135   */\n      swap1\n      pop\n        /* \"#utility.yul\":6155:6158   */\n      dup2\n        /* \"#utility.yul\":6152:6153   */\n      0x00\n        /* \"#utility.yul\":6145:6159   */\n      mstore\n        /* \"#utility.yul\":6189:6193   */\n      0x20\n        /* \"#utility.yul\":6186:6187   */\n      0x00\n        /* \"#utility.yul\":6176:6194   */\n      keccak256\n        /* \"#utility.yul\":6168:6194   */\n      swap1\n      pop\n        /* \"#utility.yul\":6060:6201   */\n      swap2\n      swap1\n      pop\n      jump\t// out\n        /* \"#utility.yul\":6207:6300   */\n    tag_80:\n        /* \"#utility.yul\":6244:6250   */\n      0x00\n        /* \"#utility.yul\":6291:6293   */\n      0x20\n        /* \"#utility.yul\":6286:6288   */\n      0x1f\n        /* \"#utility.yul\":6279:6284   */\n      dup4\n        /* \"#utility.yul\":6275:6289   */\n      add\n        /* \"#utility.yul\":6271:6294   */\n      div\n        /* \"#utility.yul\":6261:6294   */\n      swap1\n      pop\n        /* \"#utility.yul\":6207:6300   */\n      swap2\n      swap1\n      pop\n      jump\t// out\n        /* \"#utility.yul\":6306:6413   */\n    tag_81:\n        /* \"#utility.yul\":6350:6358   */\n      0x00\n        /* \"#utility.yul\":6400:6405   */\n      dup3\n        /* \"#utility.yul\":6394:6398   */\n      dup3\n        /* \"#utility.yul\":6390:6406   */\n      shl\n        /* \"#utility.yul\":6369:6406   */\n      swap1\n      pop\n        /* \"#utility.yul\":6306:6413   */\n      swap3\n      swap2\n      pop\n      pop\n      jump\t// out\n        /* \"#utility.yul\":6419:6812   */\n    tag_82:\n        /* \"#utility.yul\":6488:6494   */\n      0x00\n        /* \"#utility.yul\":6538:6539   */\n      0x08\n        /* \"#utility.yul\":6526:6536   */\n      dup4\n        /* \"#utility.yul\":6522:6540   */\n      mul\n        /* \"#utility.yul\":6561:6658   */\n      tag_169\n        /* \"#utility.yul\":6591:6657   */\n      0xffffffffffffffffffffffffffffffffffffffffffffffffffffffffffffffff\n        /* \"#utility.yul\":6580:6589   */\n      dup3\n        /* \"#utility.yul\":6561:6658   */\n      tag_81\n      jump\t// in\n    tag_169:\n        /* \"#utility.yul\":6679:6718   */\n      tag_170\n        /* \"#utility.yul\":6709:6717   */\n      dup7\n        /* \"#utility.yul\":6698:6707   */\n      dup4\n        /* \"#utility.yul\":6679:6718   */\n      tag_81\n      jump\t// in\n    tag_170:\n        /* \"#utility.yul\":6667:6718   */\n      swap6\n      pop\n        /* \"#utility.yul\":6751:6755   */\n      dup1\n        /* \"#utility.yul\":6747:6756   */\n      not\n        /* \"#utility.yul\":6740:6745   */\n      dup5\n        /* \"#utility.yul\":6736:6757   */\n      and\n        /* \"#utility.yul\":6727:6757   */\n      swap4\n      pop\n        /* \"#utility.yul\":6800:6804   */\n      dup1\n        /* \"#utility.yul\":6790:6798   */\n      dup7\n        /* \"#utility.yul\":6786:6805   */\n      and\n        /* \"#utility.yul\":6779:6784   */\n      dup5\n        /* \"#utility.yul\":6776:6806   */\n      or\n        /* \"#utility.yul\":6766:6806   */\n      swap3\n      pop\n        /* \"#utility.yul\":6495:6812   */\n      pop\n      pop\n        /* \"#utility.yul\":6419:6812   */\n      swap4\n      swap3\n      pop\n      pop\n      pop\n      jump\t// out\n        /* \"#utility.yul\":6818:6878   */\n    tag_83:\n        /* \"#utility.yul\":6846:6849   */\n      0x00\n        /* \"#utility.yul\":6867:6872   */\n      dup2\n        /* \"#utility.yul\":6860:6872   */\n      swap1\n      pop\n        /* \"#utility.yul\":6818:6878   */\n      swap2\n      swap1\n      pop\n      jump\t// out\n        /* \"#utility.yul\":6884:7026   */\n    tag_84:\n        /* \"#utility.yul\":6934:6943   */\n      0x00\n        /* \"#utility.yul\":6967:7020   */\n      tag_173\n        /* \"#utility.yul\":6985:7019   */\n      tag_174\n        /* \"#utility.yul\":6994:7018   */\n      tag_175\n        /* \"#utility.yul\":7012:7017   */\n      dup5\n        /* \"#utility.yul\":6994:7018   */\n      tag_61\n      jump\t// in\n    tag_175:\n        /* \"#utility.yul\":6985:7019   */\n      tag_83\n      jump\t// in\n    tag_174:\n        /* \"#utility.yul\":6967:7020   */\n      tag_61\n      jump\t// in\n    tag_173:\n        /* \"#utility.yul\":6954:7020   */\n      swap1\n      pop\n        /* \"#utility.yul\":6884:7026   */\n      swap2\n      swap1\n      pop\n      jump\t// out\n        /* \"#utility.yul\":7032:7107   */\n    tag_85:\n        /* \"#utility.yul\":7075:7078   */\n      0x00\n        /* \"#utility.yul\":7096:7101   */\n      dup2\n        /* \"#utility.yul\":7089:7101   */\n      swap1\n      pop\n        /* \"#utility.yul\":7032:7107   */\n      swap2\n      swap1\n      pop\n      jump\t// out\n        /* \"#utility.yul\":7113:7382   */\n    tag_86:\n        /* \"#utility.yul\":7223:7262   */\n      tag_178\n        /* \"#utility.yul\":7254:7261   */\n      dup4\n        /* \"#utility.yul\":7223:7262   */\n      tag_84\n      jump\t// in\n    tag_178:\n        /* \"#utility.yul\":7284:7375   */\n      tag_179\n        /* \"#utility.yul\":7333:7374   */\n      tag_180\n        /* \"#utility.yul\":7357:7373   */\n      dup3\n        /* \"#utility.yul\":7333:7374   */\n      tag_85\n      jump\t// in\n    tag_180:\n        /* \"#utility.yul\":7325:7331   */\n      dup5\n        /* \"#utility.yul\":7318:7322   */\n      dup5\n        /* \"#utility.yul\":7312:7323   */\n      sload\n        /* \"#utility.yul\":7284:7375   */\n      tag_82\n      jump\t// in\n    tag_179:\n        /* \"#utility.yul\":7278:7282   */\n      dup3\n        /* \"#utility.yul\":7271:7376   */\n      sstore\n        /* \"#utility.yul\":7189:7382   */\n      pop\n        /* \"#utility.yul\":7113:7382   */\n      pop\n      pop\n      pop\n      jump\t// out\n        /* \"#utility.yul\":7388:7461   */\n    tag_87:\n        /* \"#utility.yul\":7433:7436   */\n      0x00\n        /* \"#utility.yul\":7388:7461   */\n      swap1\n      jump\t// out\n        /* \"#utility.yul\":7467:7656   */\n    tag_88:\n        /* \"#utility.yul\":7544:7576   */\n      tag_183\n      tag_87\n      jump\t// in\n    tag_183:\n        /* \"#utility.yul\":7585:7650   */\n      tag_184\n        /* \"#utility.yul\":7643:7649   */\n      dup2\n        /* \"#utility.yul\":7635:7641   */\n      dup5\n        /* \"#utility.yul\":7629:7633   */\n      dup5\n        /* \"#utility.yul\":7585:7650   */\n      tag_86\n      jump\t// in\n    tag_184:\n        /* \"#utility.yul\":7520:7656   */\n      pop\n        /* \"#utility.yul\":7467:7656   */\n      pop\n      pop\n      jump\t// out\n        /* \"#utility.yul\":7662:7848   */\n    tag_89:\n        /* \"#utility.yul\":7722:7842   */\n    tag_186:\n        /* \"#utility.yul\":7739:7742   */\n      dup2\n        /* \"#utility.yul\":7732:7737   */\n      dup2\n        /* \"#utility.yul\":7729:7743   */\n      lt\n        /* \"#utility.yul\":7722:7842   */\n      iszero\n      tag_188\n      jumpi\n        /* \"#utility.yul\":7793:7832   */\n      tag_189\n        /* \"#utility.yul\":7830:7831   */\n      0x00\n        /* \"#utility.yul\":7823:7828   */\n      dup3\n        /* \"#utility.yul\":7793:7832   */\n      tag_88\n      jump\t// in\n    tag_189:\n        /* \"#utility.yul\":7766:7767   */\n      0x01\n        /* \"#utility.yul\":7759:7764   */\n      dup2\n        /* \"#utility.yul\":7755:7768   */\n      add\n        /* \"#utility.yul\":7746:7768   */\n      swap1\n      pop\n        /* \"#utility.yul\":7722:7842   */\n      jump(tag_186)\n    tag_188:\n        /* \"#utility.yul\":7662:7848   */\n      pop\n      pop\n      jump\t// out\n        /* \"#utility.yul\":7854:8397   */\n    tag_90:\n        /* \"#utility.yul\":7955:7957   */\n      0x1f\n        /* \"#utility.yul\":7950:7953   */\n      dup3\n        /* \"#utility.yul\":7947:7958   */\n      gt\n        /* \"#utility.yul\":7944:8390   */\n      iszero\n      tag_191\n      jumpi\n        /* \"#utility.yul\":7989:8027   */\n      tag_192\n        /* \"#utility.yul\":8021:8026   */\n      dup2\n        /* \"#utility.yul\":7989:8027   */\n      tag_79\n      jump\t// in\n    tag_192:\n        /* \"#utility.yul\":8073:8102   */\n      tag_193\n        /* \"#utility.yul\":8091:8101   */\n      dup5\n        /* \"#utility.yul\":8073:8102   */\n      tag_80\n      jump\t// in\n    tag_193:\n        /* \"#utility.yul\":8063:8071   */\n      dup2\n        /* \"#utility.yul\":8059:8103   */\n      add\n        /* \"#utility.yul\":8256:8258   */\n      0x20\n        /* \"#utility.yul\":8244:8254   */\n      dup6\n        /* \"#utility.yul\":8241:8259   */\n      lt\n        /* \"#utility.yul\":8238:8287   */\n      iszero\n      tag_194\n      jumpi\n        /* \"#utility.yul\":8277:8285   */\n      dup2\n        /* \"#utility.yul\":8262:8285   */\n      swap1\n      pop\n        /* \"#utility.yul\":8238:8287   */\n    tag_194:\n        /* \"#utility.yul\":8300:8380   */\n      tag_195\n        /* \"#utility.yul\":8356:8378   */\n      tag_196\n        /* \"#utility.yul\":8374:8377   */\n      dup6\n        /* \"#utility.yul\":8356:8378   */\n      tag_80\n      jump\t// in\n    tag_196:\n        /* \"#utility.yul\":8346:8354   */\n      dup4\n        /* \"#utility.yul\":8342:8379   */\n      add\n        /* \"#utility.yul\":8329:8340   */\n      dup3\n        /* \"#utility.yul\":8300:8380   */\n      tag_89\n      jump\t// in\n    tag_195:\n        /* \"#utility.yul\":7959:8390   */\n      pop\n      pop\n        /* \"#utility.yul\":7944:8390   */\n    tag_191:\n        /* \"#utility.yul\":7854:8397   */\n      pop\n      pop\n      pop\n      jump\t// out\n        /* \"#utility.yul\":8403:8520   */\n    tag_91:\n        /* \"#utility.yul\":8457:8465   */\n      0x00\n        /* \"#utility.yul\":8507:8512   */\n      dup3\n        /* \"#utility.yul\":8501:8505   */\n      dup3\n        /* \"#utility.yul\":8497:8513   */\n      shr\n        /* \"#utility.yul\":8476:8513   */\n      swap1\n      pop\n        /* \"#utility.yul\":8403:8520   */\n      swap3\n      swap2\n      pop\n      pop\n      jump\t// out\n        /* \"#utility.yul\":8526:8695   */\n    tag_92:\n        /* \"#utility.yul\":8570:8576   */\n      0x00\n        /* \"#utility.yul\":8603:8654   */\n      tag_199\n        /* \"#utility.yul\":8651:8652   */\n      0x00\n        /* \"#utility.yul\":8647:8653   */\n      not\n        /* \"#utility.yul\":8639:8644   */\n      dup5\n        /* \"#utility.yul\":8636:8637   */\n      0x08\n        /* \"#utility.yul\":8632:8645   */\n      mul\n        /* \"#utility.yul\":8603:8654   */\n      tag_91\n      jump\t// in\n    tag_199:\n        /* \"#utility.yul\":8599:8655   */\n      not\n        /* \"#utility.yul\":8684:8688   */\n      dup1\n        /* \"#utility.yul\":8678:8682   */\n      dup4\n        /* \"#utility.yul\":8674:8689   */\n      and\n        /* \"#utility.yul\":8664:8689   */\n      swap2\n      pop\n        /* \"#utility.yul\":8577:8695   */\n      pop\n        /* \"#utility.yul\":8526:8695   */\n      swap3\n      swap2\n      pop\n      pop\n      jump\t// out\n        /* \"#utility.yul\":8700:8995   */\n    tag_93:\n        /* \"#utility.yul\":8776:8780   */\n      0x00\n        /* \"#utility.yul\":8922:8951   */\n      tag_201\n        /* \"#utility.yul\":8947:8950   */\n      dup4\n        /* \"#utility.yul\":8941:8945   */\n      dup4\n        /* \"#utility.yul\":8922:8951   */\n      tag_92\n      jump\t// in\n    tag_201:\n        /* \"#utility.yul\":8914:8951   */\n      swap2\n      pop\n        /* \"#utility.yul\":8984:8987   */\n      dup3\n        /* \"#utility.yul\":8981:8982   */\n      0x02\n        /* \"#utility.yul\":8977:8988   */\n      mul\n        /* \"#utility.yul\":8971:8975   */\n      dup3\n        /* \"#utility.yul\":8968:8989   */\n      or\n        /* \"#utility.yul\":8960:8989   */\n      swap1\n      pop\n        /* \"#utility.yul\":8700:8995   */\n      swap3\n      swap2\n      pop\n      pop\n      jump\t// out\n        /* \"#utility.yul\":9000:10395   */\n    tag_44:\n        /* \"#utility.yul\":9117:9154   */\n      tag_203\n        /* \"#utility.yul\":9150:9153   */\n      dup3\n        /* \"#utility.yul\":9117:9154   */\n      tag_64\n      jump\t// in\n    tag_203:\n        /* \"#utility.yul\":9219:9237   */\n      0xffffffffffffffff\n        /* \"#utility.yul\":9211:9217   */\n      dup2\n        /* \"#utility.yul\":9208:9238   */\n      gt\n        /* \"#utility.yul\":9205:9261   */\n      iszero\n      tag_204\n      jumpi\n        /* \"#utility.yul\":9241:9259   */\n      tag_205\n      tag_71\n      jump\t// in\n    tag_205:\n        /* \"#utility.yul\":9205:9261   */\n    tag_204:\n        /* \"#utility.yul\":9285:9323   */\n      tag_206\n        /* \"#utility.yul\":9317:9321   */\n      dup3\n        /* \"#utility.yul\":9311:9322   */\n      sload\n        /* \"#utility.yul\":9285:9323   */\n      tag_28\n      jump\t// in\n    tag_206:\n        /* \"#utility.yul\":9370:9437   */\n      tag_207\n        /* \"#utility.yul\":9430:9436   */\n      dup3\n        /* \"#utility.yul\":9422:9428   */\n      dup3\n        /* \"#utility.yul\":9416:9420   */\n      dup6\n        /* \"#utility.yul\":9370:9437   */\n      tag_90\n      jump\t// in\n    tag_207:\n        /* \"#utility.yul\":9464:9465   */\n      0x00\n        /* \"#utility.yul\":9488:9492   */\n      0x20\n        /* \"#utility.yul\":9475:9492   */\n      swap1\n      pop\n        /* \"#utility.yul\":9520:9522   */\n      0x1f\n        /* \"#utility.yul\":9512:9518   */\n      dup4\n        /* \"#utility.yul\":9509:9523   */\n      gt\n        /* \"#utility.yul\":9537:9538   */\n      0x01\n        /* \"#utility.yul\":9532:10150   */\n      dup2\n      eq\n      tag_209\n      jumpi\n        /* \"#utility.yul\":10194:10195   */\n      0x00\n        /* \"#utility.yul\":10211:10217   */\n      dup5\n        /* \"#utility.yul\":10208:10285   */\n      iszero\n      tag_210\n      jumpi\n        /* \"#utility.yul\":10260:10269   */\n      dup3\n        /* \"#utility.yul\":10255:10258   */\n      dup8\n        /* \"#utility.yul\":10251:10270   */\n      add\n        /* \"#utility.yul\":10245:10271   */\n      mload\n        /* \"#utility.yul\":10236:10271   */\n      swap1\n      pop\n        /* \"#utility.yul\":10208:10285   */\n    tag_210:\n        /* \"#utility.yul\":10311:10378   */\n      tag_211\n        /* \"#utility.yul\":10371:10377   */\n      dup6\n        /* \"#utility.yul\":10364:10369   */\n      dup3\n        /* \"#utility.yul\":10311:10378   */\n      tag_93\n      jump\t// in\n    tag_211:\n        /* \"#utility.yul\":10305:10309   */\n      dup7\n        /* \"#utility.yul\":10298:10379   */\n      sstore\n        /* \"#utility.yul\":10167:10389   */\n      pop\n        /* \"#utility.yul\":9502:10389   */\n      jump(tag_208)\n        /* \"#utility.yul\":9532:10150   */\n    tag_209:\n        /* \"#utility.yul\":9584:9588   */\n      0x1f\n        /* \"#utility.yul\":9580:9589   */\n      not\n        /* \"#utility.yul\":9572:9578   */\n      dup5\n        /* \"#utility.yul\":9568:9590   */\n      and\n        /* \"#utility.yul\":9618:9655   */\n      tag_212\n        /* \"#utility.yul\":9650:9654   */\n      dup7\n        /* \"#utility.yul\":9618:9655   */\n      tag_79\n      jump\t// in\n    tag_212:\n        /* \"#utility.yul\":9677:9678   */\n      0x00\n        /* \"#utility.yul\":9691:9899   */\n    tag_213:\n        /* \"#utility.yul\":9705:9712   */\n      dup3\n        /* \"#utility.yul\":9702:9703   */\n      dup2\n        /* \"#utility.yul\":9699:9713   */\n      lt\n        /* \"#utility.yul\":9691:9899   */\n      iszero\n      tag_215\n      jumpi\n        /* \"#utility.yul\":9784:9793   */\n      dup5\n        /* \"#utility.yul\":9779:9782   */\n      dup10\n        /* \"#utility.yul\":9775:9794   */\n      add\n        /* \"#utility.yul\":9769:9795   */\n      mload\n        /* \"#utility.yul\":9761:9767   */\n      dup3\n        /* \"#utility.yul\":9754:9796   */\n      sstore\n        /* \"#utility.yul\":9835:9836   */\n      0x01\n        /* \"#utility.yul\":9827:9833   */\n      dup3\n        /* \"#utility.yul\":9823:9837   */\n      add\n        /* \"#utility.yul\":9813:9837   */\n      swap2\n      pop\n        /* \"#utility.yul\":9882:9884   */\n      0x20\n        /* \"#utility.yul\":9871:9880   */\n      dup6\n        /* \"#utility.yul\":9867:9885   */\n      add\n        /* \"#utility.yul\":9854:9885   */\n      swap5\n      pop\n        /* \"#utility.yul\":9728:9732   */\n      0x20\n        /* \"#utility.yul\":9725:9726   */\n      dup2\n        /* \"#utility.yul\":9721:9733   */\n      add\n        /* \"#utility.yul\":9716:9733   */\n      swap1\n      pop\n        /* \"#utility.yul\":9691:9899   */\n      jump(tag_213)\n    tag_215:\n        /* \"#utility.yul\":9927:9933   */\n      dup7\n        /* \"#utility.yul\":9918:9925   */\n      dup4\n        /* \"#utility.yul\":9915:9934   */\n      lt\n        /* \"#utility.yul\":9912:10091   */\n      iszero\n      tag_216\n      jumpi\n        /* \"#utility.yul\":9985:9994   */\n      dup5\n        /* \"#utility.yul\":9980:9983   */\n      dup10\n        /* \"#utility.yul\":9976:9995   */\n      add\n        /* \"#utility.yul\":9970:9996   */\n      mload\n        /* \"#utility.yul\":10028:10076   */\n      tag_217\n        /* \"#utility.yul\":10070:10074   */\n      0x1f\n        /* \"#utility.yul\":10062:10068   */\n      dup10\n        /* \"#utility.yul\":10058:10075   */\n      and\n        /* \"#utility.yul\":10047:10056   */\n      dup3\n        /* \"#utility.yul\":10028:10076   */\n      tag_92\n      jump\t// in\n    tag_217:\n        /* \"#utility.yul\":10020:10026   */\n      dup4\n        /* \"#utility.yul\":10013:10077   */\n      sstore\n        /* \"#utility.yul\":9935:10091   */\n      pop\n        /* \"#utility.yul\":9912:10091   */\n    tag_216:\n        /* \"#utility.yul\":10137:10138   */\n      0x01\n        /* \"#utility.yul\":10133:10134   */\n      0x02\n        /* \"#utility.yul\":10125:10131   */\n      dup9\n        /* \"#utility.yul\":10121:10135   */\n      mul\n        /* \"#utility.yul\":10117:10139   */\n      add\n        /* \"#utility.yul\":10111:10115   */\n      dup9\n        /* \"#utility.yul\":10104:10140   */\n      sstore\n        /* \"#utility.yul\":9539:10150   */\n      pop\n      pop\n      pop\n        /* \"#utility.yul\":9502:10389   */\n    tag_208:\n      pop\n        /* \"#utility.yul\":9092:10395   */\n      pop\n      pop\n      pop\n        /* \"#utility.yul\":9000:10395   */\n      pop\n      pop\n      jump\t// out\n        /* \"#utility.yul\":10401:10549   */\n    tag_94:\n        /* \"#utility.yul\":10503:10514   */\n      0x00\n        /* \"#utility.yul\":10540:10543   */\n      dup2\n        /* \"#utility.yul\":10525:10543   */\n      swap1\n      pop\n        /* \"#utility.yul\":10401:10549   */\n      swap3\n      swap2\n      pop\n      pop\n      jump\t// out\n        /* \"#utility.yul\":10555:10945   */\n    tag_95:\n        /* \"#utility.yul\":10661:10664   */\n      0x00\n        /* \"#utility.yul\":10689:10728   */\n      tag_220\n        /* \"#utility.yul\":10722:10727   */\n      dup3\n        /* \"#utility.yul\":10689:10728   */\n      tag_64\n      jump\t// in\n    tag_220:\n        /* \"#utility.yul\":10744:10833   */\n      tag_221\n        /* \"#utility.yul\":10826:10832   */\n      dup2\n        /* \"#utility.yul\":10821:10824   */\n      dup6\n        /* \"#utility.yul\":10744:10833   */\n      tag_94\n      jump\t// in\n    tag_221:\n        /* \"#utility.yul\":10737:10833   */\n      swap4\n      pop\n        /* \"#utility.yul\":10842:10907   */\n      tag_222\n        /* \"#utility.yul\":10900:10906   */\n      dup2\n        /* \"#utility.yul\":10895:10898   */\n      dup6\n        /* \"#utility.yul\":10888:10892   */\n      0x20\n        /* \"#utility.yul\":10881:10886   */\n      dup7\n        /* \"#utility.yul\":10877:10893   */\n      add\n        /* \"#utility.yul\":10842:10907   */\n      tag_66\n      jump\t// in\n    tag_222:\n        /* \"#utility.yul\":10932:10938   */\n      dup1\n        /* \"#utility.yul\":10927:10930   */\n      dup5\n        /* \"#utility.yul\":10923:10939   */\n      add\n        /* \"#utility.yul\":10916:10939   */\n      swap2\n      pop\n        /* \"#utility.yul\":10665:10945   */\n      pop\n        /* \"#utility.yul\":10555:10945   */\n      swap3\n      swap2\n      pop\n      pop\n      jump\t// out\n        /* \"#utility.yul\":10951:11149   */\n    tag_96:\n        /* \"#utility.yul\":11120:11142   */\n      0x66726f6d204e6577277320636f6e74726163742e000000000000000000000000\n        /* \"#utility.yul\":11115:11118   */\n      dup2\n        /* \"#utility.yul\":11108:11143   */\n      mstore\n        /* \"#utility.yul\":10951:11149   */\n      pop\n      jump\t// out\n        /* \"#utility.yul\":11155:11697   */\n    tag_57:\n        /* \"#utility.yul\":11378:11381   */\n      0x00\n        /* \"#utility.yul\":11400:11495   */\n      tag_225\n        /* \"#utility.yul\":11491:11494   */\n      dup3\n        /* \"#utility.yul\":11482:11488   */\n      dup5\n        /* \"#utility.yul\":11400:11495   */\n      tag_95\n      jump\t// in\n    tag_225:\n        /* \"#utility.yul\":11393:11495   */\n      swap2\n      pop\n        /* \"#utility.yul\":11505:11643   */\n      tag_226\n        /* \"#utility.yul\":11639:11642   */\n      dup3\n        /* \"#utility.yul\":11505:11643   */\n      tag_96\n      jump\t// in\n    tag_226:\n        /* \"#utility.yul\":11668:11670   */\n      0x14\n        /* \"#utility.yul\":11663:11666   */\n      dup3\n        /* \"#utility.yul\":11659:11671   */\n      add\n        /* \"#utility.yul\":11652:11671   */\n      swap2\n      pop\n        /* \"#utility.yul\":11688:11691   */\n      dup2\n        /* \"#utility.yul\":11681:11691   */\n      swap1\n      pop\n        /* \"#utility.yul\":11155:11697   */\n      swap3\n      swap2\n      pop\n      pop\n      jump\t// out\n\n    auxdata: 0xa2646970667358221220b5bec70b38d6716ca39ca1283e2ae4c6e3178af2118b7fdcb9596c966419e23564736f6c634300081a0033\n}\n",
				"bytecode": {
					"linkReferences": {},
					"object": "608060405260015f806101000a81548160ff02191690831515021790555060ff5f60016101000a81548160ff021916908360ff1602179055506101006001557ffffffffffffffffffffffffffffffffffffffffffffffffffffffffffffffffe6002557f68656c6c6f2062797465730000000000000000000000000000000000000000006003556040518060400160405280600b81526020017f68656c6c6f20776f726c64000000000000000000000000000000000000000000815250600490816100ca919061036a565b50735b38da6a701c568545dcfcb03fcb875f56beddc460055f6101000a81548173ffffffffffffffffffffffffffffffffffffffff021916908373ffffffffffffffffffffffffffffffffffffffff16021790555034801561012a575f80fd5b50610439565b5f81519050919050565b7f4e487b71000000000000000000000000000000000000000000000000000000005f52604160045260245ffd5b7f4e487b71000000000000000000000000000000000000000000000000000000005f52602260045260245ffd5b5f60028204905060018216806101ab57607f821691505b6020821081036101be576101bd610167565b5b50919050565b5f819050815f5260205f209050919050565b5f6020601f8301049050919050565b5f82821b905092915050565b5f600883026102207fffffffffffffffffffffffffffffffffffffffffffffffffffffffffffffffff826101e5565b61022a86836101e5565b95508019841693508086168417925050509392505050565b5f819050919050565b5f819050919050565b5f61026e61026961026484610242565b61024b565b610242565b9050919050565b5f819050919050565b61028783610254565b61029b61029382610275565b8484546101f1565b825550505050565b5f90565b6102af6102a3565b6102ba81848461027e565b505050565b5b818110156102dd576102d25f826102a7565b6001810190506102c0565b5050565b601f821115610322576102f3816101c4565b6102fc846101d6565b8101602085101561030b578190505b61031f610317856101d6565b8301826102bf565b50505b505050565b5f82821c905092915050565b5f6103425f1984600802610327565b1980831691505092915050565b5f61035a8383610333565b9150826002028217905092915050565b61037382610130565b67ffffffffffffffff81111561038c5761038b61013a565b5b6103968254610194565b6103a18282856102e1565b5f60209050601f8311600181146103d2575f84156103c0578287015190505b6103ca858261034f565b865550610431565b601f1984166103e0866101c4565b5f5b82811015610407578489015182556001820191506020850194506020810190506103e2565b868310156104245784890151610420601f891682610333565b8355505b6001600288020188555050505b505050505050565b610ae4806104465f395ff3fe608060405234801561000f575f80fd5b506004361061004a575f3560e01c80631a3cd59a1461004e5780638262963b1461007e57806390ffded81461009a578063a7ef4329146100b6575b5f80fd5b610068600480360381019061006391906104d8565b6100d4565b6040516100759190610573565b60405180910390f35b610098600480360381019061009391906106bf565b61027f565b005b6100b460048036038101906100af9190610719565b6103c0565b005b6100be6103d3565b6040516100cb9190610573565b60405180910390f35b60605f73ffffffffffffffffffffffffffffffffffffffff1660075f8481526020019081526020015f206002015f9054906101000a900473ffffffffffffffffffffffffffffffffffffffff1673ffffffffffffffffffffffffffffffffffffffff16036101d4576101cd6004805461014c9061078d565b80601f01602080910402602001604051908101604052809291908181526020018280546101789061078d565b80156101c35780601f1061019a576101008083540402835291602001916101c3565b820191905f5260205f20905b8154815290600101906020018083116101a657829003601f168201915b505050505061046b565b905061027a565b61027760075f8481526020019081526020015f2060010180546101f69061078d565b80601f01602080910402602001604051908101604052809291908181526020018280546102229061078d565b801561026d5780601f106102445761010080835404028352916020019161026d565b820191905f5260205f20905b81548152906001019060200180831161025057829003601f168201915b505050505061046b565b90505b919050565b5f60405180606001604052808381526020018481526020013373ffffffffffffffffffffffffffffffffffffffff168152509050600681908060018154018082558091505060019003905f5260205f2090600302015f909190919091505f820151815f015560208201518160010190816102f9919061095a565b506040820151816002015f6101000a81548173ffffffffffffffffffffffffffffffffffffffff021916908373ffffffffffffffffffffffffffffffffffffffff16021790555050508060075f8481526020019081526020015f205f820151815f01556020820151816001019081610371919061095a565b506040820151816002015f6101000a81548173ffffffffffffffffffffffffffffffffffffffff021916908373ffffffffffffffffffffffffffffffffffffffff160217905550905050505050565b80600490816103cf919061095a565b5050565b6060610466600480546103e59061078d565b80601f01602080910402602001604051908101604052809291908181526020018280546104119061078d565b801561045c5780601f106104335761010080835404028352916020019161045c565b820191905f5260205f20905b81548152906001019060200180831161043f57829003601f168201915b505050505061046b565b905090565b60608160405160200161047e9190610a89565b6040516020818303038152906040529050919050565b5f604051905090565b5f80fd5b5f80fd5b5f819050919050565b6104b7816104a5565b81146104c1575f80fd5b50565b5f813590506104d2816104ae565b92915050565b5f602082840312156104ed576104ec61049d565b5b5f6104fa848285016104c4565b91505092915050565b5f81519050919050565b5f82825260208201905092915050565b8281835e5f83830152505050565b5f601f19601f8301169050919050565b5f61054582610503565b61054f818561050d565b935061055f81856020860161051d565b6105688161052b565b840191505092915050565b5f6020820190508181035f83015261058b818461053b565b905092915050565b5f80fd5b5f80fd5b7f4e487b71000000000000000000000000000000000000000000000000000000005f52604160045260245ffd5b6105d18261052b565b810181811067ffffffffffffffff821117156105f0576105ef61059b565b5b80604052505050565b5f610602610494565b905061060e82826105c8565b919050565b5f67ffffffffffffffff82111561062d5761062c61059b565b5b6106368261052b565b9050602081019050919050565b828183375f83830152505050565b5f61066361065e84610613565b6105f9565b90508281526020810184848401111561067f5761067e610597565b5b61068a848285610643565b509392505050565b5f82601f8301126106a6576106a5610593565b5b81356106b6848260208601610651565b91505092915050565b5f80604083850312156106d5576106d461049d565b5b5f83013567ffffffffffffffff8111156106f2576106f16104a1565b5b6106fe85828601610692565b925050602061070f858286016104c4565b9150509250929050565b5f6020828403121561072e5761072d61049d565b5b5f82013567ffffffffffffffff81111561074b5761074a6104a1565b5b61075784828501610692565b91505092915050565b7f4e487b71000000000000000000000000000000000000000000000000000000005f52602260045260245ffd5b5f60028204905060018216806107a457607f821691505b6020821081036107b7576107b6610760565b5b50919050565b5f819050815f5260205f209050919050565b5f6020601f8301049050919050565b5f82821b905092915050565b5f600883026108197fffffffffffffffffffffffffffffffffffffffffffffffffffffffffffffffff826107de565b61082386836107de565b95508019841693508086168417925050509392505050565b5f819050919050565b5f61085e610859610854846104a5565b61083b565b6104a5565b9050919050565b5f819050919050565b61087783610844565b61088b61088382610865565b8484546107ea565b825550505050565b5f90565b61089f610893565b6108aa81848461086e565b505050565b5b818110156108cd576108c25f82610897565b6001810190506108b0565b5050565b601f821115610912576108e3816107bd565b6108ec846107cf565b810160208510156108fb578190505b61090f610907856107cf565b8301826108af565b50505b505050565b5f82821c905092915050565b5f6109325f1984600802610917565b1980831691505092915050565b5f61094a8383610923565b9150826002028217905092915050565b61096382610503565b67ffffffffffffffff81111561097c5761097b61059b565b5b610986825461078d565b6109918282856108d1565b5f60209050601f8311600181146109c2575f84156109b0578287015190505b6109ba858261093f565b865550610a21565b601f1984166109d0866107bd565b5f5b828110156109f7578489015182556001820191506020850194506020810190506109d2565b86831015610a145784890151610a10601f891682610923565b8355505b6001600288020188555050505b505050505050565b5f81905092915050565b5f610a3d82610503565b610a478185610a29565b9350610a5781856020860161051d565b80840191505092915050565b7f66726f6d204e6577277320636f6e74726163742e000000000000000000000000815250565b5f610a948284610a33565b9150610a9f82610a63565b6014820191508190509291505056fea2646970667358221220b5bec70b38d6716ca39ca1283e2ae4c6e3178af2118b7fdcb9596c966419e23564736f6c634300081a0033",
					"opcodes": "PUSH1 0x80 PUSH1 0x40 MSTORE PUSH1 0x1 PUSH0 DUP1 PUSH2 0x100 EXP DUP2 SLOAD DUP2 PUSH1 0xFF MUL NOT AND SWAP1 DUP4 ISZERO ISZERO MUL OR SWAP1 SSTORE POP PUSH1 0xFF PUSH0 PUSH1 0x1 PUSH2 0x100 EXP DUP2 SLOAD DUP2 PUSH1 0xFF MUL NOT AND SWAP1 DUP4 PUSH1 0xFF AND MUL OR SWAP1 SSTORE POP PUSH2 0x100 PUSH1 0x1 SSTORE PUSH32 0xFFFFFFFFFFFFFFFFFFFFFFFFFFFFFFFFFFFFFFFFFFFFFFFFFFFFFFFFFFFFFFFE PUSH1 0x2 SSTORE PUSH32 0x68656C6C6F206279746573000000000000000000000000000000000000000000 PUSH1 0x3 SSTORE PUSH1 0x40 MLOAD DUP1 PUSH1 0x40 ADD PUSH1 0x40 MSTORE DUP1 PUSH1 0xB DUP2 MSTORE PUSH1 0x20 ADD PUSH32 0x68656C6C6F20776F726C64000000000000000000000000000000000000000000 DUP2 MSTORE POP PUSH1 0x4 SWAP1 DUP2 PUSH2 0xCA SWAP2 SWAP1 PUSH2 0x36A JUMP JUMPDEST POP PUSH20 0x5B38DA6A701C568545DCFCB03FCB875F56BEDDC4 PUSH1 0x5 PUSH0 PUSH2 0x100 EXP DUP2 SLOAD DUP2 PUSH20 0xFFFFFFFFFFFFFFFFFFFFFFFFFFFFFFFFFFFFFFFF MUL NOT AND SWAP1 DUP4 PUSH20 0xFFFFFFFFFFFFFFFFFFFFFFFFFFFFFFFFFFFFFFFF AND MUL OR SWAP1 SSTORE POP CALLVALUE DUP1 ISZERO PUSH2 0x12A JUMPI PUSH0 DUP1 REVERT JUMPDEST POP PUSH2 0x439 JUMP JUMPDEST PUSH0 DUP2 MLOAD SWAP1 POP SWAP2 SWAP1 POP JUMP JUMPDEST PUSH32 0x4E487B7100000000000000000000000000000000000000000000000000000000 PUSH0 MSTORE PUSH1 0x41 PUSH1 0x4 MSTORE PUSH1 0x24 PUSH0 REVERT JUMPDEST PUSH32 0x4E487B7100000000000000000000000000000000000000000000000000000000 PUSH0 MSTORE PUSH1 0x22 PUSH1 0x4 MSTORE PUSH1 0x24 PUSH0 REVERT JUMPDEST PUSH0 PUSH1 0x2 DUP3 DIV SWAP1 POP PUSH1 0x1 DUP3 AND DUP1 PUSH2 0x1AB JUMPI PUSH1 0x7F DUP3 AND SWAP2 POP JUMPDEST PUSH1 0x20 DUP3 LT DUP2 SUB PUSH2 0x1BE JUMPI PUSH2 0x1BD PUSH2 0x167 JUMP JUMPDEST JUMPDEST POP SWAP2 SWAP1 POP JUMP JUMPDEST PUSH0 DUP2 SWAP1 POP DUP2 PUSH0 MSTORE PUSH1 0x20 PUSH0 KECCAK256 SWAP1 POP SWAP2 SWAP1 POP JUMP JUMPDEST PUSH0 PUSH1 0x20 PUSH1 0x1F DUP4 ADD DIV SWAP1 POP SWAP2 SWAP1 POP JUMP JUMPDEST PUSH0 DUP3 DUP3 SHL SWAP1 POP SWAP3 SWAP2 POP POP JUMP JUMPDEST PUSH0 PUSH1 0x8 DUP4 MUL PUSH2 0x220 PUSH32 0xFFFFFFFFFFFFFFFFFFFFFFFFFFFFFFFFFFFFFFFFFFFFFFFFFFFFFFFFFFFFFFFF DUP3 PUSH2 0x1E5 JUMP JUMPDEST PUSH2 0x22A DUP7 DUP4 PUSH2 0x1E5 JUMP JUMPDEST SWAP6 POP DUP1 NOT DUP5 AND SWAP4 POP DUP1 DUP7 AND DUP5 OR SWAP3 POP POP POP SWAP4 SWAP3 POP POP POP JUMP JUMPDEST PUSH0 DUP2 SWAP1 POP SWAP2 SWAP1 POP JUMP JUMPDEST PUSH0 DUP2 SWAP1 POP SWAP2 SWAP1 POP JUMP JUMPDEST PUSH0 PUSH2 0x26E PUSH2 0x269 PUSH2 0x264 DUP5 PUSH2 0x242 JUMP JUMPDEST PUSH2 0x24B JUMP JUMPDEST PUSH2 0x242 JUMP JUMPDEST SWAP1 POP SWAP2 SWAP1 POP JUMP JUMPDEST PUSH0 DUP2 SWAP1 POP SWAP2 SWAP1 POP JUMP JUMPDEST PUSH2 0x287 DUP4 PUSH2 0x254 JUMP JUMPDEST PUSH2 0x29B PUSH2 0x293 DUP3 PUSH2 0x275 JUMP JUMPDEST DUP5 DUP5 SLOAD PUSH2 0x1F1 JUMP JUMPDEST DUP3 SSTORE POP POP POP POP JUMP JUMPDEST PUSH0 SWAP1 JUMP JUMPDEST PUSH2 0x2AF PUSH2 0x2A3 JUMP JUMPDEST PUSH2 0x2BA DUP2 DUP5 DUP5 PUSH2 0x27E JUMP JUMPDEST POP POP POP JUMP JUMPDEST JUMPDEST DUP2 DUP2 LT ISZERO PUSH2 0x2DD JUMPI PUSH2 0x2D2 PUSH0 DUP3 PUSH2 0x2A7 JUMP JUMPDEST PUSH1 0x1 DUP2 ADD SWAP1 POP PUSH2 0x2C0 JUMP JUMPDEST POP POP JUMP JUMPDEST PUSH1 0x1F DUP3 GT ISZERO PUSH2 0x322 JUMPI PUSH2 0x2F3 DUP2 PUSH2 0x1C4 JUMP JUMPDEST PUSH2 0x2FC DUP5 PUSH2 0x1D6 JUMP JUMPDEST DUP2 ADD PUSH1 0x20 DUP6 LT ISZERO PUSH2 0x30B JUMPI DUP2 SWAP1 POP JUMPDEST PUSH2 0x31F PUSH2 0x317 DUP6 PUSH2 0x1D6 JUMP JUMPDEST DUP4 ADD DUP3 PUSH2 0x2BF JUMP JUMPDEST POP POP JUMPDEST POP POP POP JUMP JUMPDEST PUSH0 DUP3 DUP3 SHR SWAP1 POP SWAP3 SWAP2 POP POP JUMP JUMPDEST PUSH0 PUSH2 0x342 PUSH0 NOT DUP5 PUSH1 0x8 MUL PUSH2 0x327 JUMP JUMPDEST NOT DUP1 DUP4 AND SWAP2 POP POP SWAP3 SWAP2 POP POP JUMP JUMPDEST PUSH0 PUSH2 0x35A DUP4 DUP4 PUSH2 0x333 JUMP JUMPDEST SWAP2 POP DUP3 PUSH1 0x2 MUL DUP3 OR SWAP1 POP SWAP3 SWAP2 POP POP JUMP JUMPDEST PUSH2 0x373 DUP3 PUSH2 0x130 JUMP JUMPDEST PUSH8 0xFFFFFFFFFFFFFFFF DUP2 GT ISZERO PUSH2 0x38C JUMPI PUSH2 0x38B PUSH2 0x13A JUMP JUMPDEST JUMPDEST PUSH2 0x396 DUP3 SLOAD PUSH2 0x194 JUMP JUMPDEST PUSH2 0x3A1 DUP3 DUP3 DUP6 PUSH2 0x2E1 JUMP JUMPDEST PUSH0 PUSH1 0x20 SWAP1 POP PUSH1 0x1F DUP4 GT PUSH1 0x1 DUP2 EQ PUSH2 0x3D2 JUMPI PUSH0 DUP5 ISZERO PUSH2 0x3C0 JUMPI DUP3 DUP8 ADD MLOAD SWAP1 POP JUMPDEST PUSH2 0x3CA DUP6 DUP3 PUSH2 0x34F JUMP JUMPDEST DUP7 SSTORE POP PUSH2 0x431 JUMP JUMPDEST PUSH1 0x1F NOT DUP5 AND PUSH2 0x3E0 DUP7 PUSH2 0x1C4 JUMP JUMPDEST PUSH0 JUMPDEST DUP3 DUP2 LT ISZERO PUSH2 0x407 JUMPI DUP5 DUP10 ADD MLOAD DUP3 SSTORE PUSH1 0x1 DUP3 ADD SWAP2 POP PUSH1 0x20 DUP6 ADD SWAP5 POP PUSH1 0x20 DUP2 ADD SWAP1 POP PUSH2 0x3E2 JUMP JUMPDEST DUP7 DUP4 LT ISZERO PUSH2 0x424 JUMPI DUP5 DUP10 ADD MLOAD PUSH2 0x420 PUSH1 0x1F DUP10 AND DUP3 PUSH2 0x333 JUMP JUMPDEST DUP4 SSTORE POP JUMPDEST PUSH1 0x1 PUSH1 0x2 DUP9 MUL ADD DUP9 SSTORE POP POP POP JUMPDEST POP POP POP POP POP POP JUMP JUMPDEST PUSH2 0xAE4 DUP1 PUSH2 0x446 PUSH0 CODECOPY PUSH0 RETURN INVALID PUSH1 0x80 PUSH1 0x40 MSTORE CALLVALUE DUP1 ISZERO PUSH2 0xF JUMPI PUSH0 DUP1 REVERT JUMPDEST POP PUSH1 0x4 CALLDATASIZE LT PUSH2 0x4A JUMPI PUSH0 CALLDATALOAD PUSH1 0xE0 SHR DUP1 PUSH4 0x1A3CD59A EQ PUSH2 0x4E JUMPI DUP1 PUSH4 0x8262963B EQ PUSH2 0x7E JUMPI DUP1 PUSH4 0x90FFDED8 EQ PUSH2 0x9A JUMPI DUP1 PUSH4 0xA7EF4329 EQ PUSH2 0xB6 JUMPI JUMPDEST PUSH0 DUP1 REVERT JUMPDEST PUSH2 0x68 PUSH1 0x4 DUP1 CALLDATASIZE SUB DUP2 ADD SWAP1 PUSH2 0x63 SWAP2 SWAP1 PUSH2 0x4D8 JUMP JUMPDEST PUSH2 0xD4 JUMP JUMPDEST PUSH1 0x40 MLOAD PUSH2 0x75 SWAP2 SWAP1 PUSH2 0x573 JUMP JUMPDEST PUSH1 0x40 MLOAD DUP1 SWAP2 SUB SWAP1 RETURN JUMPDEST PUSH2 0x98 PUSH1 0x4 DUP1 CALLDATASIZE SUB DUP2 ADD SWAP1 PUSH2 0x93 SWAP2 SWAP1 PUSH2 0x6BF JUMP JUMPDEST PUSH2 0x27F JUMP JUMPDEST STOP JUMPDEST PUSH2 0xB4 PUSH1 0x4 DUP1 CALLDATASIZE SUB DUP2 ADD SWAP1 PUSH2 0xAF SWAP2 SWAP1 PUSH2 0x719 JUMP JUMPDEST PUSH2 0x3C0 JUMP JUMPDEST STOP JUMPDEST PUSH2 0xBE PUSH2 0x3D3 JUMP JUMPDEST PUSH1 0x40 MLOAD PUSH2 0xCB SWAP2 SWAP1 PUSH2 0x573 JUMP JUMPDEST PUSH1 0x40 MLOAD DUP1 SWAP2 SUB SWAP1 RETURN JUMPDEST PUSH1 0x60 PUSH0 PUSH20 0xFFFFFFFFFFFFFFFFFFFFFFFFFFFFFFFFFFFFFFFF AND PUSH1 0x7 PUSH0 DUP5 DUP2 MSTORE PUSH1 0x20 ADD SWAP1 DUP2 MSTORE PUSH1 0x20 ADD PUSH0 KECCAK256 PUSH1 0x2 ADD PUSH0 SWAP1 SLOAD SWAP1 PUSH2 0x100 EXP SWAP1 DIV PUSH20 0xFFFFFFFFFFFFFFFFFFFFFFFFFFFFFFFFFFFFFFFF AND PUSH20 0xFFFFFFFFFFFFFFFFFFFFFFFFFFFFFFFFFFFFFFFF AND SUB PUSH2 0x1D4 JUMPI PUSH2 0x1CD PUSH1 0x4 DUP1 SLOAD PUSH2 0x14C SWAP1 PUSH2 0x78D JUMP JUMPDEST DUP1 PUSH1 0x1F ADD PUSH1 0x20 DUP1 SWAP2 DIV MUL PUSH1 0x20 ADD PUSH1 0x40 MLOAD SWAP1 DUP2 ADD PUSH1 0x40 MSTORE DUP1 SWAP3 SWAP2 SWAP1 DUP2 DUP2 MSTORE PUSH1 0x20 ADD DUP3 DUP1 SLOAD PUSH2 0x178 SWAP1 PUSH2 0x78D JUMP JUMPDEST DUP1 ISZERO PUSH2 0x1C3 JUMPI DUP1 PUSH1 0x1F LT PUSH2 0x19A JUMPI PUSH2 0x100 DUP1 DUP4 SLOAD DIV MUL DUP4 MSTORE SWAP2 PUSH1 0x20 ADD SWAP2 PUSH2 0x1C3 JUMP JUMPDEST DUP3 ADD SWAP2 SWAP1 PUSH0 MSTORE PUSH1 0x20 PUSH0 KECCAK256 SWAP1 JUMPDEST DUP2 SLOAD DUP2 MSTORE SWAP1 PUSH1 0x1 ADD SWAP1 PUSH1 0x20 ADD DUP1 DUP4 GT PUSH2 0x1A6 JUMPI DUP3 SWAP1 SUB PUSH1 0x1F AND DUP3 ADD SWAP2 JUMPDEST POP POP POP POP POP PUSH2 0x46B JUMP JUMPDEST SWAP1 POP PUSH2 0x27A JUMP JUMPDEST PUSH2 0x277 PUSH1 0x7 PUSH0 DUP5 DUP2 MSTORE PUSH1 0x20 ADD SWAP1 DUP2 MSTORE PUSH1 0x20 ADD PUSH0 KECCAK256 PUSH1 0x1 ADD DUP1 SLOAD PUSH2 0x1F6 SWAP1 PUSH2 0x78D JUMP JUMPDEST DUP1 PUSH1 0x1F ADD PUSH1 0x20 DUP1 SWAP2 DIV MUL PUSH1 0x20 ADD PUSH1 0x40 MLOAD SWAP1 DUP2 ADD PUSH1 0x40 MSTORE DUP1 SWAP3 SWAP2 SWAP1 DUP2 DUP2 MSTORE PUSH1 0x20 ADD DUP3 DUP1 SLOAD PUSH2 0x222 SWAP1 PUSH2 0x78D JUMP JUMPDEST DUP1 ISZERO PUSH2 0x26D JUMPI DUP1 PUSH1 0x1F LT PUSH2 0x244 JUMPI PUSH2 0x100 DUP1 DUP4 SLOAD DIV MUL DUP4 MSTORE SWAP2 PUSH1 0x20 ADD SWAP2 PUSH2 0x26D JUMP JUMPDEST DUP3 ADD SWAP2 SWAP1 PUSH0 MSTORE PUSH1 0x20 PUSH0 KECCAK256 SWAP1 JUMPDEST DUP2 SLOAD DUP2 MSTORE SWAP1 PUSH1 0x1 ADD SWAP1 PUSH1 0x20 ADD DUP1 DUP4 GT PUSH2 0x250 JUMPI DUP3 SWAP1 SUB PUSH1 0x1F AND DUP3 ADD SWAP2 JUMPDEST POP POP POP POP POP PUSH2 0x46B JUMP JUMPDEST SWAP1 POP JUMPDEST SWAP2 SWAP1 POP JUMP JUMPDEST PUSH0 PUSH1 0x40 MLOAD DUP1 PUSH1 0x60 ADD PUSH1 0x40 MSTORE DUP1 DUP4 DUP2 MSTORE PUSH1 0x20 ADD DUP5 DUP2 MSTORE PUSH1 0x20 ADD CALLER PUSH20 0xFFFFFFFFFFFFFFFFFFFFFFFFFFFFFFFFFFFFFFFF AND DUP2 MSTORE POP SWAP1 POP PUSH1 0x6 DUP2 SWAP1 DUP1 PUSH1 0x1 DUP2 SLOAD ADD DUP1 DUP3 SSTORE DUP1 SWAP2 POP POP PUSH1 0x1 SWAP1 SUB SWAP1 PUSH0 MSTORE PUSH1 0x20 PUSH0 KECCAK256 SWAP1 PUSH1 0x3 MUL ADD PUSH0 SWAP1 SWAP2 SWAP1 SWAP2 SWAP1 SWAP2 POP PUSH0 DUP3 ADD MLOAD DUP2 PUSH0 ADD SSTORE PUSH1 0x20 DUP3 ADD MLOAD DUP2 PUSH1 0x1 ADD SWAP1 DUP2 PUSH2 0x2F9 SWAP2 SWAP1 PUSH2 0x95A JUMP JUMPDEST POP PUSH1 0x40 DUP3 ADD MLOAD DUP2 PUSH1 0x2 ADD PUSH0 PUSH2 0x100 EXP DUP2 SLOAD DUP2 PUSH20 0xFFFFFFFFFFFFFFFFFFFFFFFFFFFFFFFFFFFFFFFF MUL NOT AND SWAP1 DUP4 PUSH20 0xFFFFFFFFFFFFFFFFFFFFFFFFFFFFFFFFFFFFFFFF AND MUL OR SWAP1 SSTORE POP POP POP DUP1 PUSH1 0x7 PUSH0 DUP5 DUP2 MSTORE PUSH1 0x20 ADD SWAP1 DUP2 MSTORE PUSH1 0x20 ADD PUSH0 KECCAK256 PUSH0 DUP3 ADD MLOAD DUP2 PUSH0 ADD SSTORE PUSH1 0x20 DUP3 ADD MLOAD DUP2 PUSH1 0x1 ADD SWAP1 DUP2 PUSH2 0x371 SWAP2 SWAP1 PUSH2 0x95A JUMP JUMPDEST POP PUSH1 0x40 DUP3 ADD MLOAD DUP2 PUSH1 0x2 ADD PUSH0 PUSH2 0x100 EXP DUP2 SLOAD DUP2 PUSH20 0xFFFFFFFFFFFFFFFFFFFFFFFFFFFFFFFFFFFFFFFF MUL NOT AND SWAP1 DUP4 PUSH20 0xFFFFFFFFFFFFFFFFFFFFFFFFFFFFFFFFFFFFFFFF AND MUL OR SWAP1 SSTORE POP SWAP1 POP POP POP POP POP JUMP JUMPDEST DUP1 PUSH1 0x4 SWAP1 DUP2 PUSH2 0x3CF SWAP2 SWAP1 PUSH2 0x95A JUMP JUMPDEST POP POP JUMP JUMPDEST PUSH1 0x60 PUSH2 0x466 PUSH1 0x4 DUP1 SLOAD PUSH2 0x3E5 SWAP1 PUSH2 0x78D JUMP JUMPDEST DUP1 PUSH1 0x1F ADD PUSH1 0x20 DUP1 SWAP2 DIV MUL PUSH1 0x20 ADD PUSH1 0x40 MLOAD SWAP1 DUP2 ADD PUSH1 0x40 MSTORE DUP1 SWAP3 SWAP2 SWAP1 DUP2 DUP2 MSTORE PUSH1 0x20 ADD DUP3 DUP1 SLOAD PUSH2 0x411 SWAP1 PUSH2 0x78D JUMP JUMPDEST DUP1 ISZERO PUSH2 0x45C JUMPI DUP1 PUSH1 0x1F LT PUSH2 0x433 JUMPI PUSH2 0x100 DUP1 DUP4 SLOAD DIV MUL DUP4 MSTORE SWAP2 PUSH1 0x20 ADD SWAP2 PUSH2 0x45C JUMP JUMPDEST DUP3 ADD SWAP2 SWAP1 PUSH0 MSTORE PUSH1 0x20 PUSH0 KECCAK256 SWAP1 JUMPDEST DUP2 SLOAD DUP2 MSTORE SWAP1 PUSH1 0x1 ADD SWAP1 PUSH1 0x20 ADD DUP1 DUP4 GT PUSH2 0x43F JUMPI DUP3 SWAP1 SUB PUSH1 0x1F AND DUP3 ADD SWAP2 JUMPDEST POP POP POP POP POP PUSH2 0x46B JUMP JUMPDEST SWAP1 POP SWAP1 JUMP JUMPDEST PUSH1 0x60 DUP2 PUSH1 0x40 MLOAD PUSH1 0x20 ADD PUSH2 0x47E SWAP2 SWAP1 PUSH2 0xA89 JUMP JUMPDEST PUSH1 0x40 MLOAD PUSH1 0x20 DUP2 DUP4 SUB SUB DUP2 MSTORE SWAP1 PUSH1 0x40 MSTORE SWAP1 POP SWAP2 SWAP1 POP JUMP JUMPDEST PUSH0 PUSH1 0x40 MLOAD SWAP1 POP SWAP1 JUMP JUMPDEST PUSH0 DUP1 REVERT JUMPDEST PUSH0 DUP1 REVERT JUMPDEST PUSH0 DUP2 SWAP1 POP SWAP2 SWAP1 POP JUMP JUMPDEST PUSH2 0x4B7 DUP2 PUSH2 0x4A5 JUMP JUMPDEST DUP2 EQ PUSH2 0x4C1 JUMPI PUSH0 DUP1 REVERT JUMPDEST POP JUMP JUMPDEST PUSH0 DUP2 CALLDATALOAD SWAP1 POP PUSH2 0x4D2 DUP2 PUSH2 0x4AE JUMP JUMPDEST SWAP3 SWAP2 POP POP JUMP JUMPDEST PUSH0 PUSH1 0x20 DUP3 DUP5 SUB SLT ISZERO PUSH2 0x4ED JUMPI PUSH2 0x4EC PUSH2 0x49D JUMP JUMPDEST JUMPDEST PUSH0 PUSH2 0x4FA DUP5 DUP3 DUP6 ADD PUSH2 0x4C4 JUMP JUMPDEST SWAP2 POP POP SWAP3 SWAP2 POP POP JUMP JUMPDEST PUSH0 DUP2 MLOAD SWAP1 POP SWAP2 SWAP1 POP JUMP JUMPDEST PUSH0 DUP3 DUP3 MSTORE PUSH1 0x20 DUP3 ADD SWAP1 POP SWAP3 SWAP2 POP POP JUMP JUMPDEST DUP3 DUP2 DUP4 MCOPY PUSH0 DUP4 DUP4 ADD MSTORE POP POP POP JUMP JUMPDEST PUSH0 PUSH1 0x1F NOT PUSH1 0x1F DUP4 ADD AND SWAP1 POP SWAP2 SWAP1 POP JUMP JUMPDEST PUSH0 PUSH2 0x545 DUP3 PUSH2 0x503 JUMP JUMPDEST PUSH2 0x54F DUP2 DUP6 PUSH2 0x50D JUMP JUMPDEST SWAP4 POP PUSH2 0x55F DUP2 DUP6 PUSH1 0x20 DUP7 ADD PUSH2 0x51D JUMP JUMPDEST PUSH2 0x568 DUP2 PUSH2 0x52B JUMP JUMPDEST DUP5 ADD SWAP2 POP POP SWAP3 SWAP2 POP POP JUMP JUMPDEST PUSH0 PUSH1 0x20 DUP3 ADD SWAP1 POP DUP2 DUP2 SUB PUSH0 DUP4 ADD MSTORE PUSH2 0x58B DUP2 DUP5 PUSH2 0x53B JUMP JUMPDEST SWAP1 POP SWAP3 SWAP2 POP POP JUMP JUMPDEST PUSH0 DUP1 REVERT JUMPDEST PUSH0 DUP1 REVERT JUMPDEST PUSH32 0x4E487B7100000000000000000000000000000000000000000000000000000000 PUSH0 MSTORE PUSH1 0x41 PUSH1 0x4 MSTORE PUSH1 0x24 PUSH0 REVERT JUMPDEST PUSH2 0x5D1 DUP3 PUSH2 0x52B JUMP JUMPDEST DUP2 ADD DUP2 DUP2 LT PUSH8 0xFFFFFFFFFFFFFFFF DUP3 GT OR ISZERO PUSH2 0x5F0 JUMPI PUSH2 0x5EF PUSH2 0x59B JUMP JUMPDEST JUMPDEST DUP1 PUSH1 0x40 MSTORE POP POP POP JUMP JUMPDEST PUSH0 PUSH2 0x602 PUSH2 0x494 JUMP JUMPDEST SWAP1 POP PUSH2 0x60E DUP3 DUP3 PUSH2 0x5C8 JUMP JUMPDEST SWAP2 SWAP1 POP JUMP JUMPDEST PUSH0 PUSH8 0xFFFFFFFFFFFFFFFF DUP3 GT ISZERO PUSH2 0x62D JUMPI PUSH2 0x62C PUSH2 0x59B JUMP JUMPDEST JUMPDEST PUSH2 0x636 DUP3 PUSH2 0x52B JUMP JUMPDEST SWAP1 POP PUSH1 0x20 DUP2 ADD SWAP1 POP SWAP2 SWAP1 POP JUMP JUMPDEST DUP3 DUP2 DUP4 CALLDATACOPY PUSH0 DUP4 DUP4 ADD MSTORE POP POP POP JUMP JUMPDEST PUSH0 PUSH2 0x663 PUSH2 0x65E DUP5 PUSH2 0x613 JUMP JUMPDEST PUSH2 0x5F9 JUMP JUMPDEST SWAP1 POP DUP3 DUP2 MSTORE PUSH1 0x20 DUP2 ADD DUP5 DUP5 DUP5 ADD GT ISZERO PUSH2 0x67F JUMPI PUSH2 0x67E PUSH2 0x597 JUMP JUMPDEST JUMPDEST PUSH2 0x68A DUP5 DUP3 DUP6 PUSH2 0x643 JUMP JUMPDEST POP SWAP4 SWAP3 POP POP POP JUMP JUMPDEST PUSH0 DUP3 PUSH1 0x1F DUP4 ADD SLT PUSH2 0x6A6 JUMPI PUSH2 0x6A5 PUSH2 0x593 JUMP JUMPDEST JUMPDEST DUP2 CALLDATALOAD PUSH2 0x6B6 DUP5 DUP3 PUSH1 0x20 DUP7 ADD PUSH2 0x651 JUMP JUMPDEST SWAP2 POP POP SWAP3 SWAP2 POP POP JUMP JUMPDEST PUSH0 DUP1 PUSH1 0x40 DUP4 DUP6 SUB SLT ISZERO PUSH2 0x6D5 JUMPI PUSH2 0x6D4 PUSH2 0x49D JUMP JUMPDEST JUMPDEST PUSH0 DUP4 ADD CALLDATALOAD PUSH8 0xFFFFFFFFFFFFFFFF DUP2 GT ISZERO PUSH2 0x6F2 JUMPI PUSH2 0x6F1 PUSH2 0x4A1 JUMP JUMPDEST JUMPDEST PUSH2 0x6FE DUP6 DUP3 DUP7 ADD PUSH2 0x692 JUMP JUMPDEST SWAP3 POP POP PUSH1 0x20 PUSH2 0x70F DUP6 DUP3 DUP7 ADD PUSH2 0x4C4 JUMP JUMPDEST SWAP2 POP POP SWAP3 POP SWAP3 SWAP1 POP JUMP JUMPDEST PUSH0 PUSH1 0x20 DUP3 DUP5 SUB SLT ISZERO PUSH2 0x72E JUMPI PUSH2 0x72D PUSH2 0x49D JUMP JUMPDEST JUMPDEST PUSH0 DUP3 ADD CALLDATALOAD PUSH8 0xFFFFFFFFFFFFFFFF DUP2 GT ISZERO PUSH2 0x74B JUMPI PUSH2 0x74A PUSH2 0x4A1 JUMP JUMPDEST JUMPDEST PUSH2 0x757 DUP5 DUP3 DUP6 ADD PUSH2 0x692 JUMP JUMPDEST SWAP2 POP POP SWAP3 SWAP2 POP POP JUMP JUMPDEST PUSH32 0x4E487B7100000000000000000000000000000000000000000000000000000000 PUSH0 MSTORE PUSH1 0x22 PUSH1 0x4 MSTORE PUSH1 0x24 PUSH0 REVERT JUMPDEST PUSH0 PUSH1 0x2 DUP3 DIV SWAP1 POP PUSH1 0x1 DUP3 AND DUP1 PUSH2 0x7A4 JUMPI PUSH1 0x7F DUP3 AND SWAP2 POP JUMPDEST PUSH1 0x20 DUP3 LT DUP2 SUB PUSH2 0x7B7 JUMPI PUSH2 0x7B6 PUSH2 0x760 JUMP JUMPDEST JUMPDEST POP SWAP2 SWAP1 POP JUMP JUMPDEST PUSH0 DUP2 SWAP1 POP DUP2 PUSH0 MSTORE PUSH1 0x20 PUSH0 KECCAK256 SWAP1 POP SWAP2 SWAP1 POP JUMP JUMPDEST PUSH0 PUSH1 0x20 PUSH1 0x1F DUP4 ADD DIV SWAP1 POP SWAP2 SWAP1 POP JUMP JUMPDEST PUSH0 DUP3 DUP3 SHL SWAP1 POP SWAP3 SWAP2 POP POP JUMP JUMPDEST PUSH0 PUSH1 0x8 DUP4 MUL PUSH2 0x819 PUSH32 0xFFFFFFFFFFFFFFFFFFFFFFFFFFFFFFFFFFFFFFFFFFFFFFFFFFFFFFFFFFFFFFFF DUP3 PUSH2 0x7DE JUMP JUMPDEST PUSH2 0x823 DUP7 DUP4 PUSH2 0x7DE JUMP JUMPDEST SWAP6 POP DUP1 NOT DUP5 AND SWAP4 POP DUP1 DUP7 AND DUP5 OR SWAP3 POP POP POP SWAP4 SWAP3 POP POP POP JUMP JUMPDEST PUSH0 DUP2 SWAP1 POP SWAP2 SWAP1 POP JUMP JUMPDEST PUSH0 PUSH2 0x85E PUSH2 0x859 PUSH2 0x854 DUP5 PUSH2 0x4A5 JUMP JUMPDEST PUSH2 0x83B JUMP JUMPDEST PUSH2 0x4A5 JUMP JUMPDEST SWAP1 POP SWAP2 SWAP1 POP JUMP JUMPDEST PUSH0 DUP2 SWAP1 POP SWAP2 SWAP1 POP JUMP JUMPDEST PUSH2 0x877 DUP4 PUSH2 0x844 JUMP JUMPDEST PUSH2 0x88B PUSH2 0x883 DUP3 PUSH2 0x865 JUMP JUMPDEST DUP5 DUP5 SLOAD PUSH2 0x7EA JUMP JUMPDEST DUP3 SSTORE POP POP POP POP JUMP JUMPDEST PUSH0 SWAP1 JUMP JUMPDEST PUSH2 0x89F PUSH2 0x893 JUMP JUMPDEST PUSH2 0x8AA DUP2 DUP5 DUP5 PUSH2 0x86E JUMP JUMPDEST POP POP POP JUMP JUMPDEST JUMPDEST DUP2 DUP2 LT ISZERO PUSH2 0x8CD JUMPI PUSH2 0x8C2 PUSH0 DUP3 PUSH2 0x897 JUMP JUMPDEST PUSH1 0x1 DUP2 ADD SWAP1 POP PUSH2 0x8B0 JUMP JUMPDEST POP POP JUMP JUMPDEST PUSH1 0x1F DUP3 GT ISZERO PUSH2 0x912 JUMPI PUSH2 0x8E3 DUP2 PUSH2 0x7BD JUMP JUMPDEST PUSH2 0x8EC DUP5 PUSH2 0x7CF JUMP JUMPDEST DUP2 ADD PUSH1 0x20 DUP6 LT ISZERO PUSH2 0x8FB JUMPI DUP2 SWAP1 POP JUMPDEST PUSH2 0x90F PUSH2 0x907 DUP6 PUSH2 0x7CF JUMP JUMPDEST DUP4 ADD DUP3 PUSH2 0x8AF JUMP JUMPDEST POP POP JUMPDEST POP POP POP JUMP JUMPDEST PUSH0 DUP3 DUP3 SHR SWAP1 POP SWAP3 SWAP2 POP POP JUMP JUMPDEST PUSH0 PUSH2 0x932 PUSH0 NOT DUP5 PUSH1 0x8 MUL PUSH2 0x917 JUMP JUMPDEST NOT DUP1 DUP4 AND SWAP2 POP POP SWAP3 SWAP2 POP POP JUMP JUMPDEST PUSH0 PUSH2 0x94A DUP4 DUP4 PUSH2 0x923 JUMP JUMPDEST SWAP2 POP DUP3 PUSH1 0x2 MUL DUP3 OR SWAP1 POP SWAP3 SWAP2 POP POP JUMP JUMPDEST PUSH2 0x963 DUP3 PUSH2 0x503 JUMP JUMPDEST PUSH8 0xFFFFFFFFFFFFFFFF DUP2 GT ISZERO PUSH2 0x97C JUMPI PUSH2 0x97B PUSH2 0x59B JUMP JUMPDEST JUMPDEST PUSH2 0x986 DUP3 SLOAD PUSH2 0x78D JUMP JUMPDEST PUSH2 0x991 DUP3 DUP3 DUP6 PUSH2 0x8D1 JUMP JUMPDEST PUSH0 PUSH1 0x20 SWAP1 POP PUSH1 0x1F DUP4 GT PUSH1 0x1 DUP2 EQ PUSH2 0x9C2 JUMPI PUSH0 DUP5 ISZERO PUSH2 0x9B0 JUMPI DUP3 DUP8 ADD MLOAD SWAP1 POP JUMPDEST PUSH2 0x9BA DUP6 DUP3 PUSH2 0x93F JUMP JUMPDEST DUP7 SSTORE POP PUSH2 0xA21 JUMP JUMPDEST PUSH1 0x1F NOT DUP5 AND PUSH2 0x9D0 DUP7 PUSH2 0x7BD JUMP JUMPDEST PUSH0 JUMPDEST DUP3 DUP2 LT ISZERO PUSH2 0x9F7 JUMPI DUP5 DUP10 ADD MLOAD DUP3 SSTORE PUSH1 0x1 DUP3 ADD SWAP2 POP PUSH1 0x20 DUP6 ADD SWAP5 POP PUSH1 0x20 DUP2 ADD SWAP1 POP PUSH2 0x9D2 JUMP JUMPDEST DUP7 DUP4 LT ISZERO PUSH2 0xA14 JUMPI DUP5 DUP10 ADD MLOAD PUSH2 0xA10 PUSH1 0x1F DUP10 AND DUP3 PUSH2 0x923 JUMP JUMPDEST DUP4 SSTORE POP JUMPDEST PUSH1 0x1 PUSH1 0x2 DUP9 MUL ADD DUP9 SSTORE POP POP POP JUMPDEST POP POP POP POP POP POP JUMP JUMPDEST PUSH0 DUP2 SWAP1 POP SWAP3 SWAP2 POP POP JUMP JUMPDEST PUSH0 PUSH2 0xA3D DUP3 PUSH2 0x503 JUMP JUMPDEST PUSH2 0xA47 DUP2 DUP6 PUSH2 0xA29 JUMP JUMPDEST SWAP4 POP PUSH2 0xA57 DUP2 DUP6 PUSH1 0x20 DUP7 ADD PUSH2 0x51D JUMP JUMPDEST DUP1 DUP5 ADD SWAP2 POP POP SWAP3 SWAP2 POP POP JUMP JUMPDEST PUSH32 0x66726F6D204E6577277320636F6E74726163742E000000000000000000000000 DUP2 MSTORE POP JUMP JUMPDEST PUSH0 PUSH2 0xA94 DUP3 DUP5 PUSH2 0xA33 JUMP JUMPDEST SWAP2 POP PUSH2 0xA9F DUP3 PUSH2 0xA63 JUMP JUMPDEST PUSH1 0x14 DUP3 ADD SWAP2 POP DUP2 SWAP1 POP SWAP3 SWAP2 POP POP JUMP INVALID LOG2 PUSH5 0x6970667358 0x22 SLT KECCAK256 0xB5 0xBE 0xC7 SIGNEXTEND CODESIZE 0xD6 PUSH18 0x6CA39CA1283E2AE4C6E3178AF2118B7FDCB9 MSIZE PUSH13 0x966419E23564736F6C63430008 BYTE STOP CALLER "
				},
				"gasEstimates": {
					"creation": {
						"codeDepositCost": "557600",
						"executionCost": "infinite",
						"totalCost": "infinite"
					},
					"external": {
						"getHelloWorld()": "infinite",
						"getInfo(uint256)": "infinite",
						"setHelloWorld(string)": "infinite",
						"setInfo(string,uint256)": "infinite"
					},
					"internal": {
						"addInfo(string memory)": "infinite"
					}
				},
				"methodIdentifiers": {
					"getHelloWorld()": "a7ef4329",
					"getInfo(uint256)": "1a3cd59a",
					"setHelloWorld(string)": "90ffded8",
					"setInfo(string,uint256)": "8262963b"
				}
			},
			"storageLayout": {
				"storage": [
					{
						"astId": 4,
						"contract": "demo1/helloworld.sol:Helloworld",
						"label": "isBool",
						"offset": 0,
						"slot": "0",
						"type": "t_bool"
					},
					{
						"astId": 7,
						"contract": "demo1/helloworld.sol:Helloworld",
						"label": "uintStr",
						"offset": 1,
						"slot": "0",
						"type": "t_uint8"
					},
					{
						"astId": 10,
						"contract": "demo1/helloworld.sol:Helloworld",
						"label": "uintStr2",
						"offset": 0,
						"slot": "1",
						"type": "t_uint256"
					},
					{
						"astId": 14,
						"contract": "demo1/helloworld.sol:Helloworld",
						"label": "intStr",
						"offset": 0,
						"slot": "2",
						"type": "t_int256"
					},
					{
						"astId": 17,
						"contract": "demo1/helloworld.sol:Helloworld",
						"label": "bytesStr",
						"offset": 0,
						"slot": "3",
						"type": "t_bytes32"
					},
					{
						"astId": 20,
						"contract": "demo1/helloworld.sol:Helloworld",
						"label": "strStr",
						"offset": 0,
						"slot": "4",
						"type": "t_string_storage"
					},
					{
						"astId": 23,
						"contract": "demo1/helloworld.sol:Helloworld",
						"label": "addrVar",
						"offset": 0,
						"slot": "5",
						"type": "t_address"
					},
					{
						"astId": 69,
						"contract": "demo1/helloworld.sol:Helloworld",
						"label": "infos",
						"offset": 0,
						"slot": "6",
						"type": "t_array(t_struct(Info)65_storage)dyn_storage"
					},
					{
						"astId": 74,
						"contract": "demo1/helloworld.sol:Helloworld",
						"label": "infoMapping",
						"offset": 0,
						"slot": "7",
						"type": "t_mapping(t_uint256,t_struct(Info)65_storage)"
					}
				],
				"types": {
					"t_address": {
						"encoding": "inplace",
						"label": "address",
						"numberOfBytes": "20"
					},
					"t_array(t_struct(Info)65_storage)dyn_storage": {
						"base": "t_struct(Info)65_storage",
						"encoding": "dynamic_array",
						"label": "struct Helloworld.Info[]",
						"numberOfBytes": "32"
					},
					"t_bool": {
						"encoding": "inplace",
						"label": "bool",
						"numberOfBytes": "1"
					},
					"t_bytes32": {
						"encoding": "inplace",
						"label": "bytes32",
						"numberOfBytes": "32"
					},
					"t_int256": {
						"encoding": "inplace",
						"label": "int256",
						"numberOfBytes": "32"
					},
					"t_mapping(t_uint256,t_struct(Info)65_storage)": {
						"encoding": "mapping",
						"key": "t_uint256",
						"label": "mapping(uint256 => struct Helloworld.Info)",
						"numberOfBytes": "32",
						"value": "t_struct(Info)65_storage"
					},
					"t_string_storage": {
						"encoding": "bytes",
						"label": "string",
						"numberOfBytes": "32"
					},
					"t_struct(Info)65_storage": {
						"encoding": "inplace",
						"label": "struct Helloworld.Info",
						"members": [
							{
								"astId": 60,
								"contract": "demo1/helloworld.sol:Helloworld",
								"label": "id",
								"offset": 0,
								"slot": "0",
								"type": "t_uint256"
							},
							{
								"astId": 62,
								"contract": "demo1/helloworld.sol:Helloworld",
								"label": "phrase",
								"offset": 0,
								"slot": "1",
								"type": "t_string_storage"
							},
							{
								"astId": 64,
								"contract": "demo1/helloworld.sol:Helloworld",
								"label": "addr",
								"offset": 0,
								"slot": "2",
								"type": "t_address"
							}
						],
						"numberOfBytes": "96"
					},
					"t_uint256": {
						"encoding": "inplace",
						"label": "uint256",
						"numberOfBytes": "32"
					},
					"t_uint8": {
						"encoding": "inplace",
						"label": "uint8",
						"numberOfBytes": "1"
					}
				}
			},
			"userdoc": {
				"kind": "user",
				"methods": {},
				"version": 1
			}
		}
	}
}