{
	"data": {
		"bytecode": {
			"linkReferences": {},
			"object": "6080604052348015600e575f80fd5b506113ab8061001c5f395ff3fe608060405234801561000f575f80fd5b5060043610610034575f3560e01c80630191a62e146100385780631da79a1114610054575b5f80fd5b610052600480360381019061004d9190610422565b610084565b005b61006e6004803603810190610069919061047c565b6101f2565b60405161007b9190610507565b60405180910390f35b60405161009090610295565b604051809103905ff0801580156100a9573d5f803e3d5ffd5b505f806101000a81548173ffffffffffffffffffffffffffffffffffffffff021916908373ffffffffffffffffffffffffffffffffffffffff1602179055505f8054906101000a900473ffffffffffffffffffffffffffffffffffffffff1673ffffffffffffffffffffffffffffffffffffffff16638262963b83836040518363ffffffff1660e01b8152600401610142929190610536565b5f604051808303815f87803b158015610159575f80fd5b505af115801561016b573d5f803e3d5ffd5b5050505060015f8054906101000a900473ffffffffffffffffffffffffffffffffffffffff16908060018154018082558091505060019003905f5260205f20015f9091909190916101000a81548173ffffffffffffffffffffffffffffffffffffffff021916908373ffffffffffffffffffffffffffffffffffffffff1602179055505050565b60605f8054906101000a900473ffffffffffffffffffffffffffffffffffffffff1673ffffffffffffffffffffffffffffffffffffffff1663aa7458e7836040518263ffffffff1660e01b815260040161024c9190610564565b5f60405180830381865afa158015610266573d5f803e3d5ffd5b505050506040513d5f823e3d601f19601f8201168201806040525081019061028e91906105eb565b9050919050565b610d438061063383390190565b5f604051905090565b5f80fd5b5f80fd5b5f80fd5b5f80fd5b5f601f19601f8301169050919050565b7f4e487b71000000000000000000000000000000000000000000000000000000005f52604160045260245ffd5b610301826102bb565b810181811067ffffffffffffffff821117156103205761031f6102cb565b5b80604052505050565b5f6103326102a2565b905061033e82826102f8565b919050565b5f67ffffffffffffffff82111561035d5761035c6102cb565b5b610366826102bb565b9050602081019050919050565b828183375f83830152505050565b5f61039361038e84610343565b610329565b9050828152602081018484840111156103af576103ae6102b7565b5b6103ba848285610373565b509392505050565b5f82601f8301126103d6576103d56102b3565b5b81356103e6848260208601610381565b91505092915050565b5f819050919050565b610401816103ef565b811461040b575f80fd5b50565b5f8135905061041c816103f8565b92915050565b5f8060408385031215610438576104376102ab565b5b5f83013567ffffffffffffffff811115610455576104546102af565b5b610461858286016103c2565b92505060206104728582860161040e565b9150509250929050565b5f60208284031215610491576104906102ab565b5b5f61049e8482850161040e565b91505092915050565b5f81519050919050565b5f82825260208201905092915050565b8281835e5f83830152505050565b5f6104d9826104a7565b6104e381856104b1565b93506104f38185602086016104c1565b6104fc816102bb565b840191505092915050565b5f6020820190508181035f83015261051f81846104cf565b905092915050565b610530816103ef565b82525050565b5f6040820190508181035f83015261054e81856104cf565b905061055d6020830184610527565b9392505050565b5f6020820190506105775f830184610527565b92915050565b5f61058f61058a84610343565b610329565b9050828152602081018484840111156105ab576105aa6102b7565b5b6105b68482856104c1565b509392505050565b5f82601f8301126105d2576105d16102b3565b5b81516105e284826020860161057d565b91505092915050565b5f60208284031215610600576105ff6102ab565b5b5f82015167ffffffffffffffff81111561061d5761061c6102af565b5b610629848285016105be565b9150509291505056fe60806040526040518060400160405280600981526020017f48656c6c6f2042544300000000000000000000000000000000000000000000008152505f90816100479190610293565b50348015610053575f80fd5b50610362565b5f81519050919050565b7f4e487b71000000000000000000000000000000000000000000000000000000005f52604160045260245ffd5b7f4e487b71000000000000000000000000000000000000000000000000000000005f52602260045260245ffd5b5f60028204905060018216806100d457607f821691505b6020821081036100e7576100e6610090565b5b50919050565b5f819050815f5260205f209050919050565b5f6020601f8301049050919050565b5f82821b905092915050565b5f600883026101497fffffffffffffffffffffffffffffffffffffffffffffffffffffffffffffffff8261010e565b610153868361010e565b95508019841693508086168417925050509392505050565b5f819050919050565b5f819050919050565b5f61019761019261018d8461016b565b610174565b61016b565b9050919050565b5f819050919050565b6101b08361017d565b6101c46101bc8261019e565b84845461011a565b825550505050565b5f90565b6101d86101cc565b6101e38184846101a7565b505050565b5b81811015610206576101fb5f826101d0565b6001810190506101e9565b5050565b601f82111561024b5761021c816100ed565b610225846100ff565b81016020851015610234578190505b610248610240856100ff565b8301826101e8565b50505b505050565b5f82821c905092915050565b5f61026b5f1984600802610250565b1980831691505092915050565b5f610283838361025c565b9150826002028217905092915050565b61029c82610059565b67ffffffffffffffff8111156102b5576102b4610063565b5b6102bf82546100bd565b6102ca82828561020a565b5f60209050601f8311600181146102fb575f84156102e9578287015190505b6102f38582610278565b86555061035a565b601f198416610309866100ed565b5f5b828110156103305784890151825560018201915060208501945060208101905061030b565b8683101561034d5784890151610349601f89168261025c565b8355505b6001600288020188555050505b505050505050565b6109d48061036f5f395ff3fe608060405234801561000f575f80fd5b506004361061003f575f3560e01c80631a3cd59a146100435780638262963b14610073578063aa7458e71461008f575b5f80fd5b61005d6004803603810190610058919061040f565b6100bf565b60405161006a91906104aa565b60405180910390f35b61008d600480360381019061008891906105f6565b610259565b005b6100a960048036038101906100a4919061040f565b61039a565b6040516100b691906104aa565b60405180910390f35b60605f73ffffffffffffffffffffffffffffffffffffffff1660025f8481526020019081526020015f206002015f9054906101000a900473ffffffffffffffffffffffffffffffffffffffff1673ffffffffffffffffffffffffffffffffffffffff16036101b6575f80546101339061067d565b80601f016020809104026020016040519081016040528092919081815260200182805461015f9061067d565b80156101aa5780601f10610181576101008083540402835291602001916101aa565b820191905f5260205f20905b81548152906001019060200180831161018d57829003601f168201915b50505050509050610254565b60025f8381526020019081526020015f2060010180546101d59061067d565b80601f01602080910402602001604051908101604052809291908181526020018280546102019061067d565b801561024c5780601f106102235761010080835404028352916020019161024c565b820191905f5260205f20905b81548152906001019060200180831161022f57829003601f168201915b505050505090505b919050565b5f60405180606001604052808381526020018481526020013373ffffffffffffffffffffffffffffffffffffffff168152509050600181908060018154018082558091505060019003905f5260205f2090600302015f909190919091505f820151815f015560208201518160010190816102d3919061084a565b506040820151816002015f6101000a81548173ffffffffffffffffffffffffffffffffffffffff021916908373ffffffffffffffffffffffffffffffffffffffff16021790555050508060025f8481526020019081526020015f205f820151815f0155602082015181600101908161034b919061084a565b506040820151816002015f6101000a81548173ffffffffffffffffffffffffffffffffffffffff021916908373ffffffffffffffffffffffffffffffffffffffff160217905550905050505050565b60606103a5826100bf565b6040516020016103b59190610979565b6040516020818303038152906040529050919050565b5f604051905090565b5f80fd5b5f80fd5b5f819050919050565b6103ee816103dc565b81146103f8575f80fd5b50565b5f81359050610409816103e5565b92915050565b5f60208284031215610424576104236103d4565b5b5f610431848285016103fb565b91505092915050565b5f81519050919050565b5f82825260208201905092915050565b8281835e5f83830152505050565b5f601f19601f8301169050919050565b5f61047c8261043a565b6104868185610444565b9350610496818560208601610454565b61049f81610462565b840191505092915050565b5f6020820190508181035f8301526104c28184610472565b905092915050565b5f80fd5b5f80fd5b7f4e487b71000000000000000000000000000000000000000000000000000000005f52604160045260245ffd5b61050882610462565b810181811067ffffffffffffffff82111715610527576105266104d2565b5b80604052505050565b5f6105396103cb565b905061054582826104ff565b919050565b5f67ffffffffffffffff821115610564576105636104d2565b5b61056d82610462565b9050602081019050919050565b828183375f83830152505050565b5f61059a6105958461054a565b610530565b9050828152602081018484840111156105b6576105b56104ce565b5b6105c184828561057a565b509392505050565b5f82601f8301126105dd576105dc6104ca565b5b81356105ed848260208601610588565b91505092915050565b5f806040838503121561060c5761060b6103d4565b5b5f83013567ffffffffffffffff811115610629576106286103d8565b5b610635858286016105c9565b9250506020610646858286016103fb565b9150509250929050565b7f4e487b71000000000000000000000000000000000000000000000000000000005f52602260045260245ffd5b5f600282049050600182168061069457607f821691505b6020821081036106a7576106a6610650565b5b50919050565b5f819050815f5260205f209050919050565b5f6020601f8301049050919050565b5f82821b905092915050565b5f600883026107097fffffffffffffffffffffffffffffffffffffffffffffffffffffffffffffffff826106ce565b61071386836106ce565b95508019841693508086168417925050509392505050565b5f819050919050565b5f61074e610749610744846103dc565b61072b565b6103dc565b9050919050565b5f819050919050565b61076783610734565b61077b61077382610755565b8484546106da565b825550505050565b5f90565b61078f610783565b61079a81848461075e565b505050565b5b818110156107bd576107b25f82610787565b6001810190506107a0565b5050565b601f821115610802576107d3816106ad565b6107dc846106bf565b810160208510156107eb578190505b6107ff6107f7856106bf565b83018261079f565b50505b505050565b5f82821c905092915050565b5f6108225f1984600802610807565b1980831691505092915050565b5f61083a8383610813565b9150826002028217905092915050565b6108538261043a565b67ffffffffffffffff81111561086c5761086b6104d2565b5b610876825461067d565b6108818282856107c1565b5f60209050601f8311600181146108b2575f84156108a0578287015190505b6108aa858261082f565b865550610911565b601f1984166108c0866106ad565b5f5b828110156108e7578489015182556001820191506020850194506020810190506108c2565b868310156109045784890151610900601f891682610813565b8355505b6001600288020188555050505b505050505050565b5f81905092915050565b5f61092d8261043a565b6109378185610919565b9350610947818560208601610454565b80840191505092915050565b7f2068656c6c6f206e657700000000000000000000000000000000000000000000815250565b5f6109848284610923565b915061098f82610953565b600a820191508190509291505056fea2646970667358221220621e8d0dedab79f540e49d991bc5bca168ec94f05e6cf280564083c1e0d4003064736f6c634300081a0033a264697066735822122049c21c3f31e13f576a55cd4ab3164d3ab9036dab8d7111d39c75e185a096f3fd64736f6c634300081a0033",
			"opcodes": "PUSH1 0x80 PUSH1 0x40 MSTORE CALLVALUE DUP1 ISZERO PUSH1 0xE JUMPI PUSH0 DUP1 REVERT JUMPDEST POP PUSH2 0x13AB DUP1 PUSH2 0x1C PUSH0 CODECOPY PUSH0 RETURN INVALID PUSH1 0x80 PUSH1 0x40 MSTORE CALLVALUE DUP1 ISZERO PUSH2 0xF JUMPI PUSH0 DUP1 REVERT JUMPDEST POP PUSH1 0x4 CALLDATASIZE LT PUSH2 0x34 JUMPI PUSH0 CALLDATALOAD PUSH1 0xE0 SHR DUP1 PUSH4 0x191A62E EQ PUSH2 0x38 JUMPI DUP1 PUSH4 0x1DA79A11 EQ PUSH2 0x54 JUMPI JUMPDEST PUSH0 DUP1 REVERT JUMPDEST PUSH2 0x52 PUSH1 0x4 DUP1 CALLDATASIZE SUB DUP2 ADD SWAP1 PUSH2 0x4D SWAP2 SWAP1 PUSH2 0x422 JUMP JUMPDEST PUSH2 0x84 JUMP JUMPDEST STOP JUMPDEST PUSH2 0x6E PUSH1 0x4 DUP1 CALLDATASIZE SUB DUP2 ADD SWAP1 PUSH2 0x69 SWAP2 SWAP1 PUSH2 0x47C JUMP JUMPDEST PUSH2 0x1F2 JUMP JUMPDEST PUSH1 0x40 MLOAD PUSH2 0x7B SWAP2 SWAP1 PUSH2 0x507 JUMP JUMPDEST PUSH1 0x40 MLOAD DUP1 SWAP2 SUB SWAP1 RETURN JUMPDEST PUSH1 0x40 MLOAD PUSH2 0x90 SWAP1 PUSH2 0x295 JUMP JUMPDEST PUSH1 0x40 MLOAD DUP1 SWAP2 SUB SWAP1 PUSH0 CREATE DUP1 ISZERO DUP1 ISZERO PUSH2 0xA9 JUMPI RETURNDATASIZE PUSH0 DUP1 RETURNDATACOPY RETURNDATASIZE PUSH0 REVERT JUMPDEST POP PUSH0 DUP1 PUSH2 0x100 EXP DUP2 SLOAD DUP2 PUSH20 0xFFFFFFFFFFFFFFFFFFFFFFFFFFFFFFFFFFFFFFFF MUL NOT AND SWAP1 DUP4 PUSH20 0xFFFFFFFFFFFFFFFFFFFFFFFFFFFFFFFFFFFFFFFF AND MUL OR SWAP1 SSTORE POP PUSH0 DUP1 SLOAD SWAP1 PUSH2 0x100 EXP SWAP1 DIV PUSH20 0xFFFFFFFFFFFFFFFFFFFFFFFFFFFFFFFFFFFFFFFF AND PUSH20 0xFFFFFFFFFFFFFFFFFFFFFFFFFFFFFFFFFFFFFFFF AND PUSH4 0x8262963B DUP4 DUP4 PUSH1 0x40 MLOAD DUP4 PUSH4 0xFFFFFFFF AND PUSH1 0xE0 SHL DUP2 MSTORE PUSH1 0x4 ADD PUSH2 0x142 SWAP3 SWAP2 SWAP1 PUSH2 0x536 JUMP JUMPDEST PUSH0 PUSH1 0x40 MLOAD DUP1 DUP4 SUB DUP2 PUSH0 DUP8 DUP1 EXTCODESIZE ISZERO DUP1 ISZERO PUSH2 0x159 JUMPI PUSH0 DUP1 REVERT JUMPDEST POP GAS CALL ISZERO DUP1 ISZERO PUSH2 0x16B JUMPI RETURNDATASIZE PUSH0 DUP1 RETURNDATACOPY RETURNDATASIZE PUSH0 REVERT JUMPDEST POP POP POP POP PUSH1 0x1 PUSH0 DUP1 SLOAD SWAP1 PUSH2 0x100 EXP SWAP1 DIV PUSH20 0xFFFFFFFFFFFFFFFFFFFFFFFFFFFFFFFFFFFFFFFF AND SWAP1 DUP1 PUSH1 0x1 DUP2 SLOAD ADD DUP1 DUP3 SSTORE DUP1 SWAP2 POP POP PUSH1 0x1 SWAP1 SUB SWAP1 PUSH0 MSTORE PUSH1 0x20 PUSH0 KECCAK256 ADD PUSH0 SWAP1 SWAP2 SWAP1 SWAP2 SWAP1 SWAP2 PUSH2 0x100 EXP DUP2 SLOAD DUP2 PUSH20 0xFFFFFFFFFFFFFFFFFFFFFFFFFFFFFFFFFFFFFFFF MUL NOT AND SWAP1 DUP4 PUSH20 0xFFFFFFFFFFFFFFFFFFFFFFFFFFFFFFFFFFFFFFFF AND MUL OR SWAP1 SSTORE POP POP POP JUMP JUMPDEST PUSH1 0x60 PUSH0 DUP1 SLOAD SWAP1 PUSH2 0x100 EXP SWAP1 DIV PUSH20 0xFFFFFFFFFFFFFFFFFFFFFFFFFFFFFFFFFFFFFFFF AND PUSH20 0xFFFFFFFFFFFFFFFFFFFFFFFFFFFFFFFFFFFFFFFF AND PUSH4 0xAA7458E7 DUP4 PUSH1 0x40 MLOAD DUP3 PUSH4 0xFFFFFFFF AND PUSH1 0xE0 SHL DUP2 MSTORE PUSH1 0x4 ADD PUSH2 0x24C SWAP2 SWAP1 PUSH2 0x564 JUMP JUMPDEST PUSH0 PUSH1 0x40 MLOAD DUP1 DUP4 SUB DUP2 DUP7 GAS STATICCALL ISZERO DUP1 ISZERO PUSH2 0x266 JUMPI RETURNDATASIZE PUSH0 DUP1 RETURNDATACOPY RETURNDATASIZE PUSH0 REVERT JUMPDEST POP POP POP POP PUSH1 0x40 MLOAD RETURNDATASIZE PUSH0 DUP3 RETURNDATACOPY RETURNDATASIZE PUSH1 0x1F NOT PUSH1 0x1F DUP3 ADD AND DUP3 ADD DUP1 PUSH1 0x40 MSTORE POP DUP2 ADD SWAP1 PUSH2 0x28E SWAP2 SWAP1 PUSH2 0x5EB JUMP JUMPDEST SWAP1 POP SWAP2 SWAP1 POP JUMP JUMPDEST PUSH2 0xD43 DUP1 PUSH2 0x633 DUP4 CODECOPY ADD SWAP1 JUMP JUMPDEST PUSH0 PUSH1 0x40 MLOAD SWAP1 POP SWAP1 JUMP JUMPDEST PUSH0 DUP1 REVERT JUMPDEST PUSH0 DUP1 REVERT JUMPDEST PUSH0 DUP1 REVERT JUMPDEST PUSH0 DUP1 REVERT JUMPDEST PUSH0 PUSH1 0x1F NOT PUSH1 0x1F DUP4 ADD AND SWAP1 POP SWAP2 SWAP1 POP JUMP JUMPDEST PUSH32 0x4E487B7100000000000000000000000000000000000000000000000000000000 PUSH0 MSTORE PUSH1 0x41 PUSH1 0x4 MSTORE PUSH1 0x24 PUSH0 REVERT JUMPDEST PUSH2 0x301 DUP3 PUSH2 0x2BB JUMP JUMPDEST DUP2 ADD DUP2 DUP2 LT PUSH8 0xFFFFFFFFFFFFFFFF DUP3 GT OR ISZERO PUSH2 0x320 JUMPI PUSH2 0x31F PUSH2 0x2CB JUMP JUMPDEST JUMPDEST DUP1 PUSH1 0x40 MSTORE POP POP POP JUMP JUMPDEST PUSH0 PUSH2 0x332 PUSH2 0x2A2 JUMP JUMPDEST SWAP1 POP PUSH2 0x33E DUP3 DUP3 PUSH2 0x2F8 JUMP JUMPDEST SWAP2 SWAP1 POP JUMP JUMPDEST PUSH0 PUSH8 0xFFFFFFFFFFFFFFFF DUP3 GT ISZERO PUSH2 0x35D JUMPI PUSH2 0x35C PUSH2 0x2CB JUMP JUMPDEST JUMPDEST PUSH2 0x366 DUP3 PUSH2 0x2BB JUMP JUMPDEST SWAP1 POP PUSH1 0x20 DUP2 ADD SWAP1 POP SWAP2 SWAP1 POP JUMP JUMPDEST DUP3 DUP2 DUP4 CALLDATACOPY PUSH0 DUP4 DUP4 ADD MSTORE POP POP POP JUMP JUMPDEST PUSH0 PUSH2 0x393 PUSH2 0x38E DUP5 PUSH2 0x343 JUMP JUMPDEST PUSH2 0x329 JUMP JUMPDEST SWAP1 POP DUP3 DUP2 MSTORE PUSH1 0x20 DUP2 ADD DUP5 DUP5 DUP5 ADD GT ISZERO PUSH2 0x3AF JUMPI PUSH2 0x3AE PUSH2 0x2B7 JUMP JUMPDEST JUMPDEST PUSH2 0x3BA DUP5 DUP3 DUP6 PUSH2 0x373 JUMP JUMPDEST POP SWAP4 SWAP3 POP POP POP JUMP JUMPDEST PUSH0 DUP3 PUSH1 0x1F DUP4 ADD SLT PUSH2 0x3D6 JUMPI PUSH2 0x3D5 PUSH2 0x2B3 JUMP JUMPDEST JUMPDEST DUP2 CALLDATALOAD PUSH2 0x3E6 DUP5 DUP3 PUSH1 0x20 DUP7 ADD PUSH2 0x381 JUMP JUMPDEST SWAP2 POP POP SWAP3 SWAP2 POP POP JUMP JUMPDEST PUSH0 DUP2 SWAP1 POP SWAP2 SWAP1 POP JUMP JUMPDEST PUSH2 0x401 DUP2 PUSH2 0x3EF JUMP JUMPDEST DUP2 EQ PUSH2 0x40B JUMPI PUSH0 DUP1 REVERT JUMPDEST POP JUMP JUMPDEST PUSH0 DUP2 CALLDATALOAD SWAP1 POP PUSH2 0x41C DUP2 PUSH2 0x3F8 JUMP JUMPDEST SWAP3 SWAP2 POP POP JUMP JUMPDEST PUSH0 DUP1 PUSH1 0x40 DUP4 DUP6 SUB SLT ISZERO PUSH2 0x438 JUMPI PUSH2 0x437 PUSH2 0x2AB JUMP JUMPDEST JUMPDEST PUSH0 DUP4 ADD CALLDATALOAD PUSH8 0xFFFFFFFFFFFFFFFF DUP2 GT ISZERO PUSH2 0x455 JUMPI PUSH2 0x454 PUSH2 0x2AF JUMP JUMPDEST JUMPDEST PUSH2 0x461 DUP6 DUP3 DUP7 ADD PUSH2 0x3C2 JUMP JUMPDEST SWAP3 POP POP PUSH1 0x20 PUSH2 0x472 DUP6 DUP3 DUP7 ADD PUSH2 0x40E JUMP JUMPDEST SWAP2 POP POP SWAP3 POP SWAP3 SWAP1 POP JUMP JUMPDEST PUSH0 PUSH1 0x20 DUP3 DUP5 SUB SLT ISZERO PUSH2 0x491 JUMPI PUSH2 0x490 PUSH2 0x2AB JUMP JUMPDEST JUMPDEST PUSH0 PUSH2 0x49E DUP5 DUP3 DUP6 ADD PUSH2 0x40E JUMP JUMPDEST SWAP2 POP POP SWAP3 SWAP2 POP POP JUMP JUMPDEST PUSH0 DUP2 MLOAD SWAP1 POP SWAP2 SWAP1 POP JUMP JUMPDEST PUSH0 DUP3 DUP3 MSTORE PUSH1 0x20 DUP3 ADD SWAP1 POP SWAP3 SWAP2 POP POP JUMP JUMPDEST DUP3 DUP2 DUP4 MCOPY PUSH0 DUP4 DUP4 ADD MSTORE POP POP POP JUMP JUMPDEST PUSH0 PUSH2 0x4D9 DUP3 PUSH2 0x4A7 JUMP JUMPDEST PUSH2 0x4E3 DUP2 DUP6 PUSH2 0x4B1 JUMP JUMPDEST SWAP4 POP PUSH2 0x4F3 DUP2 DUP6 PUSH1 0x20 DUP7 ADD PUSH2 0x4C1 JUMP JUMPDEST PUSH2 0x4FC DUP2 PUSH2 0x2BB JUMP JUMPDEST DUP5 ADD SWAP2 POP POP SWAP3 SWAP2 POP POP JUMP JUMPDEST PUSH0 PUSH1 0x20 DUP3 ADD SWAP1 POP DUP2 DUP2 SUB PUSH0 DUP4 ADD MSTORE PUSH2 0x51F DUP2 DUP5 PUSH2 0x4CF JUMP JUMPDEST SWAP1 POP SWAP3 SWAP2 POP POP JUMP JUMPDEST PUSH2 0x530 DUP2 PUSH2 0x3EF JUMP JUMPDEST DUP3 MSTORE POP POP JUMP JUMPDEST PUSH0 PUSH1 0x40 DUP3 ADD SWAP1 POP DUP2 DUP2 SUB PUSH0 DUP4 ADD MSTORE PUSH2 0x54E DUP2 DUP6 PUSH2 0x4CF JUMP JUMPDEST SWAP1 POP PUSH2 0x55D PUSH1 0x20 DUP4 ADD DUP5 PUSH2 0x527 JUMP JUMPDEST SWAP4 SWAP3 POP POP POP JUMP JUMPDEST PUSH0 PUSH1 0x20 DUP3 ADD SWAP1 POP PUSH2 0x577 PUSH0 DUP4 ADD DUP5 PUSH2 0x527 JUMP JUMPDEST SWAP3 SWAP2 POP POP JUMP JUMPDEST PUSH0 PUSH2 0x58F PUSH2 0x58A DUP5 PUSH2 0x343 JUMP JUMPDEST PUSH2 0x329 JUMP JUMPDEST SWAP1 POP DUP3 DUP2 MSTORE PUSH1 0x20 DUP2 ADD DUP5 DUP5 DUP5 ADD GT ISZERO PUSH2 0x5AB JUMPI PUSH2 0x5AA PUSH2 0x2B7 JUMP JUMPDEST JUMPDEST PUSH2 0x5B6 DUP5 DUP3 DUP6 PUSH2 0x4C1 JUMP JUMPDEST POP SWAP4 SWAP3 POP POP POP JUMP JUMPDEST PUSH0 DUP3 PUSH1 0x1F DUP4 ADD SLT PUSH2 0x5D2 JUMPI PUSH2 0x5D1 PUSH2 0x2B3 JUMP JUMPDEST JUMPDEST DUP2 MLOAD PUSH2 0x5E2 DUP5 DUP3 PUSH1 0x20 DUP7 ADD PUSH2 0x57D JUMP JUMPDEST SWAP2 POP POP SWAP3 SWAP2 POP POP JUMP JUMPDEST PUSH0 PUSH1 0x20 DUP3 DUP5 SUB SLT ISZERO PUSH2 0x600 JUMPI PUSH2 0x5FF PUSH2 0x2AB JUMP JUMPDEST JUMPDEST PUSH0 DUP3 ADD MLOAD PUSH8 0xFFFFFFFFFFFFFFFF DUP2 GT ISZERO PUSH2 0x61D JUMPI PUSH2 0x61C PUSH2 0x2AF JUMP JUMPDEST JUMPDEST PUSH2 0x629 DUP5 DUP3 DUP6 ADD PUSH2 0x5BE JUMP JUMPDEST SWAP2 POP POP SWAP3 SWAP2 POP POP JUMP INVALID PUSH1 0x80 PUSH1 0x40 MSTORE PUSH1 0x40 MLOAD DUP1 PUSH1 0x40 ADD PUSH1 0x40 MSTORE DUP1 PUSH1 0x9 DUP2 MSTORE PUSH1 0x20 ADD PUSH32 0x48656C6C6F204254430000000000000000000000000000000000000000000000 DUP2 MSTORE POP PUSH0 SWAP1 DUP2 PUSH2 0x47 SWAP2 SWAP1 PUSH2 0x293 JUMP JUMPDEST POP CALLVALUE DUP1 ISZERO PUSH2 0x53 JUMPI PUSH0 DUP1 REVERT JUMPDEST POP PUSH2 0x362 JUMP JUMPDEST PUSH0 DUP2 MLOAD SWAP1 POP SWAP2 SWAP1 POP JUMP JUMPDEST PUSH32 0x4E487B7100000000000000000000000000000000000000000000000000000000 PUSH0 MSTORE PUSH1 0x41 PUSH1 0x4 MSTORE PUSH1 0x24 PUSH0 REVERT JUMPDEST PUSH32 0x4E487B7100000000000000000000000000000000000000000000000000000000 PUSH0 MSTORE PUSH1 0x22 PUSH1 0x4 MSTORE PUSH1 0x24 PUSH0 REVERT JUMPDEST PUSH0 PUSH1 0x2 DUP3 DIV SWAP1 POP PUSH1 0x1 DUP3 AND DUP1 PUSH2 0xD4 JUMPI PUSH1 0x7F DUP3 AND SWAP2 POP JUMPDEST PUSH1 0x20 DUP3 LT DUP2 SUB PUSH2 0xE7 JUMPI PUSH2 0xE6 PUSH2 0x90 JUMP JUMPDEST JUMPDEST POP SWAP2 SWAP1 POP JUMP JUMPDEST PUSH0 DUP2 SWAP1 POP DUP2 PUSH0 MSTORE PUSH1 0x20 PUSH0 KECCAK256 SWAP1 POP SWAP2 SWAP1 POP JUMP JUMPDEST PUSH0 PUSH1 0x20 PUSH1 0x1F DUP4 ADD DIV SWAP1 POP SWAP2 SWAP1 POP JUMP JUMPDEST PUSH0 DUP3 DUP3 SHL SWAP1 POP SWAP3 SWAP2 POP POP JUMP JUMPDEST PUSH0 PUSH1 0x8 DUP4 MUL PUSH2 0x149 PUSH32 0xFFFFFFFFFFFFFFFFFFFFFFFFFFFFFFFFFFFFFFFFFFFFFFFFFFFFFFFFFFFFFFFF DUP3 PUSH2 0x10E JUMP JUMPDEST PUSH2 0x153 DUP7 DUP4 PUSH2 0x10E JUMP JUMPDEST SWAP6 POP DUP1 NOT DUP5 AND SWAP4 POP DUP1 DUP7 AND DUP5 OR SWAP3 POP POP POP SWAP4 SWAP3 POP POP POP JUMP JUMPDEST PUSH0 DUP2 SWAP1 POP SWAP2 SWAP1 POP JUMP JUMPDEST PUSH0 DUP2 SWAP1 POP SWAP2 SWAP1 POP JUMP JUMPDEST PUSH0 PUSH2 0x197 PUSH2 0x192 PUSH2 0x18D DUP5 PUSH2 0x16B JUMP JUMPDEST PUSH2 0x174 JUMP JUMPDEST PUSH2 0x16B JUMP JUMPDEST SWAP1 POP SWAP2 SWAP1 POP JUMP JUMPDEST PUSH0 DUP2 SWAP1 POP SWAP2 SWAP1 POP JUMP JUMPDEST PUSH2 0x1B0 DUP4 PUSH2 0x17D JUMP JUMPDEST PUSH2 0x1C4 PUSH2 0x1BC DUP3 PUSH2 0x19E JUMP JUMPDEST DUP5 DUP5 SLOAD PUSH2 0x11A JUMP JUMPDEST DUP3 SSTORE POP POP POP POP JUMP JUMPDEST PUSH0 SWAP1 JUMP JUMPDEST PUSH2 0x1D8 PUSH2 0x1CC JUMP JUMPDEST PUSH2 0x1E3 DUP2 DUP5 DUP5 PUSH2 0x1A7 JUMP JUMPDEST POP POP POP JUMP JUMPDEST JUMPDEST DUP2 DUP2 LT ISZERO PUSH2 0x206 JUMPI PUSH2 0x1FB PUSH0 DUP3 PUSH2 0x1D0 JUMP JUMPDEST PUSH1 0x1 DUP2 ADD SWAP1 POP PUSH2 0x1E9 JUMP JUMPDEST POP POP JUMP JUMPDEST PUSH1 0x1F DUP3 GT ISZERO PUSH2 0x24B JUMPI PUSH2 0x21C DUP2 PUSH2 0xED JUMP JUMPDEST PUSH2 0x225 DUP5 PUSH2 0xFF JUMP JUMPDEST DUP2 ADD PUSH1 0x20 DUP6 LT ISZERO PUSH2 0x234 JUMPI DUP2 SWAP1 POP JUMPDEST PUSH2 0x248 PUSH2 0x240 DUP6 PUSH2 0xFF JUMP JUMPDEST DUP4 ADD DUP3 PUSH2 0x1E8 JUMP JUMPDEST POP POP JUMPDEST POP POP POP JUMP JUMPDEST PUSH0 DUP3 DUP3 SHR SWAP1 POP SWAP3 SWAP2 POP POP JUMP JUMPDEST PUSH0 PUSH2 0x26B PUSH0 NOT DUP5 PUSH1 0x8 MUL PUSH2 0x250 JUMP JUMPDEST NOT DUP1 DUP4 AND SWAP2 POP POP SWAP3 SWAP2 POP POP JUMP JUMPDEST PUSH0 PUSH2 0x283 DUP4 DUP4 PUSH2 0x25C JUMP JUMPDEST SWAP2 POP DUP3 PUSH1 0x2 MUL DUP3 OR SWAP1 POP SWAP3 SWAP2 POP POP JUMP JUMPDEST PUSH2 0x29C DUP3 PUSH2 0x59 JUMP JUMPDEST PUSH8 0xFFFFFFFFFFFFFFFF DUP2 GT ISZERO PUSH2 0x2B5 JUMPI PUSH2 0x2B4 PUSH2 0x63 JUMP JUMPDEST JUMPDEST PUSH2 0x2BF DUP3 SLOAD PUSH2 0xBD JUMP JUMPDEST PUSH2 0x2CA DUP3 DUP3 DUP6 PUSH2 0x20A JUMP JUMPDEST PUSH0 PUSH1 0x20 SWAP1 POP PUSH1 0x1F DUP4 GT PUSH1 0x1 DUP2 EQ PUSH2 0x2FB JUMPI PUSH0 DUP5 ISZERO PUSH2 0x2E9 JUMPI DUP3 DUP8 ADD MLOAD SWAP1 POP JUMPDEST PUSH2 0x2F3 DUP6 DUP3 PUSH2 0x278 JUMP JUMPDEST DUP7 SSTORE POP PUSH2 0x35A JUMP JUMPDEST PUSH1 0x1F NOT DUP5 AND PUSH2 0x309 DUP7 PUSH2 0xED JUMP JUMPDEST PUSH0 JUMPDEST DUP3 DUP2 LT ISZERO PUSH2 0x330 JUMPI DUP5 DUP10 ADD MLOAD DUP3 SSTORE PUSH1 0x1 DUP3 ADD SWAP2 POP PUSH1 0x20 DUP6 ADD SWAP5 POP PUSH1 0x20 DUP2 ADD SWAP1 POP PUSH2 0x30B JUMP JUMPDEST DUP7 DUP4 LT ISZERO PUSH2 0x34D JUMPI DUP5 DUP10 ADD MLOAD PUSH2 0x349 PUSH1 0x1F DUP10 AND DUP3 PUSH2 0x25C JUMP JUMPDEST DUP4 SSTORE POP JUMPDEST PUSH1 0x1 PUSH1 0x2 DUP9 MUL ADD DUP9 SSTORE POP POP POP JUMPDEST POP POP POP POP POP POP JUMP JUMPDEST PUSH2 0x9D4 DUP1 PUSH2 0x36F PUSH0 CODECOPY PUSH0 RETURN INVALID PUSH1 0x80 PUSH1 0x40 MSTORE CALLVALUE DUP1 ISZERO PUSH2 0xF JUMPI PUSH0 DUP1 REVERT JUMPDEST POP PUSH1 0x4 CALLDATASIZE LT PUSH2 0x3F JUMPI PUSH0 CALLDATALOAD PUSH1 0xE0 SHR DUP1 PUSH4 0x1A3CD59A EQ PUSH2 0x43 JUMPI DUP1 PUSH4 0x8262963B EQ PUSH2 0x73 JUMPI DUP1 PUSH4 0xAA7458E7 EQ PUSH2 0x8F JUMPI JUMPDEST PUSH0 DUP1 REVERT JUMPDEST PUSH2 0x5D PUSH1 0x4 DUP1 CALLDATASIZE SUB DUP2 ADD SWAP1 PUSH2 0x58 SWAP2 SWAP1 PUSH2 0x40F JUMP JUMPDEST PUSH2 0xBF JUMP JUMPDEST PUSH1 0x40 MLOAD PUSH2 0x6A SWAP2 SWAP1 PUSH2 0x4AA JUMP JUMPDEST PUSH1 0x40 MLOAD DUP1 SWAP2 SUB SWAP1 RETURN JUMPDEST PUSH2 0x8D PUSH1 0x4 DUP1 CALLDATASIZE SUB DUP2 ADD SWAP1 PUSH2 0x88 SWAP2 SWAP1 PUSH2 0x5F6 JUMP JUMPDEST PUSH2 0x259 JUMP JUMPDEST STOP JUMPDEST PUSH2 0xA9 PUSH1 0x4 DUP1 CALLDATASIZE SUB DUP2 ADD SWAP1 PUSH2 0xA4 SWAP2 SWAP1 PUSH2 0x40F JUMP JUMPDEST PUSH2 0x39A JUMP JUMPDEST PUSH1 0x40 MLOAD PUSH2 0xB6 SWAP2 SWAP1 PUSH2 0x4AA JUMP JUMPDEST PUSH1 0x40 MLOAD DUP1 SWAP2 SUB SWAP1 RETURN JUMPDEST PUSH1 0x60 PUSH0 PUSH20 0xFFFFFFFFFFFFFFFFFFFFFFFFFFFFFFFFFFFFFFFF AND PUSH1 0x2 PUSH0 DUP5 DUP2 MSTORE PUSH1 0x20 ADD SWAP1 DUP2 MSTORE PUSH1 0x20 ADD PUSH0 KECCAK256 PUSH1 0x2 ADD PUSH0 SWAP1 SLOAD SWAP1 PUSH2 0x100 EXP SWAP1 DIV PUSH20 0xFFFFFFFFFFFFFFFFFFFFFFFFFFFFFFFFFFFFFFFF AND PUSH20 0xFFFFFFFFFFFFFFFFFFFFFFFFFFFFFFFFFFFFFFFF AND SUB PUSH2 0x1B6 JUMPI PUSH0 DUP1 SLOAD PUSH2 0x133 SWAP1 PUSH2 0x67D JUMP JUMPDEST DUP1 PUSH1 0x1F ADD PUSH1 0x20 DUP1 SWAP2 DIV MUL PUSH1 0x20 ADD PUSH1 0x40 MLOAD SWAP1 DUP2 ADD PUSH1 0x40 MSTORE DUP1 SWAP3 SWAP2 SWAP1 DUP2 DUP2 MSTORE PUSH1 0x20 ADD DUP3 DUP1 SLOAD PUSH2 0x15F SWAP1 PUSH2 0x67D JUMP JUMPDEST DUP1 ISZERO PUSH2 0x1AA JUMPI DUP1 PUSH1 0x1F LT PUSH2 0x181 JUMPI PUSH2 0x100 DUP1 DUP4 SLOAD DIV MUL DUP4 MSTORE SWAP2 PUSH1 0x20 ADD SWAP2 PUSH2 0x1AA JUMP JUMPDEST DUP3 ADD SWAP2 SWAP1 PUSH0 MSTORE PUSH1 0x20 PUSH0 KECCAK256 SWAP1 JUMPDEST DUP2 SLOAD DUP2 MSTORE SWAP1 PUSH1 0x1 ADD SWAP1 PUSH1 0x20 ADD DUP1 DUP4 GT PUSH2 0x18D JUMPI DUP3 SWAP1 SUB PUSH1 0x1F AND DUP3 ADD SWAP2 JUMPDEST POP POP POP POP POP SWAP1 POP PUSH2 0x254 JUMP JUMPDEST PUSH1 0x2 PUSH0 DUP4 DUP2 MSTORE PUSH1 0x20 ADD SWAP1 DUP2 MSTORE PUSH1 0x20 ADD PUSH0 KECCAK256 PUSH1 0x1 ADD DUP1 SLOAD PUSH2 0x1D5 SWAP1 PUSH2 0x67D JUMP JUMPDEST DUP1 PUSH1 0x1F ADD PUSH1 0x20 DUP1 SWAP2 DIV MUL PUSH1 0x20 ADD PUSH1 0x40 MLOAD SWAP1 DUP2 ADD PUSH1 0x40 MSTORE DUP1 SWAP3 SWAP2 SWAP1 DUP2 DUP2 MSTORE PUSH1 0x20 ADD DUP3 DUP1 SLOAD PUSH2 0x201 SWAP1 PUSH2 0x67D JUMP JUMPDEST DUP1 ISZERO PUSH2 0x24C JUMPI DUP1 PUSH1 0x1F LT PUSH2 0x223 JUMPI PUSH2 0x100 DUP1 DUP4 SLOAD DIV MUL DUP4 MSTORE SWAP2 PUSH1 0x20 ADD SWAP2 PUSH2 0x24C JUMP JUMPDEST DUP3 ADD SWAP2 SWAP1 PUSH0 MSTORE PUSH1 0x20 PUSH0 KECCAK256 SWAP1 JUMPDEST DUP2 SLOAD DUP2 MSTORE SWAP1 PUSH1 0x1 ADD SWAP1 PUSH1 0x20 ADD DUP1 DUP4 GT PUSH2 0x22F JUMPI DUP3 SWAP1 SUB PUSH1 0x1F AND DUP3 ADD SWAP2 JUMPDEST POP POP POP POP POP SWAP1 POP JUMPDEST SWAP2 SWAP1 POP JUMP JUMPDEST PUSH0 PUSH1 0x40 MLOAD DUP1 PUSH1 0x60 ADD PUSH1 0x40 MSTORE DUP1 DUP4 DUP2 MSTORE PUSH1 0x20 ADD DUP5 DUP2 MSTORE PUSH1 0x20 ADD CALLER PUSH20 0xFFFFFFFFFFFFFFFFFFFFFFFFFFFFFFFFFFFFFFFF AND DUP2 MSTORE POP SWAP1 POP PUSH1 0x1 DUP2 SWAP1 DUP1 PUSH1 0x1 DUP2 SLOAD ADD DUP1 DUP3 SSTORE DUP1 SWAP2 POP POP PUSH1 0x1 SWAP1 SUB SWAP1 PUSH0 MSTORE PUSH1 0x20 PUSH0 KECCAK256 SWAP1 PUSH1 0x3 MUL ADD PUSH0 SWAP1 SWAP2 SWAP1 SWAP2 SWAP1 SWAP2 POP PUSH0 DUP3 ADD MLOAD DUP2 PUSH0 ADD SSTORE PUSH1 0x20 DUP3 ADD MLOAD DUP2 PUSH1 0x1 ADD SWAP1 DUP2 PUSH2 0x2D3 SWAP2 SWAP1 PUSH2 0x84A JUMP JUMPDEST POP PUSH1 0x40 DUP3 ADD MLOAD DUP2 PUSH1 0x2 ADD PUSH0 PUSH2 0x100 EXP DUP2 SLOAD DUP2 PUSH20 0xFFFFFFFFFFFFFFFFFFFFFFFFFFFFFFFFFFFFFFFF MUL NOT AND SWAP1 DUP4 PUSH20 0xFFFFFFFFFFFFFFFFFFFFFFFFFFFFFFFFFFFFFFFF AND MUL OR SWAP1 SSTORE POP POP POP DUP1 PUSH1 0x2 PUSH0 DUP5 DUP2 MSTORE PUSH1 0x20 ADD SWAP1 DUP2 MSTORE PUSH1 0x20 ADD PUSH0 KECCAK256 PUSH0 DUP3 ADD MLOAD DUP2 PUSH0 ADD SSTORE PUSH1 0x20 DUP3 ADD MLOAD DUP2 PUSH1 0x1 ADD SWAP1 DUP2 PUSH2 0x34B SWAP2 SWAP1 PUSH2 0x84A JUMP JUMPDEST POP PUSH1 0x40 DUP3 ADD MLOAD DUP2 PUSH1 0x2 ADD PUSH0 PUSH2 0x100 EXP DUP2 SLOAD DUP2 PUSH20 0xFFFFFFFFFFFFFFFFFFFFFFFFFFFFFFFFFFFFFFFF MUL NOT AND SWAP1 DUP4 PUSH20 0xFFFFFFFFFFFFFFFFFFFFFFFFFFFFFFFFFFFFFFFF AND MUL OR SWAP1 SSTORE POP SWAP1 POP POP POP POP POP JUMP JUMPDEST PUSH1 0x60 PUSH2 0x3A5 DUP3 PUSH2 0xBF JUMP JUMPDEST PUSH1 0x40 MLOAD PUSH1 0x20 ADD PUSH2 0x3B5 SWAP2 SWAP1 PUSH2 0x979 JUMP JUMPDEST PUSH1 0x40 MLOAD PUSH1 0x20 DUP2 DUP4 SUB SUB DUP2 MSTORE SWAP1 PUSH1 0x40 MSTORE SWAP1 POP SWAP2 SWAP1 POP JUMP JUMPDEST PUSH0 PUSH1 0x40 MLOAD SWAP1 POP SWAP1 JUMP JUMPDEST PUSH0 DUP1 REVERT JUMPDEST PUSH0 DUP1 REVERT JUMPDEST PUSH0 DUP2 SWAP1 POP SWAP2 SWAP1 POP JUMP JUMPDEST PUSH2 0x3EE DUP2 PUSH2 0x3DC JUMP JUMPDEST DUP2 EQ PUSH2 0x3F8 JUMPI PUSH0 DUP1 REVERT JUMPDEST POP JUMP JUMPDEST PUSH0 DUP2 CALLDATALOAD SWAP1 POP PUSH2 0x409 DUP2 PUSH2 0x3E5 JUMP JUMPDEST SWAP3 SWAP2 POP POP JUMP JUMPDEST PUSH0 PUSH1 0x20 DUP3 DUP5 SUB SLT ISZERO PUSH2 0x424 JUMPI PUSH2 0x423 PUSH2 0x3D4 JUMP JUMPDEST JUMPDEST PUSH0 PUSH2 0x431 DUP5 DUP3 DUP6 ADD PUSH2 0x3FB JUMP JUMPDEST SWAP2 POP POP SWAP3 SWAP2 POP POP JUMP JUMPDEST PUSH0 DUP2 MLOAD SWAP1 POP SWAP2 SWAP1 POP JUMP JUMPDEST PUSH0 DUP3 DUP3 MSTORE PUSH1 0x20 DUP3 ADD SWAP1 POP SWAP3 SWAP2 POP POP JUMP JUMPDEST DUP3 DUP2 DUP4 MCOPY PUSH0 DUP4 DUP4 ADD MSTORE POP POP POP JUMP JUMPDEST PUSH0 PUSH1 0x1F NOT PUSH1 0x1F DUP4 ADD AND SWAP1 POP SWAP2 SWAP1 POP JUMP JUMPDEST PUSH0 PUSH2 0x47C DUP3 PUSH2 0x43A JUMP JUMPDEST PUSH2 0x486 DUP2 DUP6 PUSH2 0x444 JUMP JUMPDEST SWAP4 POP PUSH2 0x496 DUP2 DUP6 PUSH1 0x20 DUP7 ADD PUSH2 0x454 JUMP JUMPDEST PUSH2 0x49F DUP2 PUSH2 0x462 JUMP JUMPDEST DUP5 ADD SWAP2 POP POP SWAP3 SWAP2 POP POP JUMP JUMPDEST PUSH0 PUSH1 0x20 DUP3 ADD SWAP1 POP DUP2 DUP2 SUB PUSH0 DUP4 ADD MSTORE PUSH2 0x4C2 DUP2 DUP5 PUSH2 0x472 JUMP JUMPDEST SWAP1 POP SWAP3 SWAP2 POP POP JUMP JUMPDEST PUSH0 DUP1 REVERT JUMPDEST PUSH0 DUP1 REVERT JUMPDEST PUSH32 0x4E487B7100000000000000000000000000000000000000000000000000000000 PUSH0 MSTORE PUSH1 0x41 PUSH1 0x4 MSTORE PUSH1 0x24 PUSH0 REVERT JUMPDEST PUSH2 0x508 DUP3 PUSH2 0x462 JUMP JUMPDEST DUP2 ADD DUP2 DUP2 LT PUSH8 0xFFFFFFFFFFFFFFFF DUP3 GT OR ISZERO PUSH2 0x527 JUMPI PUSH2 0x526 PUSH2 0x4D2 JUMP JUMPDEST JUMPDEST DUP1 PUSH1 0x40 MSTORE POP POP POP JUMP JUMPDEST PUSH0 PUSH2 0x539 PUSH2 0x3CB JUMP JUMPDEST SWAP1 POP PUSH2 0x545 DUP3 DUP3 PUSH2 0x4FF JUMP JUMPDEST SWAP2 SWAP1 POP JUMP JUMPDEST PUSH0 PUSH8 0xFFFFFFFFFFFFFFFF DUP3 GT ISZERO PUSH2 0x564 JUMPI PUSH2 0x563 PUSH2 0x4D2 JUMP JUMPDEST JUMPDEST PUSH2 0x56D DUP3 PUSH2 0x462 JUMP JUMPDEST SWAP1 POP PUSH1 0x20 DUP2 ADD SWAP1 POP SWAP2 SWAP1 POP JUMP JUMPDEST DUP3 DUP2 DUP4 CALLDATACOPY PUSH0 DUP4 DUP4 ADD MSTORE POP POP POP JUMP JUMPDEST PUSH0 PUSH2 0x59A PUSH2 0x595 DUP5 PUSH2 0x54A JUMP JUMPDEST PUSH2 0x530 JUMP JUMPDEST SWAP1 POP DUP3 DUP2 MSTORE PUSH1 0x20 DUP2 ADD DUP5 DUP5 DUP5 ADD GT ISZERO PUSH2 0x5B6 JUMPI PUSH2 0x5B5 PUSH2 0x4CE JUMP JUMPDEST JUMPDEST PUSH2 0x5C1 DUP5 DUP3 DUP6 PUSH2 0x57A JUMP JUMPDEST POP SWAP4 SWAP3 POP POP POP JUMP JUMPDEST PUSH0 DUP3 PUSH1 0x1F DUP4 ADD SLT PUSH2 0x5DD JUMPI PUSH2 0x5DC PUSH2 0x4CA JUMP JUMPDEST JUMPDEST DUP2 CALLDATALOAD PUSH2 0x5ED DUP5 DUP3 PUSH1 0x20 DUP7 ADD PUSH2 0x588 JUMP JUMPDEST SWAP2 POP POP SWAP3 SWAP2 POP POP JUMP JUMPDEST PUSH0 DUP1 PUSH1 0x40 DUP4 DUP6 SUB SLT ISZERO PUSH2 0x60C JUMPI PUSH2 0x60B PUSH2 0x3D4 JUMP JUMPDEST JUMPDEST PUSH0 DUP4 ADD CALLDATALOAD PUSH8 0xFFFFFFFFFFFFFFFF DUP2 GT ISZERO PUSH2 0x629 JUMPI PUSH2 0x628 PUSH2 0x3D8 JUMP JUMPDEST JUMPDEST PUSH2 0x635 DUP6 DUP3 DUP7 ADD PUSH2 0x5C9 JUMP JUMPDEST SWAP3 POP POP PUSH1 0x20 PUSH2 0x646 DUP6 DUP3 DUP7 ADD PUSH2 0x3FB JUMP JUMPDEST SWAP2 POP POP SWAP3 POP SWAP3 SWAP1 POP JUMP JUMPDEST PUSH32 0x4E487B7100000000000000000000000000000000000000000000000000000000 PUSH0 MSTORE PUSH1 0x22 PUSH1 0x4 MSTORE PUSH1 0x24 PUSH0 REVERT JUMPDEST PUSH0 PUSH1 0x2 DUP3 DIV SWAP1 POP PUSH1 0x1 DUP3 AND DUP1 PUSH2 0x694 JUMPI PUSH1 0x7F DUP3 AND SWAP2 POP JUMPDEST PUSH1 0x20 DUP3 LT DUP2 SUB PUSH2 0x6A7 JUMPI PUSH2 0x6A6 PUSH2 0x650 JUMP JUMPDEST JUMPDEST POP SWAP2 SWAP1 POP JUMP JUMPDEST PUSH0 DUP2 SWAP1 POP DUP2 PUSH0 MSTORE PUSH1 0x20 PUSH0 KECCAK256 SWAP1 POP SWAP2 SWAP1 POP JUMP JUMPDEST PUSH0 PUSH1 0x20 PUSH1 0x1F DUP4 ADD DIV SWAP1 POP SWAP2 SWAP1 POP JUMP JUMPDEST PUSH0 DUP3 DUP3 SHL SWAP1 POP SWAP3 SWAP2 POP POP JUMP JUMPDEST PUSH0 PUSH1 0x8 DUP4 MUL PUSH2 0x709 PUSH32 0xFFFFFFFFFFFFFFFFFFFFFFFFFFFFFFFFFFFFFFFFFFFFFFFFFFFFFFFFFFFFFFFF DUP3 PUSH2 0x6CE JUMP JUMPDEST PUSH2 0x713 DUP7 DUP4 PUSH2 0x6CE JUMP JUMPDEST SWAP6 POP DUP1 NOT DUP5 AND SWAP4 POP DUP1 DUP7 AND DUP5 OR SWAP3 POP POP POP SWAP4 SWAP3 POP POP POP JUMP JUMPDEST PUSH0 DUP2 SWAP1 POP SWAP2 SWAP1 POP JUMP JUMPDEST PUSH0 PUSH2 0x74E PUSH2 0x749 PUSH2 0x744 DUP5 PUSH2 0x3DC JUMP JUMPDEST PUSH2 0x72B JUMP JUMPDEST PUSH2 0x3DC JUMP JUMPDEST SWAP1 POP SWAP2 SWAP1 POP JUMP JUMPDEST PUSH0 DUP2 SWAP1 POP SWAP2 SWAP1 POP JUMP JUMPDEST PUSH2 0x767 DUP4 PUSH2 0x734 JUMP JUMPDEST PUSH2 0x77B PUSH2 0x773 DUP3 PUSH2 0x755 JUMP JUMPDEST DUP5 DUP5 SLOAD PUSH2 0x6DA JUMP JUMPDEST DUP3 SSTORE POP POP POP POP JUMP JUMPDEST PUSH0 SWAP1 JUMP JUMPDEST PUSH2 0x78F PUSH2 0x783 JUMP JUMPDEST PUSH2 0x79A DUP2 DUP5 DUP5 PUSH2 0x75E JUMP JUMPDEST POP POP POP JUMP JUMPDEST JUMPDEST DUP2 DUP2 LT ISZERO PUSH2 0x7BD JUMPI PUSH2 0x7B2 PUSH0 DUP3 PUSH2 0x787 JUMP JUMPDEST PUSH1 0x1 DUP2 ADD SWAP1 POP PUSH2 0x7A0 JUMP JUMPDEST POP POP JUMP JUMPDEST PUSH1 0x1F DUP3 GT ISZERO PUSH2 0x802 JUMPI PUSH2 0x7D3 DUP2 PUSH2 0x6AD JUMP JUMPDEST PUSH2 0x7DC DUP5 PUSH2 0x6BF JUMP JUMPDEST DUP2 ADD PUSH1 0x20 DUP6 LT ISZERO PUSH2 0x7EB JUMPI DUP2 SWAP1 POP JUMPDEST PUSH2 0x7FF PUSH2 0x7F7 DUP6 PUSH2 0x6BF JUMP JUMPDEST DUP4 ADD DUP3 PUSH2 0x79F JUMP JUMPDEST POP POP JUMPDEST POP POP POP JUMP JUMPDEST PUSH0 DUP3 DUP3 SHR SWAP1 POP SWAP3 SWAP2 POP POP JUMP JUMPDEST PUSH0 PUSH2 0x822 PUSH0 NOT DUP5 PUSH1 0x8 MUL PUSH2 0x807 JUMP JUMPDEST NOT DUP1 DUP4 AND SWAP2 POP POP SWAP3 SWAP2 POP POP JUMP JUMPDEST PUSH0 PUSH2 0x83A DUP4 DUP4 PUSH2 0x813 JUMP JUMPDEST SWAP2 POP DUP3 PUSH1 0x2 MUL DUP3 OR SWAP1 POP SWAP3 SWAP2 POP POP JUMP JUMPDEST PUSH2 0x853 DUP3 PUSH2 0x43A JUMP JUMPDEST PUSH8 0xFFFFFFFFFFFFFFFF DUP2 GT ISZERO PUSH2 0x86C JUMPI PUSH2 0x86B PUSH2 0x4D2 JUMP JUMPDEST JUMPDEST PUSH2 0x876 DUP3 SLOAD PUSH2 0x67D JUMP JUMPDEST PUSH2 0x881 DUP3 DUP3 DUP6 PUSH2 0x7C1 JUMP JUMPDEST PUSH0 PUSH1 0x20 SWAP1 POP PUSH1 0x1F DUP4 GT PUSH1 0x1 DUP2 EQ PUSH2 0x8B2 JUMPI PUSH0 DUP5 ISZERO PUSH2 0x8A0 JUMPI DUP3 DUP8 ADD MLOAD SWAP1 POP JUMPDEST PUSH2 0x8AA DUP6 DUP3 PUSH2 0x82F JUMP JUMPDEST DUP7 SSTORE POP PUSH2 0x911 JUMP JUMPDEST PUSH1 0x1F NOT DUP5 AND PUSH2 0x8C0 DUP7 PUSH2 0x6AD JUMP JUMPDEST PUSH0 JUMPDEST DUP3 DUP2 LT ISZERO PUSH2 0x8E7 JUMPI DUP5 DUP10 ADD MLOAD DUP3 SSTORE PUSH1 0x1 DUP3 ADD SWAP2 POP PUSH1 0x20 DUP6 ADD SWAP5 POP PUSH1 0x20 DUP2 ADD SWAP1 POP PUSH2 0x8C2 JUMP JUMPDEST DUP7 DUP4 LT ISZERO PUSH2 0x904 JUMPI DUP5 DUP10 ADD MLOAD PUSH2 0x900 PUSH1 0x1F DUP10 AND DUP3 PUSH2 0x813 JUMP JUMPDEST DUP4 SSTORE POP JUMPDEST PUSH1 0x1 PUSH1 0x2 DUP9 MUL ADD DUP9 SSTORE POP POP POP JUMPDEST POP POP POP POP POP POP JUMP JUMPDEST PUSH0 DUP2 SWAP1 POP SWAP3 SWAP2 POP POP JUMP JUMPDEST PUSH0 PUSH2 0x92D DUP3 PUSH2 0x43A JUMP JUMPDEST PUSH2 0x937 DUP2 DUP6 PUSH2 0x919 JUMP JUMPDEST SWAP4 POP PUSH2 0x947 DUP2 DUP6 PUSH1 0x20 DUP7 ADD PUSH2 0x454 JUMP JUMPDEST DUP1 DUP5 ADD SWAP2 POP POP SWAP3 SWAP2 POP POP JUMP JUMPDEST PUSH32 0x2068656C6C6F206E657700000000000000000000000000000000000000000000 DUP2 MSTORE POP JUMP JUMPDEST PUSH0 PUSH2 0x984 DUP3 DUP5 PUSH2 0x923 JUMP JUMPDEST SWAP2 POP PUSH2 0x98F DUP3 PUSH2 0x953 JUMP JUMPDEST PUSH1 0xA DUP3 ADD SWAP2 POP DUP2 SWAP1 POP SWAP3 SWAP2 POP POP JUMP INVALID LOG2 PUSH5 0x6970667358 0x22 SLT KECCAK256 PUSH3 0x1E8D0D 0xED 0xAB PUSH26 0xF540E49D991BC5BCA168EC94F05E6CF280564083C1E0D4003064 PUSH20 0x6F6C634300081A0033A264697066735822122049 0xC2 SHR EXTCODEHASH BALANCE 0xE1 EXTCODEHASH JUMPI PUSH11 0x55CD4AB3164D3AB9036DAB DUP14 PUSH18 0x11D39C75E185A096F3FD64736F6C63430008 BYTE STOP CALLER "
		},
		"gasEstimates": {
			"creation": {
				"codeDepositCost": "1007000",
				"executionCost": "1045",
				"totalCost": "1008045"
			},
			"external": {
				"createHello(string,uint256)": "infinite",
				"getHello(uint256)": "infinite"
			}
		},
		"methodIdentifiers": {
			"createHello(string,uint256)": "0191a62e",
			"getHello(uint256)": "1da79a11"
		}
	},
	"abi": [
		{
			"inputs": [
				{
					"internalType": "string",
					"name": "name",
					"type": "string"
				},
				{
					"internalType": "uint256",
					"name": "id",
					"type": "uint256"
				}
			],
			"name": "createHello",
			"outputs": [],
			"stateMutability": "nonpayable",
			"type": "function"
		},
		{
			"inputs": [
				{
					"internalType": "uint256",
					"name": "id",
					"type": "uint256"
				}
			],
			"name": "getHello",
			"outputs": [
				{
					"internalType": "string",
					"name": "",
					"type": "string"
				}
			],
			"stateMutability": "view",
			"type": "function"
		}
	]
}